:020000040800F2
:1000000070080020E9010008C13400089D2A00089A
:10001000BD340008D1180008D534000800000000E5
:10002000000000000000000000000000C9340008CB
:10003000D518000800000000C5340008CD340008C1
:10004000030200080302000803020008030200087C
:10005000030200080302000803020008030200086C
:10006000030200080302000803020008030200085C
:10007000030200080302000803020008030200084C
:10008000030200080302000803020008030200083C
:10009000030200080302000803020008030200082C
:1000A000030200080302000803020008030200081C
:1000B000030200080302000803020008030200080C
:1000C00003020008030200080302000803020008FC
:1000D00003020008030200080302000803020008EC
:1000E00003020008030200080302000800F002F8FF
:1000F00000F06BF814A696E8000CB244B344DA455D
:1001000001D100F062F8BAE80F000FA696E83000BF
:10011000A5EB040504EB0607AAEB0704A7F101070A
:100120004FEA15154FEA3414A4F10104AC4201D38F
:1001300000F04BF813F0010F18BFFB1A43F0010356
:1001400000F001F8DBE71847808C0000A08C00006D
:10015000103A24BF78C878C1FAD8520724BF30C8F3
:1001600030C144BF04680C60704700007047000055
:100170000023002400250026103A28BF78C1FBD8B0
:10018000520728BF30C148BF0B607047662907F08F
:100190007C86642900F0B680782900F0EF8000208A
:1001A00070471FB59DE8030001F05EF900F0DAFC2E
:1001B00004000020002106F045FDE06000F0EEFDA7
:1001C0001FBD10B500F053FE10BD00F087FE1146B4
:1001D000FFF7E7FF03F0F0FF01F07EF803B4FFF74D
:1001E000F0FF03BC01F0BEFA094880470948004708
:1001F000FEE7FEE7FEE7FEE7FEE7FEE7FEE7FEE7D7
:10020000FEE7FEE704480549054A064B7047000033
:10021000D1340008ED0000087002002070080020B2
:10022000700400207004002053EA020C23D010B5A3
:100230004C1084EA530404D54042C1F1000138BF98
:10024000491E1B4204D55242C3F1000338BF5B1E56
:1002500000F08BF914F0804F04D04042C1F100014E
:1002600038BF491E14F0004F04D05242C3F10003BE
:1002700038BF5B1E10BD13B540424FF0000070EB5D
:100280000104B8BF012001F0004100281CBF6FF03D
:1002900000414FF0FF30AFF300801CBD0FB40449A4
:1002A00010B503AA029800F04BFC10BC5DF814FBDB
:1002B0009C00002070B5044685690068C10601D520
:1002C000302600E02026C00707D070BDD4E9012108
:1002D00030469047206A401C20626D1EF6D570BDE6
:1002E00070B5044685690078C00707D170BDD4E9B0
:1002F000012120209047206A401C20626D1EF6D507
:1003000070BD00002DE9F0410646002410687529F3
:10031000314616A510D0AFF30080002802DA404223
:1003200013A507E031688A0701D512A502E0490745
:1003300004D511A5012401E0AFF3008000210A22B9
:1003400006F1240709E0B0FBF2FCB0FBF2F302FB7C
:100350001C00303078541846491C0028F3D123463D
:100360002A463046BDE8F04100F082B900000000A6
:100370002D0000002B0000002000000070B5044696
:100380000D4621461068AFF300802188090502D58B
:100390000F4A7A4402E00E4A7A440E32002104F1F8
:1003A000240305E000F00F060009965D5E54491C29
:1003B0000028F7D120780023000704D5702D02D043
:1003C00009B1022311322046BDE8704000F050B957
:1003D000E87B00002DE9F05F894604464FF0000AF3
:1003E000DFF824B1FB44C0F820A02046E16888472C
:1003F00000287DD0252806D0D4E901219047206A25
:10040000401C2062F1E700255F462046E1688847EE
:100410002028064607DB312E05D2B81910F8200C2B
:1004200008B10543F1E7A80701D525F00405C4F894
:100430001CA00027C4F818A02A2E09D0304606F0C8
:10044000AFF838B304EB8708303EC8F8186019E0FD
:1004500059F8041B204604EB87029161E168884744
:10046000012F064618D1E069002820DA25F0200582
:100470001DE0D8F8180000EB800006EB4000303893
:10048000C8F818002046E1688847064606F088F854
:100490000028EED1012F0AD02E2E08D12046E16887
:1004A00088477F1C0646022F45F02005C4DBA06963
:1004B000002803DA404245F00105A061E80701D0B9
:1004C00025F01005A6B1A6F14100192802D8203662
:1004D00045F400654A463146204625604D46FFF703
:1004E00055FE60B1012807D0ED1D25F0070000E0A2
:1004F00007E000F1080978E705F1040975E73046DF
:100500007AE7206ABDE8F09FBE7B000040EA010365
:1005100010B59B070FD1042A0DD310C808C9121FAC
:100520009C42F8D020BA19BA884201D9012010BDE6
:100530004FF0FF3010BD1AB1D30703D0521C07E0B3
:10054000002010BD10F8013B11F8014B1B1B07D117
:1005500010F8013B11F8014B1B1B01D1921EF1D188
:10056000184610BD70477047704753EA020C00F000
:1005700069802DE9F04B4FF00006002B1FBFB3FA46
:1005800083F503FA05F424FA05F65E4012BF16431C
:10059000B2FA82F502FA05F4C5F120051EBF22FA6F
:1005A00005FC44EA0C04203556EA044C4FEA144496
:1005B00018BF641C4FF000084FF00009904271EB27
:1005C000030C39D3002919BFB1FA81F701FA07F6F4
:1005D000B0FA80F700FA07F6C7F120071EBF20FA2D
:1005E00007FC46EA0C062037B6FBF4FCA7EB050730
:1005F000103F07F01F0BCBF120062CFA06F60CFA81
:100600000BFB44BFB3460026202FA4BF5E464FF02D
:10061000000B5BEA060C08BF4FF0010B19EB0B094E
:1006200048EB0608ABFB027C06FB02CC0BFB03CCC1
:10063000C01B71EB0C01C1E70B4602464146484620
:10064000BDE8F08B13B5084318BF4FF0FF300146EB
:10065000AFF30080BDE81C40704710B500F086FA8B
:10066000006810BD10B5044600F080FA046010BDAB
:100670002DE9F0470D4699469246044600F12408BC
:100680000168880604D5E06921F01001216000E0CE
:100690000120A84201DD471B00E00027A1697A196B
:1006A00002EB0900081AA0612078C00602D4204697
:1006B000FFF700FE002608E0D4E901211AF8060041
:1006C0009047206A401C761C20624E45F4DB20785F
:1006D000C0060AD52046FFF7EDFD06E0D4E901216A
:1006E00030209047206A401C2062381EA7F1010785
:1006F000F4DC07E0D4E9012118F805009047206AEE
:10070000401C2062281EA5F10105F3DC2046FFF7FE
:10071000E7FD2078000602D50220BDE8F087012021
:10072000FBE72DE9FF4F0C461E464FF0FF378BB01D
:10073000D2E90001DDF860800A908A46C1F30A55CB
:1007400005B93D46002108464FF00000BAF1000F00
:1007500000F4400005DA00EB80004FF4400101EAAC
:1007600050004FEA9059B9F1010F00DDB9460A98DF
:1007700050EA4A000ED044F61050A5F2FF3545432A
:100780002F14B8F1000F1ED07542291E1EDDC9F1CD
:1007900000021CE0B8F1010F4FF0000001D0302141
:1007A00003E0F24305E02154401CB042FBDB30463D
:1007B0000022002121540B99C1F80880C1E90020D2
:1007C0000FB0BDE8F08FBD1B6D1CDEE74A4600DAB6
:1007D000694206A800F06CFA06AB93E8070003AB89
:1007E00083E8070050460A9905F096FA8DE807005D
:1007F000A0F500501F3800900398002D0ADD42F24A
:100800001F014A460844002303A90390684605F0E7
:10081000FFFC09E0A0F500504A461F38002303A959
:100820000390684605F009FD8DE807000004000C00
:1008300003D04FF0FF30410800E01046B8F1000F40
:1008400003D00022009215461EE0751E05D400F06C
:1008500091F9303262556D1EF9D5B3460122084335
:1008600002D000227F1C04E02078302801D1002231
:100870007F1E002A099784D01DE0112D07DA00F0B1
:1008800079F9303262556D1C50EA0102F5D1084306
:1008900002D00098C8B10EE00021681E05E0235C7C
:1008A000625C63542254401E491C8142F7DBAB4614
:1008B000A81B401E0990002004F80B000B98099A11
:1008C000C0F80880C0E9002B7AE711264FF0000835
:1008D00057E72DE9F04F88460446D21D22F0070164
:1008E00091B0D1E90001CDE90A0105F0DDFD024634
:1008F0000B98C00F01D02D2007E02068810701D59B
:100900002B2002E0202101EAC000032A099001D037
:10091000072A05DB03464146204600F089F90BE132
:100920002078800601D5E06900E00620B8F1650F67
:10093000814606D0B8F1660F18D0B8F1670F70D1B4
:1009400031E00020B9F1110F009001DB112301E02B
:1009500009F101030AAA01A90CA8FFF7E2FEDDE9EB
:100960000C70002609F10105834647E001204B4643
:1009700000904FF000470AAA01A90CA8FFF7D1FE8A
:10098000DDE90DB00C995D46002610B909F10100B2
:100990000D18B9EB050003D4C0F1FF3609F10105CC
:1009A000A5EB09002BE0B9F1010F01DA4FF00109C5
:1009B0000020B9F1110F0090484601DD112300E03D
:1009C00003460AAA01A90CA8FFF7ABFEDDE90C70EB
:1009D0004D4600268346207800070AD4AB4500DA4E
:1009E0005D4601A8012D04DD411911F8011C3029D3
:1009F00007D04F4502DA17F1040F04DA01208246CE
:100A00000FE06D1EEEE7002F02DCED1B3E4403E01D
:100A1000781CA84200DD7D1CB81B00F1010A4FF0D4
:100A200000472078000703D4AA4501DB4FF0FF3AC6
:100A30000021B7F1004F0DF143088DF8431024D089
:100A400002202B23002F01DA7F422D230A21021ED0
:100A5000A0F1010000DC5FB197FBF1FC97FBF1F224
:100A600001FB1C7C17460CF1300C08F801CDEEE7B9
:100A7000A8F1010003702188090501D5452100E096
:100A80006521A0F1010800F8011C09980FA9A1EB4C
:100A90000807FF1D00B10120411901EBEA70A169AF
:100AA0003844081A401EA0612078C00602D42046AF
:100AB000FFF700FC099828B1D4E901219047206A8A
:100AC000401C20622078C00622D52046FFF7F2FBAA
:100AD0001EE0002E04DBB34502DD01A8805D00E0CE
:100AE0003020D4E901219047206A401C2062761C06
:100AF000AAF101005FEA000A0AD100F033F8C068E9
:100B00000168405CD4E901219047206A401C2062C2
:100B1000281EA5F10105DCDC07E0D4E9012118F865
:100B2000010B9047206A401C2062381EA7F1010784
:100B3000F3DC2046FFF7D4FB032011B041E60000B0
:100B4000074B70B50D467B4400F05FF8044628461D
:100B500000F020F910B14FF0FF3070BD204670BD9D
:100B6000936000000048704764010020004870470F
:100B70004401002030B5B0F10A0271F100034FEAE0
:100B8000900E4EEA817EB0EB0E0061EB91014FEAD0
:100B9000101E4EEA017E10EB0E0041EB11114FEAE0
:100BA000102E4EEA016E10EB0E0041EB11214FEAC0
:100BB000104E4EEA014E10EB0E0041EB1141401871
:100BC00041F100014FEAD00040EA41704FEAD10103
:100BD0004FEA810444EA907410EB800544EB010471
:100BE0006D1944EB0404521BA3414FF0000348BFAE
:100BF0000A3200D530BD401C41F1000130BD00007B
:100C000001694A1C02610878704700B58FB0CDE9D0
:100C100001310021059105497944CDE903101146C0
:100C20006846FFF7D7FB0FB000BD0000E5FFFFFFF0
:100C30002DE9F0411F46044603260168072A01F406
:100C4000006004DB08B116A505E016A503E008B1B5
:100C500015A500E015A521F010002060A069C01EB8
:100C6000A0610FB1401EA0612046FFF723FB4FB1EA
:100C7000D4E9012138469047206A401C2062C01CFC
:100C8000206206E0206AFAE7D4E9012115F8010B99
:100C90009047761EF8D22046FFF722FBBDE8F08190
:100CA0004E414E006E616E00494E4600696E660010
:100CB0002DE9F047814616468AB0354878440DC87C
:100CC0008DE80D0032487844801C03AC0DC884E8E0
:100CD0000D0041F69B300844372190FBF1F290FB68
:100CE000F1F5A5F1800501FB12041B3C02D564421D
:100CF000012000E00020DFF898A080460027FA4499
:100D0000AAF1BE0A0EE0E0070AD03246684607EBB9
:100D1000470101230AEB810105F08FFA8DE80700F6
:100D200064107F1C002CEED1194F7F44AE3F19E0B8
:100D3000E80715D007EB04100DF1180A90E80E0033
:100D40008AE80E00C068F04201D198190890324636
:100D5000012306A903A805F070FA03AB83E8070096
:100D60006D10641C002DE3D14FF00103324669463B
:100D7000B8F1000F03A802D005F04AFA01E005F02F
:100D80005CFAC9E90001C9F808200AB0BDE8F0879B
:100D900064740000007B00F08000704710B542488A
:100DA000542100F0A9FA4148542100F0A5FA404826
:100DB000542100F0A1FA3F493B483C4A3F4B0860B0
:100DC0003D490A603A491960531C0365481C106587
:100DD000012008653B48344A39A1784400F0DEF927
:100DE00020B9384878440A3800F07FFA37482F4A4B
:100DF00035A1784400F0D2F920B9344878440A3853
:100E000000F073FA32482A4A2FA1784400F0C6F95C
:100E100020B92F4878440A3800F067FA4023224866
:100E2000DC000021224600F096F920B125487844E4
:100E3000543800F05AFA1D4822464023002100F0A1
:100E40008AF920B121487844543800F04EFA184805
:100E500022461023002100F07EF9002806D01C480D
:100E60007844BDE81040563800F03FBA10BD104835
:100E700070B5006D20F001040B4800F007FA0B4834
:100E800000F004FA0A4800F001FA09E0206D20F0B1
:100E90000105204600F0FAF9204600F044F82C46FF
:100EA000002CF3D170BD0000480000209C00002001
:100EB000F0000020000000200400002008000020B6
:100EC000720000005E730000770000004A730000AB
:100ED0003673000000487047440100207546FFF754
:100EE000F9FFAE4605006946534620F007008546E7
:100EF00018B020B5FFF786F9BDE820404FF0000696
:100F00004FF000074FF000084FF0000BAC46ACE884
:100F1000C009ACE8C009ACE8C009ACE8C00921F0E0
:100F200007018D46704770B50446051F00F080FA32
:100F30000068002C14BF446870BD002C18BFAC4280
:100F40003CBF20466468F8D301680A18AA4218BF5B
:100F5000456003D12A68054611440160286841199B
:100F6000A1421CBF6C6070BD616869602168084463
:100F7000286070BD2DE9F05F054617460C46C8682D
:100F800020F4201040F48000C860800602D5084696
:100F900000F0A7FBE06841F282014FF0FF3A014008
:100FA000022903D0204600F039FBB9E000F42041CB
:100FB000B1F5004F0FD1C00306D56168E06A8842E1
:100FC00000D80846606006E02069E0626060606901
:100FD00000F027FAA061A0680022EEB200280DDA26
:100FE000E1688B050AD4C043A06041F490302260D0
:100FF000E0606068411C61600670AAE0E0689146AC
:10100000226040F40050E060206978BB606900F025
:10101000FAF904F124054FF00108A8B1A08910F4F1
:10102000407F08D0E06900F04EFA206118B1E06816
:1010300040F4006017E0C4F81C802561E06820F4EB
:10104000407040F480600EE0E06900F03CFA002857
:101050002061F0D0E06840F4006010F4407FE06070
:1010600002D140F48070E06020696060E06825692A
:101070006FF0010BC1051ED56168E06A884200D897
:101080000846411B04D02246284600F0D1FAE8BBAE
:101090001FB1E562C4E9015959E0681CE062606073
:1010A000E069401EA060E06840F48030E0603046B7
:1010B0002E70BDE8F09F17B100F480320AE060683E
:1010C000411C61600670E0680A2E40F48030E060E8
:1010D00006D00022E16A6068814203D90B4602E033
:1010E0000122F7E70346B4F80CC05B1B5FEA4C5CD7
:1010F00004D4D4F81CC09C4500DD02B3814200D862
:101100000146002BA1EB0008E56200E008E0C4E91D
:10111000015907DD22461946284600F089FA08B130
:101120005046C6E7B8F1000F09D0A169E5626560D5
:10113000A1EB0800A061E06840F01000E06047B15A
:101140006168A069E562491B08446560A061584672
:10115000AFE73046ADE770B5C468A50713D06502A8
:1011600011D4B2F5807F09D0B2F5007F06D0B2F578
:10117000806F08D1012300F1240106E05D1E6FF0AD
:101180007F46B54201D3012070BD0161C36141605A
:1011900024F470611143C160002070BD2DE9F0415D
:1011A0000C461646070047D0104600F06FF820782E
:1011B000611C61280AD0722802D077283CD102E055
:1011C0000125002405E00225042402E0082448F259
:1011D000020511F8010B2B2806D0622809D011F85E
:1011E000010C74280AD00BE045F0030544F002041A
:1011F000EFE745F0040544F00104EAE744F0100489
:101200003846214600F0E0F8411C15D0002131613C
:1012100071604FF40071F560F1617061200704D5D1
:1012200030460222002100F07DF9306D40F00100CF
:1012300030653046BDE8F0810020FBE72DE9F04144
:101240000D460646104C206DC10704D0410804D05D
:1012500020F00104F7E722460EE0542000F033F9B5
:1012600007000ED0206D47F001010843542120658E
:10127000384600F041F83A4629463046BDE8F0418C
:101280008CE70020D6E70000480000202DE9F04759
:1012900004464FF0FF380026C568D4E90497A80734
:1012A00018D0204600F0FAF9384600F097F80028E8
:1012B00000DA4646280502D54846FFF734FE4C21A1
:1012C000204600F019F8206D20F00100206530461E
:1012D000BDE8F0874046FBE710B50446AFF3008059
:1012E0002046BDE81040FEF779BF10B500F020FAA7
:1012F000BDE8104000F016BA4FF0000200B51346EA
:1013000094469646203922BFA0E80C50A0E80C5025
:10131000B1F12001BFF4F7AF090728BFA0E80C50D6
:1013200048BF0CC05DF804EB890028BF40F8042BCF
:1013300008BF704748BF20F8022B11F0804F18BF3C
:1013400000F8012B704700004FF0013C50F8042BCF
:1013500051F8043B9A4221D1A2EB0C03934313EAC8
:10136000CC1317D150F8042B51F8043B9A4215D1F5
:10137000A2EB0C03934313EACC130BD150F8042BCC
:1013800051F8043B9A4209D1A2EB0C03934313EAB0
:10139000CC13DBD04FF00000704700BFD01A01BA69
:1013A000B1FA81F101F0180122FA01F0CB40DBB271
:1013B000C0B2C01AC1F120012CFA01F3D11A914335
:1013C00011EAC311E6D170470EB5CDE9000100F076
:1013D00031FA029069460120ABBE0EBD08B56946E0
:1013E00000900220ABBE08BD1FB58DE8070069461E
:1013F0000520ABBE04B010BD1FB58DE80F006946D7
:101400000620ABBEF6E708B5694600900920ABBEE2
:1014100008BD1CB5CDE9000169460A20ABBE1CBD64
:10142000704708B5694600900C20ABBE08BD0000AF
:10143000004870474C010020704770477047704764
:1014400038B504460A4600206946AFF300800028FC
:1014500008BF38BD02460099204600F090F90120EF
:1014600038BD012000F0DFB9F8B5AFF300800546C4
:1014700000200C460C2000BF0646A819A0420DD93A
:10148000324669460020AFF30080070008BF00F035
:10149000CAF90098A04218BF0546C419FFF7C8FF53
:1014A00005600746F01D20F007004619284600F0A9
:1014B00060F9B44208BFF8BDA21B31463868BDE8E8
:1014C000F84000F05CB970B50646FFF7B1FF05685B
:1014D00006F10B0020F00704B4429CBF002070BD51
:1014E0002B466A68BAB11068A04210D304F1080113
:1014F00088423CBF5068586007D35168101941605A
:101500001168091B016058601460101D70BD1346FE
:101510005268002AE7D121462846FFF791FF0028AC
:10152000DED170BD2DE9F041044616460D464769EF
:10153000007B80072ED03846FFF765FF50BB3EB3D7
:10154000012E02D0022E25D104E0204600F031F910
:1015500005441DE03846FFF764FFE168002841F0CC
:101560001001E16005DA204600F058F80120BDE8DE
:10157000F081C9030BD56268E16A914200D8114637
:10158000A26911442269891A814200DD0846054496
:10159000002D01DA0220EAE7E16A6068E268814230
:1015A00006D29103E06203D522F4003141F010022B
:1015B000A6690027AE4213DCE16A814201D90B46DD
:1015C00000E0034603EB060C2369ACEB030CAC45CF
:1015D00006DD814201D98C4600E084469C4505D158
:1015E000A760276042F02000A5620DE0AD1BE66910
:1015F000AE1B8142A66000D90846C01A281A206096
:101600005819606022F0200003490840E060002083
:1016100084F84870ABE70000BFCFD7FFC16821F462
:10162000001141F08001C1600021816001607047BC
:101630002DE9F74F15460C464FF0FF3B3848D76869
:10164000D2F814A0074209D05046A969FFF7E1FE7D
:10165000002819DB3248C0430740EF604FF00049D3
:101660006FF000484C4501D3464600E026460099FD
:101670003B4650463246FFF7B7FEA96920F00042CC
:10168000B21A1144A96128B12846FFF7C7FF58468E
:10169000BDE8FE8FA41BE5D10020F9E770B5044634
:1016A0000569C06A6168884200D80846E16821F48B
:1016B0002011E160C90312D5A84208D02246411B7F
:1016C0002846FFF7B5FF10B14FF0FF3070BD002086
:1016D000E562C4E90150E06820F48030E060002059
:1016E00070BD10B50446C06820F02000E060A16A1B
:1016F000A06988420DD02046FFF7D0FFE06820F4B3
:10170000405040F01000E060A06AA0612069E062F3
:10171000606044F24001E0688843E06010BD000072
:1017200010000200002801D000F01CB87047000033
:1017300010B5014602A000F05DF8012010BD0000C8
:1017400053494752545245443A2052656469726580
:1017500063743A2063616E2774206F70656E3A205F
:101760000000000001491820ABBEFEE72600020081
:10177000704700210160416070470C2070470346AC
:1017800040688C46002818BF88423CBF034640682A
:10179000F8D318681844884207D00CF1030020F0F1
:1017A0000700001D411A521A0146081D0A60FFF782
:1017B000BABB10B50146C268900703D0900607D5A2
:1017C000886A0AE0FFF7D2F901210160881E10BD86
:1017D0008B69486818440B69C01A91F848301BB1EE
:1017E00091F84910401A10BD1103FCD50028FADD0C
:1017F000401E10BD70B505460C460A2000E06D1C69
:1018000000F037F835B128780028F8D102E0641CE0
:1018100000F02FF814B120780028F8D1BDE870400E
:101820000A2000F026B810B500F02AF8BDE81040F4
:10183000FFF778BF10B5431C02E010F8011B71B12F
:101840008107FAD14FF0013202C88C1A8C4314EA96
:10185000C211F9D0C01A0A0603D0C01E10BDC01AAA
:1018600010BD0A0401D0801E10BD0902FCD0401E2C
:1018700010BD08B569468DF800000320ABBE08BD59
:1018800010B5012805D0002103A0FFF7B3FF012008
:1018900010BD09A1F8E7000053494752544D454D8A
:1018A0003A204F7574206F662068656170206D6501
:1018B0006D6F7279000000003A2048656170206DFC
:1018C000656D6F727920636F7272757074656400F4
:1018D000FEE7000070470000EFF3108072B600BF13
:1018E000FEE70000B0B5044600F01EF9054640F2E0
:1018F0000C00C2F200000078611C18BF044400BF55
:1019000000F012F9401BA042FAD3B0BD2DE9F04F10
:1019100082B00E68002E00F0FD8041F20042C4F259
:101920000102042340F2004E904208BF03234FF609
:10193000FF7CC4F2010E009300240123C1F2100CBD
:101940004FF0000A4FF0000944E000BF012704F007
:101950000C030F229A402BEA020207FA03F34FEA24
:101960009A051A4346F825204E6840F20C45F202CB
:10197000DEF8082054BF22EA080242EA0802C4F254
:101980000105CEF808202A68B30254BF22EA0802F3
:1019900042EA08022A60B303DEF8042054BF22EAB8
:1019A000080242EA0802F303CEF80420DEF8002021
:1019B0004FF0010354BF22EA080242EA0802CEF8BF
:1019C00000200E680AF1010A36FA0AF204F1040452
:1019D00000F0A08003FA0AFB16EA0B08F1D04E686B
:1019E000664511DC122E55D8DFE806F0340A44486B
:1019F000545454545454545454545454544C500007
:101A0000D1F80C9046E000BF4FF6FF72C1F2210200
:101A100096420FDC0022C1F2110296421AD0002237
:101A2000C1F21202964215D00022C1F22102964262
:101A300010D02FE00022C1F2220296420AD00022EA
:101A4000C1F23102964205D00022C1F23202964222
:101A500020D100BF8A684AB1012A14BFC0F814B06F
:101A6000C0F810B04FF0080914E000BF4FF00409AF
:101A700010E000BFCA6802F108090BE04FF000094E
:101A800008E000BFCA6802F1040903E0CA6802F175
:101A90000C0900BF22460646B8F5807F24BF203AD5
:101AA000043637680F25954027EA050509FA02F242
:101AB0002A433260CA79D2067FF583AF41F2180318
:101AC000C4F202031A68AEF57E7642F001021A6093
:101AD0001A6802F001020192019A2AF0030256F8F4
:101AE00002B040F60002C4F20102904210D040F66B
:101AF0000042C4F2010290423FF428AF41F20002DA
:101B0000C4F20102009F904208BF02271FE700BFF6
:101B100000271CE702B0BDE8F08F0000002A08BFD4
:101B2000090401617047000040F26820C2F2000021
:101B300000687047002804BF01207047F0B581B0ED
:101B4000044690F83D0028B9002084F83C00204667
:101B500000F0FEFA242084F83D002068016821F09E
:101B600001010160016841F400410160016821F454
:101B70000041016000F0A4FC636848F2A16CC0F26F
:101B8000010C40F60011C0F23D0163453CBF48F234
:101B90008041C0F21E01884202D2012001B0F0BD96
:101BA0004DF68361C4F21B31A0FB01122168970C32
:101BB000D1F804E04FF496762EF03F0545EA9245C1
:101BC0004D60774348F638160D6AC0F24106A7FB10
:101BD000067625F03F07634538BF960C721C3A43E2
:101BE0000A62CA6948F2A0664CF6FF77C0F20106A5
:101BF000B34222EA07020BD801385B00B0FBF3F0D6
:101C000001306FF31F30042898BF04201BE000BF91
:101C1000A768013857B119277B43B0FBF3F00130B7
:101C20006FF31F3070B100F5804007E003EB430312
:101C3000B0FBF3F001306FF31F3018B100F5004036
:101C400001E000BF01201043C8610868D4E9072300
:101C500020F0C000104318430860886848F2FF3243
:101C600004F10C0790438CCF18431043A669886099
:101C7000C86820F0FF0038433043C860086840F06F
:101C80000100086000202021206484F83D102063BA
:101C900084F83E0001B0F0BD2DE9F04F85B0044658
:101CA0000020994616460F460490FFF73DFF94F832
:101CB0003D10202927D10546206800BF816989078A
:101CC0001CD5FFF731FF411B20681A29F6D3816923
:101CD0008907F3D500202021206384F83D1084F883
:101CE0003E00206C04F13C0A40F0200020640220F9
:101CF00000218AF8001005B0BDE8F08FA2461AF85E
:101D00003C1F012904D1022005B0BDE8F08F00BFBF
:101D100001228AF800200368DDE90F180E9ADB071C
:101D200003D1036843F001030360036823F40063F5
:101D30000360222084F83D00402084F83E0000200B
:101D4000206462626185608D394620850020CFF66F
:101D5000FF70E062204632464B46CDE9008500F038
:101D60009FFE18B1012005B0BDE8F08F208D02283C
:101D700010D0012824D0002838D1002003902068FA
:101D800041690391816903910399016841F40071EC
:101D9000016037E02068016841F400610160EFF301
:101DA000108072B600200390206841690391816918
:101DB00003910399016821F48061016062B621E01A
:101DC0002068016821F480610160EFF3108072B631
:101DD0000020039020684169039181690391039970
:101DE000016841F40071016062B60BE0206801688F
:101DF00041F4806101600021039141690391806990
:101E000003900398208D002800F0D480042740F22E
:101E100014094BF2895BC0F20107C2F20009C1F25A
:101E2000F84B232617E000BF204641462A4601F022
:101E3000D5F8002896D12068616A00690870606A48
:101E4000218D01306062481E2085618D01396185D8
:101E5000010400F0AF8080B2032867D8022800F0A8
:101E600089800128E0D0204639460022434600956B
:101E700000F062FF00287FF475AF2068016821F44C
:101E800080610160EFF3108072B62068616A0069BA
:101E90000870606A218D0130013960622185618D91
:101EA00001396185D9F80010C908A1FB0B12110A8C
:101EB000714304910499013904910499002900F0B7
:101EC000858021684A6952071ED40499013904911A
:101ED0000499002900F07A8021684A69520713D4D6
:101EE000049901390491049900296FD021684A6945
:101EF000520709D40499013904910499002965D045
:101F000021684A695207D5D50A6842F400720A600E
:101F100009690170606A218D01306062481E208568
:101F2000608D0138608562B685E700BF2046414676
:101F30002A4601F053F800287FF414AF2068616A44
:101F400000690870606A2268411C208D6162013856
:101F50002085638D013B638553695B077FF578AF0F
:101F600080B2032803D1106820F4806010601069EB
:101F700064E700BF2046394600224346009500F042
:101F8000DBFE00287FF4EEAEEFF3108072B620681F
:101F9000616A026842F40072026000690870606A57
:101FA000218D01306062481E2085608D013860857A
:101FB00062B640E7202084F83D00002084F83E000F
:101FC00000218AF8001005B0BDE8F08F0020202124
:101FD000206384F83D1084F83E00206C40F020001F
:101FE000206462B6012000218AF8001005B0BDE827
:101FF000F08F00002DE9F04383B0994616460F4656
:102000000446FFF791FD94F83D10202924D10546A0
:10201000206800BF816989071AD5FFF785FD411B3C
:1020200020681A29F6D381698907F3D50020202179
:10203000206384F83D1084F83E00216C41F02001BB
:10204000216484F83C00022003B0BDE8F08300BFA7
:1020500094F83C10012903D1022003B0BDE8F083BD
:10206000012284F83C200368DDE90B180A9ADB079B
:1020700003D1036843F001030360036823F40063A2
:102080000360212084F83D00402084F83E000020B9
:10209000206462626185608D394620850020CFF61C
:1020A000FF70E062204632464B46CDE9008500F0E5
:1020B00081FD18B1012003B0BDE8F083208D98B9EF
:1020C000204641462A4600F0D9FD88B3206C0428FA
:1020D000F0D12068016841F400710160012003B073
:1020E000BDE8F0830004EBD0204641462A4600F0CC
:1020F000BDFF0028EAD1616A2268084610F8013B5A
:102100001361238D6062581E2085678D013F6785AE
:1021100057697F07E6D50704E4D048781061881C2A
:102120006062981E2085618D01396185DAE700BF04
:102130002068016841F400710160202084F83D00AE
:10214000002084F83E0084F83C0003B0BDE8F08332
:1021500010B586B045F200410068C4F200010022CB
:102160008842049202D006B010BD00BF41F21804AC
:10217000C4F20204206840F008002060206800F0EB
:10218000080001900198C0200290122003900320C3
:10219000059001F5384002A9FFF7B8FB606840F4EC
:1021A00000106060606800F400100190019806B0B3
:1021B00010BD000040F20C0040F26821C2F20000A5
:1021C000C2F2000100780A681044086070470000FD
:1021D00080B542F20000C4F20200016841F0100133
:1021E0000160032000F07AF80F2000F005F800F0FD
:1021F00027F8002080BD000070B540F20C06C2F246
:10220000000640F214013278C2F200014FF47A73F2
:102210000968B3FBF2F20446B1FBF2F1084600F0A4
:1022200077FB0F2C4FF0010508D838B94FF0FF307D
:1022300021460022002500F025F87460284670BD74
:1022400082B041F21800C4F202000168022241F09B
:1022500001010160016801F00101019101994168EA
:1022600041F080514160406800F08050009000983B
:102270000420C4F20100016862F31A61016002B037
:102280007047000010B54EF60C5CCEF2000CDCF886
:102290000030C3F3022E8EF00704042C28BF042460
:1022A000BEF103034FF0FF3E0EFA04F438BF0023E3
:1022B000A14399400EFA03F39A43114300F00F0231
:1022C00000F160430901043A03F5644362440028C5
:1022D00048BF02F10C03197010BD00004EF60C51FE
:1022E000CEF200010A684FF6FF031A4060F30A229B
:1022F00042F0806040F0FD7008607047002804BF25
:10230000012070472DE9F04381B042F20008C4F289
:1023100002080446D8F800000D4600F00700884285
:102320000CD2D8F8000020F007002843C8F80000BD
:10233000D8F8000000F00700A8426CD1206841F2F4
:1023400004098107C4F2020917D5410705D5D9F858
:10235000001041F4E061C9F80010010705D5D9F873
:10236000001041F46051C9F80010D9F80010A268BB
:1023700021F0F0011143C9F80010C00742D1D8F88C
:10238000000000F00700A8420CD9D8F8000020F0A7
:1023900007002843C8F80000D8F8000000F0070044
:1023A000A84238D12068410707D5D9F80010E26863
:1023B00021F4E0611143C9F80010000708D5D9F8ED
:1023C0000000216920F4605040EAC100C9F8000013
:1023D000D9F8002002F00C00082841F20020C0F2D9
:1023E0007A0051D148F26813C2F38341C0F600036A
:1023F000595CD2033CD440F60010C0F23D00484383
:1024000042E000BF606802280AD001282AD159F8AA
:10241000041C890308D4012001B0BDE8F08300BF8B
:1024200059F8041C8901F6D5D9F8001021F00301F0
:102430000843C9F80000FFF777FB064641F28837EA
:10244000D9F80000616800F00C00B0EB810F96D065
:10245000FFF76AFB801BB842F2D9032001B0BDE848
:10246000F08300BF59F8041C8907D4D5DCE700BF0E
:10247000D9F8002048F26613C2F34042C0F60003C8
:102480009A5C4843B0FBF2F0D9F8001048F24E12C3
:10249000C1F30311C0F60002515C40F2140220FAAD
:1024A00001F140F21000C2F200000068C2F2000226
:1024B0001160FFF7A1FE002001B0BDE8F08300002D
:1024C00040F2140041F20401C2F20000C4F2020121
:1024D0000068096848F25E12C1F30221C0F60002EA
:1024E000515CC8407047000040F2140041F2040102
:1024F000C2F20000C4F202010068096848F25E12EC
:10250000C1F3C221C0F60002515CC8407047000010
:10251000002804BF012070472DE9F04182B0044635
:10252000007841F20006C007C4F202060CD07068C1
:1025300000F00C00042840F081803068800303D54F
:102540006068002800F04E81207880071BD57068F5
:1025500010F00C0F09D0706800F00C00082840F053
:102560008B807068C00300F187803068800703D5D6
:102570002069012840F036813068616920F0F80058
:1025800040EAC10030602078000713D4207840076B
:102590002CD4E569002D00F02081706800F00C005B
:1025A000082840F0AF80012D40F00C81012002B0DE
:1025B000BDE8F081A069002800F08C800020C4F202
:1025C00042200121C0F88014FFF7AEFA054600BF93
:1025D000706A800700F1BA80FFF7A6FA401B022854
:1025E000F6D9032002B0BDE8F08100BFF0695FEAD0
:1025F000C00808D4F06940F08050F061F06900F044
:1026000080500090009847F20007C4F20007386835
:10261000C0054DD4386840F480703860FFF784FA04
:10262000054600BF3868C00542D4FFF77DFA401B5D
:102630006428F7D9032002B0BDE8F081706800F08B
:102640000C00082803D17068C0033FF576AF6068BE
:10265000002800F00981B0F5A02F00F01D81B0F531
:10266000803F00F01D81306820F480303060306899
:1026700020F4802017E100BF2069002840F200000C
:10268000C4F2422000F08C8001210160FFF74CFA77
:10269000054600BF306880073FF56EAFFFF744FA8C
:1026A000401B0228F6D9032002B0BDE8F08100BF2C
:1026B000E068002800F09A80052800F0B180012829
:1026C00000F0B280306A20F001003062306A20F001
:1026D0000400ACE00020C4F242200021C0F88014C5
:1026E000FFF722FA054600BF706A80077FF54EAFFC
:1026F000FFF71AFA401B0228F6D9032002B0BDE802
:10270000F08100BF0027C4F2422700203866FFF79F
:102710000BFA022D05460DD13068800140F1D680BC
:10272000FFF702FA401B02284FF00300F4D902B071
:10273000BDE8F081306880014FD5FFF7F5F9401B07
:1027400002284FF00300F5D9F1E700BF40F2140072
:10275000C2F20000006844F6D351C1F26201A0FB4E
:102760000101480A019000BF00BF0198411E0028E6
:1027700001913FF40BAF00BF0198411E0028019169
:102780003FF404AF00BF0198411E002801913FF4BF
:10279000FDAE00BF0198411E00280191E4D1F5E68D
:1027A00000210160FFF7C0F9054600BF30688007CF
:1027B0007FF5E9AEFFF7B8F9401B02284FF00300A0
:1027C000F4D9B4E77068216A00F480328A4209D1F2
:1027D000616A00F47010884204D1002002B0BDE8A4
:1027E000F08100BF012002B0BDE8F081306A20F026
:1027F00001003062306A20F004003062FFF794F983
:10280000054641F2883700BF306A800722D5FFF7BE
:102810008BF9401BB8424FF00300F5D987E700BFA2
:10282000306A40F004003062306A40F001003062EB
:10283000FFF77AF9054641F2883700BF306A800712
:1028400008D4FFF771F9401BB842F7D9032002B052
:10285000BDE8F081B8F1000F3FF59BAEF06920F0C4
:102860008050F06195E600BF306820F48030306021
:10287000306820F480203060FFF756F9054600BF2D
:10288000306880037FF560AEFFF74EF9401B642887
:102890004FF00300F4D94AE7306840F480203060FC
:1028A000306840F480303060FFF73EF9054600BFE5
:1028B000306880033FF548AEFFF736F9401B6428C7
:1028C000F6D9032002B0BDE8F08100BF206AB0F560
:1028D000803F05D17168A26821F400311143716015
:1028E0007168626A21F47411114308437060012019
:1028F0003866FFF719F90446306880013FF56DAF7F
:10290000FFF712F9001B02284FF00300F4D90EE77D
:10291000411E0020B0EB116F1CBF012070474EF22A
:102920001002CEF2000251604EF62351CEF20001A9
:10293000F0230B700721906011607047002804BFDE
:102940000120704710B5044690F8410028B90020D6
:1029500084F84000204600F063F8242084F8410009
:102960002068D4E90212C36823F40053C3600369EA
:1029700023F440531A430261D4E904231143C2688B
:10298000194341F20C639A431143C1604169A26942
:1029900021F44071114343F60002C4F20102904257
:1029A000416103D0FFF78CFD02E000BFFFF79CFD03
:1029B000D4E90023192148439900B0FBF1F048F213
:1029C0001F5CC5F2EB1CA0FB0C314FF69C73490950
:1029D000C0F6FF7301FB0300322303EB0010A0FBE2
:1029E0000C03F02000EA531000EB0110C3F3431175
:1029F000084490601069202120F4904010615069D3
:102A000020F02A005061D06840F40050D0600020CF
:102A1000606484F8411084F84210606310BD0000C7
:102A200070B586B040F60004C4F20104006804F5F5
:102A3000405100268842049602D006B070BD00BF07
:102A400041F21800C4F20200016802AD41F4804175
:102A50000160016801F4804101910199016841F030
:102A6000040101600068294600F00400019001980B
:102A70004FF400700290022003900320059020463E
:102A8000FEF744FF4FF48060CDE902062046294658
:102A90000496FEF73BFF06B070BD0000FEE70000A5
:102AA0002DE9F04782B0044600689A460B9D0A9EC5
:102AB0000368914643F48062026002680F4642F464
:102AC0008071016020464FF00111002233460095CD
:102AD00000F032F950B120680068C00544BF4FF4DF
:102AE00000702064032002B0BDE8F08740F20208C5
:102AF0002068C0F2010807F0FE0707612046414642
:102B000032462B4600F0FEF920B1012002B0BDE8AC
:102B1000F08700BF0020019020682A46416901919A
:102B20008069314601900198204600F09FFAB0B9C3
:102B30002068BAF1010F09D04FEA1921016120463E
:102B400031462A4600F092FA48B920685FFA89F1C6
:102B50000161204631462A4600F088FA60B1206CB7
:102B60000428D2D12068016841F40071016001207D
:102B700002B0BDE8F08700BF20680022016833463C
:102B800041F48071016020464FF00111009500F082
:102B9000D3F800289FD147F0010C27682046414612
:102BA00032462B46C7F810C002B0BDE8F04700F02F
:102BB000A9B900002DE9F04383B0044600680D4632
:102BC00001680A9F0B9E41F480719946904601600E
:102BD00020464FF0011100223B46009600F0ACF871
:102BE00050B120680068C00544BF4FF400702064F5
:102BF000032003B0BDE8F083206805F0FE01016109
:102C00000221C0F2010120463A46334600F07AF92B
:102C100020B1012003B0BDE8F08300BF0020029086
:102C200020683246416902918069394602900298D3
:102C3000204600F01BFA58B1206C0428E9D1206826
:102C4000016841F400710160012003B0BDE8F08328
:102C50002068B9F1010F0AD04FEA1821016120461E
:102C60003946324600F002FA0028E5D120685FFAC2
:102C700088F10161002003B0BDE8F08370B50368FE
:102C8000044653F8140F400711D40E46481C29D0AF
:102C900086BB00BF1868400527D4FEF745FF2368B0
:102CA00053F8140F400737D518684007F2D50020B5
:102CB00070BD00BF18684007F9D41868400514D4E7
:102CC00018684007F3D4186840050ED41868400708
:102CD000EDD41868400508D4186840074FF000008C
:102CE00048BF70BD18684005E4D56FF48060186077
:102CF000042012E0154603E053F8140F4007D6D421
:102D000018684005F1D4FEF70FFF401B2368B0425E
:102D1000F2D958694007EFD42020002120222163F6
:102D200084F83D2084F83E10226C1043206401207A
:102D300084F83C1070BD00002DE9F04105460068A4
:102D40001E46144601F47F0201338FB242D0DDF8F3
:102D50001880B2F5803F40F0878040693840C01B42
:102D6000B0FA80F04009A04240F0C8804EB924E09B
:102D700040693840C01BB0FA80F04009A04240F0E2
:102D8000BD80FEF7D1FEA0EB08012868B142EFD963
:102D900041693940C91BB1FA81F14909A142E7D122
:102DA0009BE000BF40693840C01BB0FA80F040098A
:102DB000A0424FF0000040F0A280FEF7B5FE286868
:102DC00041693940C91BB1FA81F14909A142E9D1F0
:102DD00083E000BFB2F5803F24D100BF4169394094
:102DE000C91BB1FA81F14909A14240F087804169CC
:102DF0003940C91BB1FA81F14909A14240F07E80F6
:102E000041693940C91BB1FA81F14909A14275D123
:102E100041693940C91BB1FA81F14909A142DDD0AC
:102E20006CE000BF81693940C91BB1FA81F14909E1
:102E3000A14263D181693940C91BB1FA81F14909C5
:102E4000A1425BD181693940C91BB1FA81F14909BD
:102E5000A14253D181693940C91BB1FA81F14909B5
:102E6000A142DFD04AE000BF80693840C01BB0FA01
:102E700080F04009A04241D146B923E08069384042
:102E8000C01BB0FA80F04009A04237D1FEF74CFEDB
:102E9000A0EB08012868B142F0D981693940C91B0B
:102EA000B1FA81F14909A142E8D116E080693840C0
:102EB000C01BB0FA80F04009A0424FF0000018BFDC
:102EC000BDE8F081FEF730FE286881693940C91BF2
:102ED000B1FA81F14909A142E8D1002020212863FB
:102EE00085F83D1085F83E00296C41F020012964E9
:102EF00085F83C000120BDE8F08100BF0020BDE85E
:102F0000F0810000F0B581B0044600681D464369B9
:102F10008FB203EA0701B94202D1002001B0F0BD2F
:102F20004169164601323FD049053FD4CEB100BFBA
:102F3000FEF7FAFD411B2068B14203D941693940CF
:102F4000B94215D141693940B942E6D041694905D4
:102F5000EED52BE041693940B942DED041694905DF
:102F600024D4FEF7E1FD206841693940B942F1D02F
:102F7000202023E041693940B942CED0416949055A
:102F800014D441693940B942C7D0416949050DD4CB
:102F900041693940B942C0D04169490506D4416907
:102FA0003940B942B9D041694905E3D5016841F4D6
:102FB000007101606FF480614161042000212022D2
:102FC000216384F83D2084F83E10226C1043206475
:102FD00084F83C10012001B0F0BD000070B504463B
:102FE0000068154650F8143F5A063DD40E4629B9DC
:102FF00026E000BF50F8141F490635D40168C90601
:1030000021D4FEF791FD411B2068B142F2D94169FC
:103010004906EFD400202021206384F83D1084F875
:103020003E00206C40F0200018E000BFFEF77CFD61
:10303000206850F8141F4906ECD50168490613D4DE
:103040000168C906F2D56FF010010160002020214F
:10305000206384F83D1084F83E00206C206400203A
:1030600084F83C00012070BD002070BD70B503687D
:10307000044653F8140F000611D40E46481C29D0FC
:1030800086BB00BF1868400527D4FEF74DFD2368B6
:1030900053F8140F000637D518680006F2D5002043
:1030A00070BD00BF18680006F9D41868400514D434
:1030B00018680006F3D4186840050ED41868000696
:1030C000EDD41868400508D4186800064FF00000D9
:1030D00048BF70BD18684005E4D56FF48060186083
:1030E000042012E0154603E053F8140F0006D6D46E
:1030F00018684005F1D4FEF717FD401B2368B04265
:10310000F2D958690006EFD4202000212022216343
:1031100084F83D2084F83E10226C10432064012086
:1031200084F83C1070BD00002DE9F04F8FB01446BC
:103130000D4681460DF119070DF11A060DF1360005
:103140000CA908AA07ABCDE9006700F021FB28B164
:103150004FF0FF300FB0BDE8F08F00BFBDF81A0090
:10316000C00540F1CB80089809AF0594D0CF04F09A
:10317000B7FC4FF0425104F047FD8046204604F072
:10318000AFFC4FF0425104F03FFD8346304604F05F
:10319000A7FC4FF0425104F037FD8246384604F058
:1031A0009FFC4FF0425104F02FFD074658464FF068
:1031B000404104F029FD044640464146CDF81080C8
:1031C00004F0E4FA51460395804604F01DFD0646DE
:1031D0002046394604F018FD314604F0D7FA04F0D1
:1031E000A9FA03F0E5F94AF26663C4F24C034FF022
:1031F000663203F0C1FF03F03BFDC9F80000504602
:10320000514604F0C3FA06464046594604F0FCFC19
:10321000054630463946B94604F0F6FC294604F026
:10322000B5FA04F087FA05460F465046314604F0D9
:10323000EBFC06462046594604F0E6FC314604F015
:10324000AFFD4FF07E5104F0A1FA04F073FA02468C
:103250000B462846394603F0F3FB4AF26668C4F28F
:103260004C084FF06632434603F086FF03F000FD42
:10327000039908605846514604F0C6FC049C054674
:10328000204649464F4604F0BFFC294604F07EFA2A
:10329000014604F07BFA04F04DFA0546894658468B
:1032A000594604F0B1FC06462046214604F0ACFC29
:1032B000314604F06BFA06465046514604F0A4FC31
:1032C0000146304604F06CFD04463846394604F0A9
:1032D0009BFC0146204604F063FD04F02BFA0246F5
:1032E0000B462846494603F0ABFB4FF06632434697
:1032F00003F042FF03F0BCFC0599086000200FB00A
:10330000BDE8F08F80B582B001A801F0B7F818B120
:103310004FF0FF3002B080BD782002F0DFFB18B123
:103320006FF0010002B080BD782000F0DFFF18B11F
:103330006FF0020002B080BD642002F053FB18B1B0
:103340006FF0030002B080BD00F016FA20B16FF0FC
:10335000040002B080BD00BF00F02CFF00F008FCAC
:1033600020B16FF0050002B080BD00BF40F27310C5
:1033700000F0B2F820B16FF0060002B080BD00BFCF
:10338000642000F04DFB18B16FF0070002B080BD63
:1033900002F07AFC20B16FF0080002B080BD00BFDF
:1033A000012002F02BFA002818BF6FF0090002B0CC
:1033B00080BD000070B584B041F21800C4F2020074
:1033C000016841F2000441F0100101600168C4F29B
:1033D000010401F01001009100990168002241F000
:1033E0002001016001684FF4005501F020010091B7
:1033F00000990168002641F004010160016801F0B4
:10340000040100910099016841F008010160006821
:103410004FF4005100F00800009000982046FEF79D
:103420007DFB0120CDE9010602200390694620467C
:103430000095FEF76BFA04B070BD000080B540F255
:10344000CC1045F20041C2F20000C4F2000148F283
:10345000A06200234FF4804CC0F2010280E80E000D
:10346000C0E9033CC0E90533C0E90733FEF762FB5E
:10347000002808BF80BDBDE88040FEF72DBA0000DF
:1034800080B540F2202043F60001C2F20000C4F2F1
:10349000010100234FF00C0C4FF4E13280E80E00E4
:1034A000C0E90333C0E905C3C361FFF747FA002849
:1034B00008BF80BDBDE88040FEF70EBAFEE7000001
:1034C000FEE700007047000070470000FEF772BE84
:1034D00070470000FEE70000F0B587B004464CF6E8
:1034E0000220C0F6E3100DF10605CDF806006820B5
:1034F00004212A4602F086FB14F040014FF0A3009D
:103500006FF03F018DF8060008BF6FF05C016FF0AF
:1035100037026FF03D0308BF6FF05C0208BF6FF029
:103520005C038DF8071014F4C0716FF03B018DF847
:1035300008208DF8093008BF6FF05C016FF033028E
:103540006FF0390308BF6FF05C0208BF6FF05C03D7
:103550008DF80A104AF2A3318DF80B20ADF80D104A
:103560008DF80F0040F6A7200A212A468DF80C306E
:1035700002F048FB2020A60708BF6FF027008DF857
:10358000060040F6B62001212A4602F03BFBA006C9
:103590000CD4C720069048F6B000CCF2C35005907A
:1035A0004AF6B820CAF6AA200BE000BF5D200690BC
:1035B00049F6B400C3F20D5005904AF6B820C8F69B
:1035C000B350049004AA4FF49760092102F01AFB4B
:1035D00014F4C07F25D06FF04D016FF0740214F425
:1035E000807008BF6FF04F0108BF6FF07F026FF06F
:1035F00049036FF0640508BF6FF04B03002808BF54
:103600006FF06F058DF806108DF807200DF106029A
:1036100040F6A22004218DF808308DF8095002F000
:10362000F1FAE00708D1D8208DF806000DF1060266
:103630004FF40B60012150E0F8208DF806000DF1E9
:1036400006024FF40B60012102F0DCFA0720FA2198
:1036500000F002FB3F208DF8100004AA4FF4A47084
:10366000012102F0CFFA00208DF8100004AA40F2E8
:103670004F10012102F0C6FA4FF4A050ADF810002F
:1036800004AA4FF4EF70022102F0BCFA4FF4C840D4
:10369000ADF8100004AA4FF4ED70022102F0B2FA66
:1036A00048F60060C9F2F900049004AA4FF4AE7025
:1036B000042102F0A7FA4FF40060ADF8100004AA4C
:1036C0004FF4AD70022102F09DFA4FF40070ADF896
:1036D000100004AA4FF4AC70022102F093FA6FF0CC
:1036E0002600002E58BF6FF027008DF806000DF160
:1036F000060240F23D70012102F084FA600752BFD9
:103700004FF08B304CF2C020CCF2C460049004AA7D
:1037100040F69820042102F075FA01F015FAE0064F
:1037200052BF4FF0A33042F62000C3F630000490A1
:1037300004AA40F69E20042102F064FA01F004FA83
:1037400040F2B41744F00800C2F200076506B880E2
:1037500001F0FAF9062000EAE57114F4C07F18BF01
:10376000063114F0140F18BF1031002E18BF0431A9
:103770000020397007B0F0BD48F28011C0F600019A
:1037800040F6F6304FF48062C82300F03BBF0000E3
:103790002DE9F04F89B01446DDE912A20F46002151
:1037A00040F2B419AAF80010C2F2000999F800100A
:1037B0000DF1040B8046084659461E4601F04AF9B1
:1037C00020B14FF0FF3009B0BDE8F08FB9F804C068
:1037D0001CF0140F50D09DF80520B6469DF804103B
:1037E000BDF8066012049DF8095042EA016132BA40
:1037F0009DF8083041EA1242BDF80A6022602A04AE
:1038000042EA036233BA42EA134363609DF80D3023
:103810009DF80C60BDF80E501B0443EA06632EBAF7
:1038200043EA16461214A6609DF81160091452432B
:103830009DF8105001FB012136041A1446EA056672
:1038400002FB02113214BDF8120002FB021100BA91
:1038500001F1714146EA1040B1F1007FE06073D898
:10386000BAF80000102140F480707646AAF80000F3
:103870005FEA4C6004D42AE000215FEA4C6026D560
:1038800041F001021BF801001BF8022041F0030384
:1038900042EA002041F002021BF802201BF803302C
:1038A000388043EA022041F0040241F005031BF88E
:1038B00002201BF80330788043EA0220B880BAF86F
:1038C000000041F0060140F00800AAF800001CF4D6
:1038D000C07F18D03BF801000BEB010200BA5388FF
:1038E000000CA8F8000018BA9288000CA8F8020092
:1038F00010BA000CA8F80400BAF80000063140F035
:103900007000AAF800005FEA8C7016D00BEB01057E
:103910006878EC78C10709D0D9F8082032B104F0F2
:103920000700411CC4F3C20090476878000704D523
:10393000D9F80C1009B1A0098847FEF7F5F83060F6
:10394000002009B0BDE8F08F01F0FEF80020AAF8D1
:1039500000004FF0FF3009B0BDE8F08F10B584B023
:1039600004460DF1020000F041FD40F2C411BDF823
:1039700002C000BFC2F20001098801F003024B0738
:1039800054F822204FF00C0348BF524203EA51037F
:103990008806E358C1F3811048BF5B4254F8200009
:1039A000C90548BF40424FEACC3181FB02C481FBCC
:1039B00003E281FB00014FEA9C73800F43EA840C11
:1039C0004FEA9E7340EA810EA00D8DF80400A00B13
:1039D0008DF80500A0098DF80600900D8DF80800FF
:1039E000900B8DF8090090098DF80A00880D8DF86C
:1039F0000C00880B8DF80D00880943EA82038DF8CE
:103A00000E0001AA4FF425700C218DF807C08DF827
:103A10000B308DF80FE002F0F5F804B010BD000097
:103A200010B586B004464AF6BB70CDF6DF7005903F
:103A30004FF2AA10CDF6DF7004904FF2FE20CCF2C8
:103A4000AB40C82C039017D8E0B2C821B1FBF0F00E
:103A5000002101388DF804108DF8050001AA40F20C
:103A60001620022102F0CEF830B903AA40F6C12098
:103A70000C2102F0C7F818B14FF0FF3006B010BDAE
:103A800040F2C810C2F200000480002006B010BD51
:103A9000F0B581B040F2C411C2F200010E880C23CF
:103AA00006F003014EF2093450F8211003EA5603E0
:103AB000C0F2CA24720748BF4942C758C6F38113EF
:103AC00081FB041250F82350F0054FEA91704FEA41
:103AD000925148BF6D428DF80010910B40EA820070
:103AE0008DF8011091098DF802108DF803006A46D7
:103AF0004FF47470042102F085F8E0B9B00648BFB5
:103B00007F42A7FB0401FA1702FB0411800F8A0D04
:103B100040EA81008DF800208A0B89098DF8012088
:103B20008DF802108DF803006A464FF47570042179
:103B300002F068F820B14FF0FF3001B0F0BD00BFD7
:103B400085FB0401800F40EA8100010E8DF8001012
:103B5000010C8DF80110010A8DF802108DF8030098
:103B60006A464FF47670042102F04CF801B0F0BDC3
:103B7000B0B582B0054648F24B11C0F60001C5F35E
:103B8000C10300F00300CC5C0A5C8DF8054048F2EC
:103B900048148DF80420C5F38112C0F60004895C36
:103BA000205C8DF806108DF80000E05CA15C8DF8BB
:103BB00001008DF8021001AA40F22640032102F014
:103BC00021F850BB6A4640F22A40032102F01AF85D
:103BD00018BB45F23660C0F27600019044F22660D0
:103BE000C0F26600690700901CD4A80622D4E8053C
:103BF00005D577208DF8060067208DF8020001AA10
:103C00004FF48860032101F0FDFF30B96A4640F2AD
:103C10003140032101F0F6FFB0B14FF0FF3002B0A8
:103C2000B0BD00BF37208DF8040027208DF80000BC
:103C3000A806DCD557208DF8050047208DF8010037
:103C4000E805D6D4DBE700BF40F2C410C2F20000A2
:103C50000580002002B0B0BDF0B583B00446B1F5D8
:103C6000C86F4FF0FF3057D814F0070254D0084601
:103C700003F04EFF0021C4F2483103F01FFE054659
:103C80000DF1070000F096FB9DF80700811EC007AC
:103C900040EA5102072A4FF0FF303DD80026C4F217
:103CA00040664FF08D41DFE802F01605370B3737DD
:103CB000371100BF0026C4F2C0564FF08C410AE015
:103CC0000026C4F240564FF08B4104E00026C4F2B7
:103CD000C0464FF08A41284603F096FF0746284623
:103CE000314603F091FF03F0DFFE0646384603F04D
:103CF000DBFE010A8DF808108DF80900300A02A9D0
:103D00008D1C8DF80A00E0078DF80B6006D1A00726
:103D100014D4600722D4002003B0F0BD02AA4FF4EF
:103D2000EA70022101F06EFF38BB4FF4927002215D
:103D30002A4601F067FF00BBE9E700BF02AA4FF483
:103D4000EC70022101F05EFFB8B94FF494700221CB
:103D50002A4601F057FF80B9DBE700BF02AA4FF403
:103D6000EE70022101F04EFF38B94FF49670022137
:103D70002A4601F047FF0028CDD04FF0FF3003B0B6
:103D8000F0BD00002DE9F04F89B040F2180BC2F2EF
:103D9000000B89468046DBE900010125ADF818508B
:103DA000437D022006AC0978CDE9004040F2CC10FA
:103DB00016460F27C2F200001A4601230297FEF7AB
:103DC00019F9002840F02B81C820FDF78BFD002059
:103DD000DBE900218DF818000978527C40F2CC1004
:103DE000C2F200000123CDE901570094FEF702F969
:103DF000002840F01481DBE900010F2509784279A1
:103E000040F2CC100127C2F200000123CDE90047A7
:103E10000295FEF7EFF8002840F00181DBE9000190
:103E200001230978427D40F2CC10C2F20000CDE9B6
:103E300001750094FEF7DEF8002840F0F080DBE921
:103E400000010F250978827E40F2CC100127C2F2D2
:103E500000000123CDE900470295FEF7CBF80028CA
:103E600040F0DD80DBE9000101230978027940F2AE
:103E7000CC10C2F20000CDE901750094FEF7BAF84B
:103E8000002840F0CC800C20DBE900218DF81800E0
:103E90000978127940F2CC100F250127C2F20000F8
:103EA0000123CDE900470295FEF7A4F8002840F071
:103EB000B6800F20FDF716FDDBF82800DBE90021B6
:103EC000407A92788DF81800097840F2CC10C2F24E
:103ED00000000123CDE901750094FEF78BF800285E
:103EE00040F09D80DBF82800DBE90021007A527861
:103EF0008DF81800097840F2CC100F250127C2F286
:103F000000000123CDE900470295FEF773F8002871
:103F100040F08580DBF82800DBE90021807A002E64
:103F200018BF40F0E0008DF818000978927940F24F
:103F3000CC10C2F200000123CDE901750094FEF718
:103F400059F800286BD12EB1DBF82800C07A60F058
:103F50001F0000E01820DBE900218DF818000F2079
:103F600001230978D279CDE9013040F2CC10C2F2B8
:103F700000000094FEF73EF8002850D116B1C8208A
:103F8000FDF7B0FC4020DBE900218DF8180009782E
:103F9000127940F2CC100F250126C2F20000012355
:103FA000CDE900460295FEF725F8C0BB7820DBE995
:103FB00000218DF818000978527940F2CC10C2F235
:103FC00000000123CDE901650094FEF713F830BB32
:103FD0003220FDF787FC0020DBE900218DF8180076
:103FE000012009785279CDE9004040F2CC100F252C
:103FF000C2F2000001230295FDF7FCFF78B9DBE96E
:1040000000010123027B02200978CDE9010540F27D
:10401000CC10C2F200000094FDF73EFE30B14FF02C
:10402000FF37384609B0BDE8F08F00BFBDF8180073
:104030004AF6AB2100BA000C4843C0F3C742002146
:10404000002AC8E90011C8F80810C9E90011049253
:10405000C9F8081048D0C00C0026C0B20590DBE9B2
:1040600000010123427B0C200978019040F2CC1022
:10407000C2F200000F2700940297FDF70DFE002802
:10408000CDD1BDF81800BDF81A10BDF81C2099E874
:10409000A80000BA09BA12BA03EB204005EB21418F
:1040A00007EB2242C9E90001C9F80820BDF8222027
:1040B000BDF82010D8F80850BDF81E0012BAD8E993
:1040C000003709BA05EB22450136059A00BA07EB1D
:1040D000214AF1B203EB20409142C8E9000AC8F836
:1040E0000850BCD304E000BFD8E9000AD8F8085053
:1040F000C117090441EA104100048322002300276C
:10410000FCF792F8049E00233246FCF78DF8C8F8BD
:1041100000004FEAEA70000440EA1A414FEA0A4000
:1041200083220023FCF780F832460023FCF77CF85A
:10413000C8F80400E817000440EA15412804832267
:104140000023FCF771F832460023FCF76DF8C8F83D
:104150000800D9E90005D9F80840C117490141EA2A
:10416000D061400132460023FCF75EF8C9F8000038
:10417000E817400140EAD561680132460023FCF7A8
:1041800053F8C9F80400E017400140EAD461600127
:1041900032460023FCF748F84FF480310028C4BFB2
:1041A0000021CFF6FF710844C9F80800384609B06D
:1041B000BDE8F08FAC20704794B0FEF709F80024FA
:1041C0000120CDE90F44CDE90D440A900E904FF443
:1041D000E0104FF48031022513900AA8CDE90B14AA
:1041E000CDE91151FEF794F920B1EFF3108072B6CA
:1041F000FEE700BF0F20CDE905054FF48060CDE953
:10420000080405A802210794FEF778F820B1EFF31F
:10421000108072B6FEE700BFFFF7CCF8FFF70EF98B
:10422000FFF72EF940F2A419C2F200091FA400BF43
:10423000FFF768F80146C9F800002046FCF72EF8A1
:104240004FF47A70FDF74EFBD9F800000028EFD14B
:1042500009F1040409F1080B09F10C0A049402E0C5
:104260006420FDF73FFB204659465246FEF75CFFAF
:104270000028F5D1D9F80C00D9E9017403F05AFAF5
:10428000054620460E4603F055FA04463846884651
:1042900003F050FA0094049CCDE901800AA02A465C
:1042A00033460391FBF7FAFFDAE700BF4D5055366E
:1042B00030353020696E69742C20726574203D2081
:1042C00025640D0A00000000796177203D202566F5
:1042D0002C20726F6C6C203D2025662C2070697438
:1042E0006368203D25660D0A00000000F0B585B02A
:1042F00040F21805C2F2000595F8241021B10024FF
:10430000204605B0F0BD00BFA97A81B300F0FE07DA
:1043100039402E7CCC1B287D18BF4FF0FF34002F76
:10432000297408BF002827D0687CC8B90120D5E9C6
:1043300000218DF812000DF112030978527CCDE9AD
:10434000003040F2CC104FF00F0CC2F200000123FD
:10435000CDF808C0FDF74EFE10B99DF81200687444
:10436000002FCDD000F0F0FB0028C9D02E744FF004
:10437000FF34204605B0F0BD0020D5E900218DF8BE
:10438000130001200DF113030978527CCDE90030B0
:1043900040F2CC100F27C2F2000001230297FDF774
:1043A00029FE0028ACD19DF813006874204605B0A2
:1043B000F0BD000040F21801C2F200014A7A032A5F
:1043C00084BF4FF0FF30704740F20243D200C1F289
:1043D0000803D3400370C97C29B140F60401C2F23E
:1043E0001001D140017000207047000040F2180118
:1043F000C2F200014A7A032A84BF4FF0FF307047AF
:1044000006A333F81230C97C0FF2180C3CF81220C6
:104410000029038018BF0280002070470040002060
:1044200000100008002000100008000440F21801ED
:10443000C2F200010A7A032A84BF4FF0FF307047AE
:104440000021C4F20331DFE802F00603091100BFC6
:104450000021C4F2832101600020704743F2333110
:10446000C4F2032101600020704700BF43F23331E2
:10447000C4F2831101600020704700002DE9F04173
:1044800086B040F21805C2F200058020D5E900216F
:104490008DF810000978527D40F2CC100F240127CE
:1044A00004AEC2F200000123CDE900670294FDF7DB
:1044B000A1FD28B14FF0FF34204606B0BDE8F081E1
:1044C0006420FDF70FFA4FF00008D5E900018DF8E0
:1044D00010800978427D40F2CC10C2F20000012326
:1044E000CDE900670294FDF785FD00284FF0FF3409
:1044F000E2D14FF6FF701821E881FF208DF81610E9
:10450000D5E9002128746882AC600120C5E90588DE
:10451000C5F81C80A5F82080C5F8238085F8278081
:104520000DF1160328730978927985F82200CDE9F8
:10453000003040F2CC100F27C2F200000123029796
:10454000FDF758FD30B14FF0FF34204606B0BDE80E
:10455000F08100BF9DF81600A97AC0082872B9B191
:10456000687A00218DF81710E0B1D5E900010DF14E
:104570001703C27901200978CDE9003040F2CC1050
:104580000F27C2F2000001230297FDF733FD28B187
:104590004FF0FF34204606B0BDE8F0819DF81700CB
:1045A000C00868722A2001F0C5F928B14FF0FF3425
:1045B000204606B0BDE8F081322001F013FA28B1A0
:1045C0004FF0FF34204606B0BDE8F0810020FFF731
:1045D0008DFE28B14FF0FF34204606B0BDE8F081D3
:1045E000002001F073F828B14FF0FF34204606B0E8
:1045F000BDE8F0810020002401F070FA204606B0EA
:10460000BDE8F0812DE9F04F8DB0064600294FF04E
:10461000FF3000F0CD8040F21808C2F200080C46CE
:1046200098F82510002940F0C380002ECDE9033210
:1046300000F09A804FF000090DF12205CDE9054602
:104640001FFA89FBA6EB0B0A98F80A00BAF1100FC3
:10465000A8BF4FF0100A002800F09E80D8F8040090
:104660005FFA89F11FFA8AF342895E1899FA89F193
:1046700096424FEA11410793ADF8321000F28C8058
:10468000D8F8002001780DF13200D27E009002208F
:10469000019040F2CC10C2F2000001230F270297D4
:1046A000FDF7A8FC40F21807C2F20007002873D1FA
:1046B000D7E9000104EB0B08027E07980978019006
:1046C00040F2CC10C2F2000001230F24CDF800808C
:1046D0000294FDF78FFC00285ED1B87A00285BD0E9
:1046E00078683B4642894FEA1B2196428DF832108A
:1046F0008DF8339050D81A6801780DF13200D27ECF
:1047000000900220019040F2CC10C2F20000012380
:104710000F270297FDF76EFC40F21801C2F200016C
:10472000D0BBD1E90001079C0978027E40F2CC1091
:10473000C2F2000001230F27009501940297FDF7B4
:10474000ABFA48BB404629462246FBF7DFFE98BB42
:10475000D144069E1FFA89F0059C40F21808B04229
:10476000C2F20008FFF46CAF0498D8E9002140BA07
:10477000ADF832000F200978527F02230DF1320785
:10478000029040F2CC10CDE90073C2F20000012388
:104790000124FDF72FFC28B14FF0FF300DB0BDE82C
:1047A000F08F00BF039888F82540A8F82600002065
:1047B0000DB0BDE8F08F00BF6FF001000DB0BDE897
:1047C000F08F000070B586B0282805D94FF0FF346F
:1047D000204606B070BD00BF40F218050446C2F284
:1047E0000005002852D095F82300012827D0A87C86
:1047F00095F822103222002808BF30228DF81320AD
:1048000039B16FF04D01002808BF6FF04F018DF8EE
:104810001310D5E900010DF11303C27D0F200978B3
:10482000029040F2CC1001260093C2F20000012356
:104830000196FDF7DFFB002808BF85F823602020E4
:10484000012C8DF810006BD1A87A00218DF8111081
:10485000D0B1E87A062106288DF8141014D0D5E9D5
:10486000000105AB827801200978CDE9003040F2E3
:10487000CC100F26C2F2000001230296FDF7BAFB0E
:1048800010B99DF81400E8720720BDE095F82300E8
:1048900048B3A87C95F822100246002818BF0122D0
:1048A00052008DF8122039B16FF07D01002808BF49
:1048B0006FF07F018DF81210D5E900010DF11203A0
:1048C000C27D01200978CDE9003040F2CC100F26DE
:1048D000C2F2000001230296FDF78CFB002804BF02
:1048E000002085F823004FF4E060D5E90021ADF801
:1048F0001000022004AB0978527DCDE9003040F26F
:10490000CC100F26C2F2000001230296FDF772FBC5
:10491000002851D04FF0FF34204606B070BD00BFD4
:10492000052C23D8A87A01218DF81110D8B1E87A86
:10493000062106288DF8151015D0D5E900010DF1D6
:104940001503827801200978CDE9003040F2CC10BF
:104950000F26C2F2000001230296FDF74BFB10B9AF
:104960009DF81500E87247204EE000BF142C29D8AE
:10497000A87A02218DF81110D8B1E87A052105280E
:104980008DF8161015D0D5E900010DF116038278C7
:1049900001200978CDE9003040F2CC100F26C2F298
:1049A000000001230296FDF725FB10B99DF81600C3
:1049B000E872872028E000BF00242C75204606B04E
:1049C00070BD00BFA87A03218DF81110D8B1E87A24
:1049D000042104288DF8171015D0D5E900010DF138
:1049E0001703827801200978CDE9003040F2CC101D
:1049F0000F26C2F2000001230296FDF7FBFA10B960
:104A00009DF81700E872C720D5E900218DF8110044
:104A10000F200978527D022304AE029040F2CC10A0
:104A2000CDE90063C2F2000001230126FDF7E2FA9E
:104A300020B14FF0FF34204606B070BD0820A872A8
:104A4000002400202C732E75FFF750FC204606B082
:104A500070BD00002DE9F04385B040F21807C2F2A6
:104A600000070E4697F82410054600294FF0FF3046
:104A70005FD0B97A00295CD0D7E900019146027B6A
:104A80000F2002230978CDE9013040F2CC100DF15E
:104A90001204C2F2000001230094FDF7FDF828B1D2
:104AA0004FF0FF3005B0BDE8F08300BFBDF8121035
:104AB00008BAB5EB104F07D9002089F800004FF075
:104AC000FF3005B0BDE8F083786891FA91F842882C
:104AD000B8EB520F17D93A6801780120D27CCDE9A2
:104AE000004040F2CC104FF00F0CC2F20000012346
:104AF000CDF808C0FDF7D0F80028D1D19DF81200FC
:104B0000C00619D478683A6801780F20527B029069
:104B100040F2CC10C2F20000012300960195FDF78F
:104B2000BBF80028BCD1B8FBF5F0013889F80000CB
:104B3000002005B0BDE8F08300F006F86FF001003A
:104B400005B0BDE8F0830000F0B585B040F2180470
:104B5000C2F20004A07AA0B30020D4E900218DF8AD
:104B600013000978527C40F2CC100F2601270DF17A
:104B70001305C2F200000123CDE900570296FDF7AC
:104B800039FAF0B9D4E9000101230978427940F2F9
:104B9000CC10C2F20000CDE901760095FDF72AFAAB
:104BA00078B9D4E90001012302790F200978CDE911
:104BB000013040F2CC10C2F200000095FDF71AFA65
:104BC00020B14FF0FF3005B0F0BD00BF94F82400D5
:104BD000002853D00C20D4E900218DF81300097867
:104BE000127940F2CC100F260127C2F200000123F7
:104BF000CDE900570296FDF7FDF90028E1D13220FA
:104C0000FCF770FEA07A0123C0076FF01F0008BFF9
:104C10006FF03F00D4E900218DF813000978127974
:104C200040F2CC10C2F20000CDE901760095FDF70C
:104C3000E1F90028C5D1607C0F26002818BF0120AB
:104C40004000D4E900218DF813000978527C40F22D
:104C5000CC100127C2F200000123CDE900570296D3
:104C6000FDF7C8F90028ACD10020D4E900218DF867
:104C7000130009785279CDE9005755E00420D4E9B2
:104C800000218DF813000978127940F2CC100F261C
:104C90000127C2F200000123CDE900570296FDF77B
:104CA000A9F900288DD1A07AA17CC0074FF060003F
:104CB00008BF4020002918BF4020D4E900218DF80A
:104CC00013000978127940F2CC10C2F200000123DF
:104CD000CDE901760095FDF78DF900287FF471AFDD
:104CE0003220FCF7FFFD607C0F26002818BF012052
:104CF000D4E900218DF813000978527C40F2CC10E1
:104D00000127C2F200000123CDE900570296FDF70A
:104D100071F900287FF455AFD4E900010978427990
:104D200004F11000CDE9000740F2CC10C2F20000FF
:104D300001230296FDF75EF900287FF442AF0020C0
:104D400005B0F0BD2DE9F04F9BB040F2180AC2F259
:104D5000000A9AF824408946054614B1002000F064
:104D60004DFD9AF80800032816D848F27811C0F6CD
:104D7000000131F810709AF80900032811D90020B9
:104D800012909AF80B0006281DD90020CDE91000DA
:104D9000CDE90E0032E000BF00279AF80900032891
:104DA000EDD80FF618129AF8133002EB80020FF6C6
:104DB000FC01002B08BF01EB8002106812909AF8EA
:104DC0000B000628E1D800F07F00411EB1FA81F106
:104DD000490911910621C14001F0010110910E21F4
:104DE000C14001F001010F911E21C14001F00101FC
:104DF0000E913E2121FA00F000F001000D90BAF86A
:104E00000E009AF80A8013909AF8106028464946D6
:104E10000022FEF7B7FF48B12846494600224FF06E
:104E2000000BFEF7AFFF002840F06D8317A814A910
:104E30000122FEF7A7FF48B117A814A90122FEF727
:104E4000A1FF18B14FF0000B5DE300BFDAF80400DA
:104E5000042201780F20CDE9012040F2CC10CDE9E9
:104E60000B751AAFC2F200000D220123CDE90964CF
:104E70000097FCF711FFCDF8208058B3D9F8000057
:104E80001499401A48BF404202F02AFE4FF05E518A
:104E900002F0BAFE04462846002102F0D9FC0028A0
:104EA0004CD12046294602F009FD0021CBF6807145
:104EB00002F06CFC45F6294120F00040C3F60F617A
:104EC00002F0E2FC00280CBF4FF001084FF0000890
:104ED00048E000BF9DF868009DF869309DF86B5070
:104EE0009DF86A601C2404EAD000C5F3011204EAAC
:104EF000D303C5F3810712EB000C03EB070104EAAF
:104F0000D60B05F00308CDE90373079100F0E280AA
:104F1000BCF1010400F0F280104314F00302A0F190
:104F2000020000F0F580012A40F0FC804FF6AD75DC
:104F3000ACF10204C3F6B36503E100BF49F69A1170
:104F4000C3F69961204602F0A6FC43F233310546D0
:104F5000C3F67371204602F089FC55EA000818BFB9
:104F60004FF00108D9F804001599401A48BF404293
:104F700002F0B6FD4FF05E5102F046FE05463046A7
:104F8000002102F065FCA8B92846314602F096FCE3
:104F90000021CBF6807102F0F9FB45F6294120F0A3
:104FA0000040C3F60F6102F06FFC002808BF08F153
:104FB000020815E043F23331C3F67371284608F155
:104FC000020402F053FC49F69A110028C3F69961D5
:104FD000284618BFA04602F05EFC002818BFA04675
:104FE000D9F808001699401A48BF404202F078FDEF
:104FF0004FF05E5102F008FE04463846002102F0F0
:1050000027FCA8B92046394602F058FC0021CBF60F
:10501000807102F0BBFB45F6294120F00040C3F649
:105020000F6102F031FC002808BF08F1040815E008
:1050300043F23331C3F67371204608F1040502F0E0
:1050400015FC49F69A110028C3F69961204618BF4D
:10505000A84602F020FC002818BFA846DAF8040091
:105060001AAA01780320CDE9002040F2CC100C9C54
:105070000F27C2F200000D2201230297FCF70CFE5D
:1050800010B10B9F072632E2206817999DF868201F
:10509000401A48BF40429DF869709DF86A9002F03E
:1050A0001F0502F01DFD4FF05E5102F0ADFD0446FC
:1050B00095B16E1E28D016F00301A5F102002DD087
:1050C000012940F07D8043F23331C4F2D11106460C
:1050D00084E000BF00254CE00021C4F220112046EE
:1050E00002F0D9FB00210546C4F2D221204602F08D
:1050F000BDFB55EA000618BF01269AE041F27B4548
:10510000C3F6AE6535E000BF0021C4F2C8117CE0F3
:1051100041F27B45C3F6AE6513E000BF0021C4F247
:10512000C8115BE047F25E25ACF10404C3F6C0652C
:10513000022A08BFACF1030404BF41F66365C3F65D
:10514000BA65032815D345F61D26C3F6847600BF3D
:105150002846314602F058FD314602F055FD3146F1
:1051600002F052FD314602F04FFD043C2106054697
:10517000EED1079ACDE9058BD8449AB1541E13D0CD
:10518000DDE90310084314F00301A0F1020011D07F
:10519000012940F089804FF6AD76941EC3F6B366C0
:1051A0008FE000BF0026A4E041F27B46C3F6AE6666
:1051B0009FE000BF41F27B46C3F6AE6681E000BFD0
:1051C00002294EF29A31A5F10406C4F2E41108BF97
:1051D000EE1E04BF4DF2BD21C4F2DA11032814D330
:1051E0004EF25435C3F685750846294602F00CFD8B
:1051F000294602F009FD294602F006FD294602F083
:1052000003FD043E31060146EED1204602F056FB76
:105210000021CBF6807102F0B9FA45F6294120F061
:105220000040C3F60F6102F02FFB00280CBF0126DF
:1052300000260C981899406807F01F05401A48BFCF
:10524000404202F04DFC4FF05E5102F0DDFC04469E
:1052500075B16F1E20D017F00301A5F102001FD019
:1052600001296DD143F23331C4F2D111074675E003
:105270000021C4F2D2212046B51C02F0F7FA002129
:105280000028C4F22011204618BF2E4602F003FB6E
:10529000002818BF2E468BE00021C4F2C81174E02C
:1052A0000021C4F2C81159E047F25E26141FC3F66C
:1052B000C066022908BFD41E04BF41F66366C3F668
:1052C000BA66032815D345F61D27C3F6847700BFB9
:1052D0003046394602F098FC394602F095FC3946D2
:1052E00002F092FC394602F08FFC043C210606468F
:1052F000EED1B8F1000F15D0B8F1010414D0DDE9FA
:105300000510084314F00301A0F1020012D0012996
:1053100040F08C804FF6AD77A8F10204C3F6B36776
:1053200093E000BF0027A9E541F27B47C3F6AE67D3
:10533000A4E500BF41F27B47C3F6AE6785E000BF3E
:1053400002294EF29A31A5F10407C4F2E41108BF14
:10535000EF1E04BF4DF2BD21C4F2DA11032814D3AD
:105360004EF25435C3F685750846294602F04CFCCA
:10537000294602F049FC294602F046FC294602F083
:1053800043FC043F39060146EED1204602F096FA6E
:105390000021CBF6807102F0F9F945F6294120F0A1
:1053A0000040C3F60F6102F06FFA002808BF023612
:1053B000DDE90B7B1999DBF8080009F01F05401A9D
:1053C00048BF404202F08CFB4FF05E5102F01CFCE3
:1053D00004467DB16F1E21D017F00301A5F1020034
:1053E00020D001294AD143F23331C4F2D11107460A
:1053F00052E000BF0021C4F2D2212046351D02F048
:1054000035FA00210028C4F22011204618BF2E468C
:1054100002F041FA002818BF2E4668E00021C4F2CD
:10542000C81150E00021C4F2C81135E047F25E27F0
:10543000A8F10404C3F6C067022908BFA8F1030459
:1054400004BF41F66367C3F6BA670328FFF416ADDD
:1054500045F61D28C3F684783846414602F0D4FB51
:10546000414602F0D1FB414602F0CEFB414602F03C
:10547000CBFB043C21060746EED1FFE402294EF2A5
:105480009A31A5F10407C4F2E41108BFEF1E04BF6E
:105490004DF2BD21C4F2DA11032814D34EF2543573
:1054A000C3F685750846294602F0AEFB294602F090
:1054B000ABFB294602F0A8FB294602F0A5FB043FFE
:1054C00039060146EED1204602F0F8F90021CBF66C
:1054D000807102F05BF945F6294120F00040C3F6E7
:1054E0000F6102F0D1F9002808BF04360B9FB6FA0D
:1054F00086F04009B8F1000F08BF02300A9CDDE9D0
:10550000088600F1040B4FF6FF70AAF80E00FF208A
:105510008AF810004FF0FF30CAF808000120B7F5F4
:105520007A7F8AF80C0007DAFA2F0DD0139DB7F5B1
:10553000FA7F2BD108200BE008D0139DB7F5FA6F46
:1055400024D1182004E000BF002000E01020139DAB
:105550008DF86800DAE900011AAB82790120097838
:10556000CDE9003040F2CC100F27C2F20000012339
:105570000297FCF73FFD20B99DF86800C0088AF843
:1055800008009AF80A00002800F07F80129901F0C4
:10559000FE000238C90741EA5000072841D8DFE879
:1055A00000F0050D40174040402100BF00208DF85D
:1055B00068009AF8091081421CD132E008208DF869
:1055C000680001209AF80910814213D129E000BF38
:1055D00010208DF8680002209AF80910814209D144
:1055E0001FE000BF18208DF8680003209AF809100A
:1055F000814216D0DAE900011AABC279012009789C
:10560000CDE9003040F2CC100F27C2F20000012398
:105610000297FCF7EFFC20B99DF86800C0088AF8F3
:1056200009009AF80A0080B3119808B1012010E02F
:10563000109808B102200CE00F9808B1032008E090
:105640000E9808B1042004E00D9800280CBF062035
:1056500005209AF80B108DF86800814215D0DAE920
:1056600000011AAB827801200978CDE9003040F2C0
:10567000CC100F27C2F2000001230297FCF7BAFCFE
:1056800018B99DF868008AF80B00284600F0AAF9BE
:10569000404600F023FA3046FEF728FE14B1012000
:1056A00000F0ACF858461BB0BDE8F08F02000000D7
:1056B00004000000080000001000000004000000CA
:1056C00008000000100000002000000070B584B049
:1056D00040F21805C2F20005A97C814202D10020E7
:1056E00004B070BD0446D5E90001012302790F2002
:1056F0000978CDE9013040F2CC100DF10F06C2F26D
:1057000000000096FCF7C8FA002C43D000285DD1B9
:105710009DF80F00D5E9002100F0DF008DF80F00A3
:105720000F20012309781279CDE9013040F2CC1025
:10573000C2F200000096FCF75DFC002846D1032071
:10574000FCF7D0F895F8221095F823206FF07D0033
:10575000002908BF02208DF80F001AB140F0300078
:105760008DF80F00D5E900014FF00F0CC27D01202C
:105770000978CDE9006040F2CC10C2F200000123AC
:10578000CDF808C0FCF736FC00BBAC74002004B0B8
:1057900070BD00BFD0B99DF80F00A97A00F0DF00FE
:1057A00001F0010140EA4110D5E900218DF80F0018
:1057B0000F20012309781279CDE9013040F2CC1095
:1057C000C2F200000096FCF715FC18B14FF0FF3054
:1057D00004B070BD0320FCF785F895F8220095F819
:1057E0002310024600281CBF01226FF07F00D20167
:1057F00000298DF80F20B1D1B4E70000F0B585B0D5
:1058000040F21805C2F2000595F82410814200F01C
:105810008980002852D095F82500002800F0868065
:1058200009B9A87AC0B10020D5E900218DF811008E
:1058300001200DF111030978527CCDE9003040F2CE
:10584000CC100F26C2F2000001230296FCF7D2FB17
:1058500010B99DF81100687400200024FFF736FF8E
:10586000E88C00F0BFF868688DF8104040F2CC1466
:105870000178012704A8C2F200040F26CDE9000731
:105880002046232201230296FCF7B4FB0220D5E92F
:1058900000218DF812000978527C0DF11200CDE93B
:1058A00000072046012385F824700296FCF7A2FB2E
:1058B000B0BB9DF81200687432E000BF09B9A87A45
:1058C000C0B10020D5E900218DF8130001200DF1B1
:1058D00013030978527CCDE9003040F2CC100F2739
:1058E000C2F2000001230297FCF784FB10B99DF877
:1058F00013006874287C69688DF81000012004AAE0
:105900000978CDE9002040F2CC100F27C2F2000048
:10591000232201230297FCF76DFB002085F8240069
:10592000FFF712F9002005B0F0BD00BF4FF0FF30C7
:1059300005B0F0BD10B584B040F21804C2F2000406
:10594000A17A002944D0BC2806D30120E17A8DF841
:105950000F00814227D142E0622807D30220E17A7A
:105960008DF80F0081421ED139E000BF2A2807D3ED
:105970000320E17A8DF80F00814214D12FE000BF9F
:10598000142807D30420E17A8DF80F0081420AD150
:1059900025E000BF0A2834BF06200520E17A8DF8F3
:1059A0000F0081421BD0D4E900010DF10F03827872
:1059B00001200978CDE9003040F2CC104FF00F0CF7
:1059C000C2F200000123CDF808C0FCF713FB18B1A8
:1059D0004FF0FF3004B010BD9DF80F00E0720020C2
:1059E00004B010BD70B584B040F21805C2F20005D5
:1059F000A97A044600294FF0FF306DD095F82410A5
:105A0000002969D1287D50B1601E80B2272803D8B3
:105A10002046FEF7D7FE5EE00020FEF7D3FE4FF4EF
:105A20007A76B4F57A7F28BF3446042C98BF0424D4
:105A3000B6FBF4F0D5E9002101388DF80E00012005
:105A40000DF10E0309785278CDE9003040F2CC1008
:105A50000F24C2F2000001230294FCF7CBFA18B124
:105A60004FF0FF3004B070BD9DF80E00AA7A411CC3
:105A7000B6FBF1F1E98172B3012801D801200FE0F2
:105A8000042801D802200BE00A2801D8032007E0EF
:105A9000182801D8042003E031288CBF06200520F7
:105AA000E97A8DF80F00814215D0D5E900010DF19A
:105AB0000F03827801200978CDE9003040F2CC1044
:105AC0000F26C2F2000001230296FCF793FA10B9E8
:105AD0009DF80F00E872002004B070BD2DE9F04180
