:020000040800F2
:100000003005002001010008A1260008751E000827
:100010009D260008150B0008B5260008000000000A
:10002000000000000000000000000000A9260008F9
:10003000190B000800000000A5260008AD260008E6
:100040001B0100081B0100081B0100081B01000820
:100050001B0100081B0100081B0100081B01000810
:100060001B0100081B0100081B0100081B01000800
:100070001B0100081B0100081B0100081B010008F0
:100080001B0100081B0100081B0100081B010008E0
:100090001B0100081B0100081B0100081B010008D0
:1000A0001B0100081B0100081B0100081B010008C0
:1000B0001B0100081B0100081B0100081B010008B0
:1000C0001B0100081B0100081B0100081B010008A0
:1000D0001B0100081B0100081B0100081B01000890
:1000E0001B0100081B0100081B010008DFF80CD0F1
:1000F00000F09CFC004800476D36000830050020E9
:100100000648804706480047FEE7FEE7FEE7FEE7B1
:10011000FEE7FEE7FEE7FEE7FEE7FEE7B1260008A2
:10012000ED0000082DE9F0410024061B254671F181
:10013000000605DA01240027D0EB070067EB010178
:10014000161E73F1000605DA0027D2EB070201251F
:1001500067EB030300F03DFB86460E4617469C46C0
:10016000AC4204D00025D0EB050E65EB010624B1AE
:100170000020D2EB000760EB030C704631463A4694
:100180006346BDE8F08130B504460020034600E038
:100190005B1C934203D2E05CCD5C401BF8D030BDC9
:1001A000F0B480EA0102D40F4200B2EB410F02D258
:1001B0000246084611464A0042D0C30DDDB2C1F3E3
:1001C000C752AD1A202D35DAC1F3160141F40002F1
:1001D00004B15242C5F1200602FA06F12A41104448
:1001E000B3EBD05F23D0C4B1012DA0EBC35009DC29
:1001F000F0BC4FF0004202EAC352DBB200F500004F
:1002000000F042BB400000F1807000EBC350A0F151
:10021000807040EAD170490009E0490841EAC071A4
:10022000A0EBC35000F50000400800EBC350F0BC49
:1002300000F021BB6142012202EB4101001BF6E705
:10024000F0BC704781F00041AAE780F00040A7E7CA
:1002500080EA010210B502F00043400022D04A00BB
:100260001FD0010E01EB1261C0F35600C2F356021B
:1002700040F4000042F40002A0FB022000047F3999
:10028000140400D0401C50EA124001D44000491E22
:10029000C2B20C0604EBD010401C4008802A02D0E9
:1002A00003E0002010BD20F00100002900DA00204A
:1002B000184310BD30B480EA010202F0004530F06E
:1002C000004221F0004013D090B1C30DD40DC2F311
:1002D0001601C0F31600E41A41F4000140F40002D4
:1002E0007D34914201D3641C00E04900002C02DA05
:1002F00030BC002070474FF400000023914201D32E
:10030000891A034340084FEA4101F7D151B19142A4
:1003100002D14FF0004105E002D24FF0010101E0AF
:100320006FF0010103EBC450284430BC00F0A3BAC5
:100330002DE9FE4F804681EA0300C00F0C46009075
:1003400021F0004123F00045B8EB0200A94105D29D
:100350004046214690461C460B46024623F000408C
:10036000104347D0270DC7F30A00C3F30A51029088
:10037000401A019040286BDAC3F3130040F4801B4D
:100380000098924620B10023D2EB030A63EB0B0BDB
:1003900001985946C0F14002504600F04BFA06461B
:1003A0000D4650465946019A00F053FA10EB0800EA
:1003B0006141002487EA115284EAE7731A4340D06E
:1003C000009A62B3019A012A4FEA075215DC001B1A
:1003D00061EB02014FF0004202EA0752CDE9004210
:1003E000001C41F5801132462B4600F08AFA03B01A
:1003F000BDE8F08F40462146F9E7001B61EB0201A2
:10040000001C41F5801300185B412018A2F500176D
:1004100047EB030140EAD570B6196D4111E06D0854
:100420004FEA360645EAC0754FEA0752001B61EBFA
:100430000201001C41F5801149084FEA3000001903
:10044000514132462B4603B0BDE8F04F00F04ABAA6
:100450000098012240000023D0EB020263EBE0731E
:10046000009821464FEAE074B8EB000061EB04010C
:10047000E9E783F000435BE781F0004158E72DE9AD
:10048000FE4F81EA030404F0004421F0004100948F
:100490004FF0000B23F0004350EA01045ED052EA13
:1004A00003045BD0C3F30A54C1F30A552C44A4F2ED
:1004B000F3340194A0FB0254C1F3130141F4801101
:1004C000C3F3130343F4801301FB024400FB034E08
:1004D000840A970A44EA815447EA8357A4FB0768D1
:1004E00002958D0A05FB07854FEA932C04FB0C54FB
:1004F0002705029D4FEA065847EA1637B5EB08056F
:100500006EEB070C870E920E47EA811742EA8312C0
:10051000A7FB0201B6EB0B0164EB00042B0D43EAD1
:100520000C335E1844EB1C50DA465146E7FB0201DF
:10053000C5F313044FEA0B3343EA14534FEA043272
:10054000019C43EA0603A4F10C040294009CCDE94B
:1005500000B400F0D6F903B0BDE8F08F00200146EA
:10056000F9E72DE9F04D81EA030404F0004B21F096
:10057000004514464FF0000A23F0004150EA0502FE
:1005800020D054EA01021DD0C5F30A570246C5F334
:100590001303C1F31300C1F30A5640F4801543F46A
:1005A0008013A7EB0608101BD64608F2FD3873EB44
:1005B000050002D308F1010801E092185B41B8F18F
:1005C000000F03DA00200146BDE8F08D00204FF453
:1005D0008011064684460EE0171B73EB050705D312
:1005E000121B63EB050306434CEA010C49084FEA72
:1005F000300092185B4150EA0107EDD152EA030046
:1006000012D082EA040083EA0501084305D0101BDA
:10061000AB4106D20122002306E000224FF0004346
:1006200002E06FF0010253101AEB06004CEB085188
:1006300010EB0A0041EB0B01BDE8F04D00F052B9A0
:10064000002801DBC0F10040002901DBC1F10041BD
:10065000814201D80120704700207047002801DB4B
:10066000C0F10040002901DBC1F10041814201D20B
:100670000120704700207047002801DBC0F10040D6
:10068000002901DBC1F10041814201D901207047FD
:1006900000207047002801DBC0F10040002901DB89
:1006A000C1F10041814201D1012070470020704713
:1006B000C10F80EAE0700844CA079623002100F0C9
:1006C000E3B896230022114600F0DEB80EB5C10F44
:1006D00080EAE0700844CA07002140F233438DE805
:1006E0000E000A460B4600F00CF903B000BD00F006
:1006F000004220F00040C10DC0F3160040F400009D
:100700007F2901DA00207047962903DCC1F19601A8
:10071000C84001E096398840002AF4D04042704732
:1007200020F00040C10DC0F3160040F400007F2906
:1007300001DA00207047962903DCC1F19601C84018
:10074000704796398840704700F0004230F0004012
:100750000AD0C10D01F56071C0F3160042EA0151E3
:10076000C20840071143704700200146704701F05E
:10077000004330B421F0004150EA010206D00A0DD6
:10078000A2F56072C1F31301002A02DC30BC002024
:100790007047440F44EAC104C100E01830BC00EBCC
:1007A000C25000F068B830B50B4601460020202248
:1007B000012409E021FA02F59D4205D303FA02F56E
:1007C000491B04FA02F52844151EA2F10102F1DCCE
:1007D00030BD2DE9F05F0546002092469B468846D5
:1007E0000646814640241BE02846414647462246AD
:1007F00000F02EF953465A46C01A914110D31146C3
:100800001846224600F016F82D1A67EB01084F46ED
:1008100022460120002100F00DF817EB00094E419F
:10082000201EA4F10104DFDC484631462A46434637
:10083000BDE8F09F202A04DB203A00FA02F10020F4
:1008400070479140C2F1200320FA03F3194390400E
:100850007047202A06DBCB17203A41FA02F043EA20
:10086000E07306E041FA02F3D040C2F12002914069
:100870000843194670470029A8BF7047401C49002B
:1008800008BF20F00100704710B4B0FA80FC00FAF5
:100890000CF050EA010404BF10BC704749B1CCF120
:1008A000200421FA04F411FA0CF118BF01212143AC
:1008B0000843A3EB0C01CB1D4FEA00614FEA102067
:1008C00042BF002010BC704700EBC3501044002909
:1008D000A4BF10BC7047401C490008BF20F00100B5
:1008E00010BC704710B5141E73F1000408DA401CE8
:1008F00041F1000192185B411A4301D120F001003F
:1009000010BD2DE9F04D92469B4611B1B1FA81F22E
:1009100002E0B0FA80F220329046FFF78BFF0446E7
:100920000F4640EA0A0041EA0B0153465A46084383
:1009300013D0114653EA010019D0C8F140025046C5
:1009400000F086F805460E46504659464246FFF7E7
:1009500071FF084305D0012004E020463946BDE878
:10096000F08D0020054346EAE0762C4337430A9891
:100970006305E40AA0EB08000022FD0A44EA47549C
:100980000A3002D500200146E9E701051019694146
:10099000DDE9084500196941BDE8F04DA2E770B5F1
:1009A00021F0004303430CD0C1F30A550024D5EBDA
:1009B000040564EB0403D617AD1AB34102DB002033
:1009C000014670BD201841EB025170BDC1F30A52BF
:1009D000C1F3130140F2FF3341F480119A4202DA6D
:1009E00000200146704740F233439A42A2F233425C
:1009F00002DC524200F02CB8FFF71CBF30B5041ED9
:100A000071F1000404DB4FF00044404264EB01014B
:100A1000141E73F1000405DB1C464FF000435242E4
:100A200063EB0403994208BF904230BD064C074D6A
:100A300006E0E06840F0010394E8070098471034AE
:100A4000AC42F6D3FFF756FB2C7300084C7300083A
:100A5000202A04DB203A21FA02F00021704721FA13
:100A600002F3D040C2F1200291400843194670477A
:100A70002DE9F04D00231A461B1A8A4103DB0020A2
:100A80000146BDE8F08DC1F30A52C1F3130141F4F0
:100A900080154FF0000BD10702D100186D41521E96
:100AA0000027044640F2FF11384601EB620A3E4639
:100AB0008046024600204FF48011FFF7C9FFC2199B
:100AC0007141BB1846EB0100B4EB030C75EB000C55
:100AD00004D3E41A65EB000517460E46241908F105
:100AE00001006D4180463428E3DDF91946EB06002C
:100AF000091BA84103D24FF0FF32134601E0002248
:100B000013461BEB070046EB0A51BDE8F04DFFF71B
:100B1000E9BE0000FEE7000070470000EFF3108020
:100B200072B600BFFEE7000070B505466E1C00F00F
:100B300029F9044636B140F20800C2F200000078FC
:100B4000054401E04FF0FF3500F01CF9001BA842FE
:100B5000FAD370BD2DE9F04F83B0D1F800E0BEF1BB
:100B6000000F00F0058141F2004204234FF6FF7AA6
:100B700040F2004801244FF000094FF0000BC4F28E
:100B80000102C1F2100AC4F20108904200F11402FD
:100B900008BF032301920093002300BF04FA09FC5D
:100BA0001EEA0C0F00F0DB804F68574512DC122F55
:100BB00055D80F24DFE807F0350A444854545454FC
:100BC0005454545454545454544B4F00D1F80CB012
:100BD00046E000BF4FF6FF72C1F22102974210DCDF
:100BE00000220F24C1F2110297421EBF0022C1F25F
:100BF0001202974215D00022C1F22102974210D072
:100C00002EE000220F24C1F2220297421EBF0022D2
:100C1000C1F23102974204D00022C1F2320297425F
:100C20001ED18A684AB1012A019A4FF0080B08BF09
:100C300000F11002C2F800C012E04FF0040B0FE008
:100C4000CA6802F1080B0BE04FF0000B08E0CA681D
:100C500002F1040B04E0CA6802F10C0B00E00F245F
:100C6000B9F1080F02464FF6F8754E4628BF043218
:100C7000C3F6FF75176828BF2E44B60004FA06F5C0
:100C80000BFA06F6AF4337431760CA79D20601D490
:100C9000012464E041F218020F244FEA9906C4F2DD
:100CA000020215462A6842F001022A602A6803F00F
:100CB0000C0502F00102029204FA05F2029FA8F567
:100CC0007E7757F8264024EA020240F60004C4F278
:100CD0000104A0420ED040F60044C4F20104A04238
:100CE0000AD041F20004C4F20104A042009C08BFF3
:100CF000022402E0002400E0012404FA05F50124A6
:100D00002A4347F8262040F20C474D68D8F80820BF
:100D1000C4F2010715F4801F0CBF22EA0C0242EA5C
:100D20000C02C8F80820AA023A6854BF22EA0C0252
:100D300042EA0C023A60AA03D8F8042054BF22EA1F
:100D40000C0242EA0C02C8F80420EA03D8F800209A
:100D500054BF22EA0C0242EA0C02C8F80020D1F883
:100D600000E009F1010904333EFA09F27FF416AFFD
:100D700003B0BDE8F08F0000002A08BF090401613C
:100D80007047000040F20800C2F20000806870471F
:100D9000B0B504465CB394F83D0028B9002084F84F
:100DA0003C00204600F026FB242084F83D0020680B
:100DB000016821F001010160016841F40041016016
:100DC000016821F40041016000F0C6FC656848F24A
:100DD000A16E40F60011C0F2010EC0F23D01754552
:100DE0003CBF48F28041C0F21E01884201D201207E
:100DF000B0BD4DF683617545C4F21B31A0FB0113F4
:100E000021684A6822F03F0242EA93424FEA934344
:100E10004A600A6A22F03F0C09D34FF496725A4393
:100E200044F6D353C1F26203A2FB03239B095A1C6D
:100E30004CF6FF73013842EA0C020A62CA6922EAE0
:100E4000030C48F2A062C0F20102954209D86A0080
:100E5000B0FBF2F001306FF31F30042898BF04207C
:100E60002EE0D4F808E0BEF1000F15D019226A4335
:100E7000B0FBF2F2531C042262F31F331A0514D0A4
:100E8000BEF1000F13D019226A43B0FBF2F0042226
:100E9000013062F31F3011E005EB4502B0FBF2F2C6
:100EA000531C6FF31F331A05EAD1012008E005EB4C
:100EB0004502B0FBF2F001306FF31F3040F4004008
:100EC00040EA0C00C8610868D4E9072320F0C0009C
:100ED000104348F2FF321843086088689043D4E911
:100EE0000323184310438860C868D4E9052320F021
:100EF000FF0010431843C860086840F00100086014
:100F000000202021206484F83D10206384F83E00F6
:100F1000B0BD00002DE9F04F85B004460020994691
:100F200016460F460490FFF72DFF054694F83D0046
:100F300020281ED1206800BF816911F0020F1AD04D
:100F4000FFF720FF411B20681929F5D9816911F0AD
:100F5000020FF1D000202021206384F83D1084F896
:100F60003E00216C41F02001216484F83C00022005
:100F700080E102207EE194F83C10012901D1022099
:100F800078E10123DDE90E21DDF8408084F83C3072
:100F9000036813F0010F02BF036843F0010303600D
:100FA000036823F40063036022204B4684F83D006D
:100FB000402084F83E00002020646262618539464A
:100FC0003246608D20850020CFF6FF70E06220461B
:100FD000CDE9008500F050FF08B101204AE1218DE4
:100FE000B9B12068012921D1016821F48061016033
:100FF000EFF3108072B600200390206841690391DE
:10100000816903910399016841F40071016062B63E
:101010002DE00020039020684169039181690391CC
:101020000399016841F40071016020E0026802291F
:1010300013D142F400610160EFF3108072B600201A
:1010400003902068416903918169039103990168C4
:1010500021F48061016062B609E042F480610160C0
:101060000021039141690391806903900398208DC9
:10107000002800F0DF8040F238094BF2895A08F16D
:1010800001062327C2F20009C1F2F84A1FFA80FBC9
:10109000BBF1030F0CD8BBF1010F2CD12046414608
:1010A0002A4601F0CBF9002800F0B480DDE000BF53
:1010B000204641462A4601F0C1F9002840F0D3807D
:1010C00020680069616A0870606A01306062208D82
:1010D00001382085618D0139618521684A6912F0E6
:1010E000040F00F0A48080B2032802BF086820F437
:1010F000806008608EE02068B6B1416911F0040F8D
:1011000016D1B8F1000F30D0FFF73CFE411B20682C
:10111000414503D9416911F0040F32D0416911F002
:10112000040FF1D004E000BF416911F0040FFBD0BF
:101130000021BBF1020F35D1002940F09880EFF378
:10114000108072B62068016841F400710160006986
:10115000616A0870606A01306062208D0138208504
:10116000608D0138608562B654E0FFF70BFE2068A1
:10117000416911F0040F04D0416911F0040FF4D05B
:10118000D6E700222021226384F83D1084F83E2017
:10119000216C41F020012164012184F83C20BBF145
:1011A000020FC9D0002964D1016821F48061016077
:1011B000EFF3108072B620680069616A0870606A97
:1011C00001306062218D01392185618D0139618590
:1011D000D9F80010C908A1FB0A12110A7943049139
:1011E000049901390491049969B321684A6912F09C
:1011F000040FF5D00A6842F400720A6009690170B0
:10120000606A01306062208D01382085608D013870
:10121000608562B620680069616A0870606A0130A2
:101220006062208D01382085618D0139618501045E
:101230007FF42CAF202084F83D00002084F83E008D
:1012400084F83C0016E000202021206384F83D1043
:1012500084F83E00216C41F02001216462B684F8DC
:101260003C00012006E0012004E0012002E0012012
:1012700000E00120C0B205B0BDE8F08F2DE9F043D9
:1012800083B0994616460F460446FFF77BFD054698
:1012900094F83D0020281ED1206800BF816911F01C
:1012A000020F1AD0FFF76EFD411B20681929F5D9EE
:1012B000816911F0020FF1D000202021206384F811
:1012C0003D1084F83E00216C41F02001216484F837
:1012D0003C00022034E0022032E094F83C10012966
:1012E00001D102202CE00123DDE90A21DDF8308064
:1012F00084F83C30036813F0010F02BF036843F029
:1013000001030360036823F40063036021204B465C
:1013100084F83D00402084F83E0000202064626292
:10132000618539463246608D20850020CFF6FF70FA
:10133000E0622046CDE9008500F040FF20B10120A9
:10134000C0B203B0BDE8F083208D09E04878106199
:10135000881C6062981E2085618D0139618500BFFF
:1013600000041BD0204641462A4601F0B9F828BBAC
:10137000616A2268084610F8013B13616062238DA0
:10138000581E2085678D013F6785576917F0040F48
:10139000E6D000044FF00000E2D0D7E720464146F7
:1013A0002A4600F0F1FFA8B1206C042820D1206863
:1013B000016841F4007101600120C1E7206C04283C
:1013C00006D12068016841F4007101600120B7E78F
:1013D0000120B5E72068016841F400710160202018
:1013E00084F83D00002084F83E0084F83C00A7E724
:1013F0000120A5E710B586B00021CDE90411CDE9A3
:101400000211016845F20040C4F20000814201D09F
:1014100006B010BD41F2180400F53840C4F20204D1
:10142000216841F008012160216801F00801019163
:101430000199C0210291122103910321059102A972
:10144000FFF788FB606840F400106060606800F49B
:1014500000100190019806B010BD000040F2080095
:10146000C2F2000001788268114481607047000078
:1014700080B542F20000C4F20200016841F01001A0
:101480000160032000F07EF80F2000F005F800F066
:1014900025F8002080BD000070B540F20806044623
:1014A0004FF47A71C2F200063078B1FBF0F040F2EE
:1014B0003801C2F200010968B1FBF0F000F064FBF2
:1014C00001250F2C08D838B94FF0FF3021460022F3
:1014D000002500F025F87460284670BD82B041F206
:1014E00018000222C4F20200016841F0010101600B
:1014F000016801F0010101910199416841F08051B9
:101500004160406800F08050009000980420C4F2D0
:101510000100016862F31A61016002B070470000C7
:1015200010B500F00F034EF60C5E00F1604CB0F108
:10153000FF3FA3F10403CEF2000E734403F10C0449
:10154000C8BF0CF56444DEF80000C0F3022000F1CF
:10155000040CC31E80F00700BCF1070F4FF0010C14
:1015600038BF0023042828BF04200CFA00F00138FB
:1015700008400CFA03F10F31984011400843000174
:10158000207010BD4EF60C514FF6FF03CEF2000155
:101590000A681A4060F30A2242F0806040F0FD7051
:1015A000086070472DE9F04104460D46002C00F01C
:1015B000AA8041F20408C4F20208D8F8FC0F00F037
:1015C0000700A8420DD2D8F8FC0F20F007002843EE
:1015D000C8F8FC0FD8F8FC0F00F00700A84240F054
:1015E0009280206810F0020F17D0410742BFD8F850
:1015F000001041F4E061C8F80010010742BFD8F8BC
:10160000001041F46051C8F80010D8F80010A2682A
:1016100021F0F0011143C8F80010C0072FD0606816
:10162000012805D158F8041C11F4003F6BD008E0E4
:1016300058F8041C022802D1890164D501E0890709
:1016400061D5D8F8001021F003010843C8F8000064
:10165000FFF798FB064641F2883700BFD8F8000034
:10166000616800F00C00B0EB810F08D0FFF78AFB37
:10167000801BB842F2D90320C0B2BDE8F081D8F88F
:10168000FC0F00F00700A8420CD9D8F8FC0F20F09E
:1016900007002843C8F8FC0FD8F8FC0F00F007003B
:1016A000A84230D1206810F0040F07D0D8F80010FD
:1016B000E26821F4E0611143C8F80010000708D582
:1016C000D8F80000216920F4605040EAC100C8F851
:1016D0000000D8F8001041F20020C0F27A0001F0BA
:1016E0000C02082A1CD146F29043C1F3834211F444
:1016F000803FC0F600039A5C09D140F60010C0F2AA
:101700003D0050430CE00120C0B2BDE8F081D8F8A4
:10171000001050430FA2C1F34041515CB0FBF1F007
:10172000D8F8001046F27842C0F60002C1F3031167
:10173000515CC84040F23801C2F20001086040F23A
:101740000C00C2F200000068FFF7A6FE0020C0B245
:10175000BDE8F0810102000040F2380041F20401CE
:1017600046F28842C2F20000C4F20201C0F6000252
:1017700000680968C1F30221515CC840704700004D
:1017800040F2380041F2040146F28842C2F2000001
:10179000C4F20201C0F6000200680968C1F3C22168
:1017A000515CC840704700002DE9F04782B0044604
:1017B00074B3207841F2000A41F22007C4F2020A11
:1017C000C4F20207C00763D057F81C0C00F00C00ED
:1017D00004281FD057F81C0C00F00C00082804D176
:1017E00057F81C0C10F4803F14D16068D8B1B0F5E4
:1017F000803F08D0DAF80010B0F5A02F2ED141F4C8
:101800008020CAF80000DAF8000040F480302DE0B3
:101810000120B2E1DAF8000010F4003F38D060682F
:10182000B0BB0120A9E1DAF8000020F48030CAF84A
:101830000000DAF8000020F48020CAF80000FFF76A
:10184000A1FA0546DAF8000010F4003F20D0FFF7B7
:1018500099FA411B03206429F4D98EE121F48030E8
:10186000CAF80000DAF8000020F48020CAF800006E
:10187000FFF788FA054600BFDAF8000010F4003FD1
:1018800006D1FFF77FFA401B6428F5D9032074E1E5
:10189000207840F20008C4F24228800738D557F873
:1018A0001C0C10F00C0F21D057F81C0C00F00C0091
:1018B000082804BF57F81C0C10F4803F16D020698C
:1018C000002800F0A9800120C8F80000FFF75AFAAC
:1018D000054600BFDAF8000010F0020F0FD1FFF745
:1018E00051FA401B0228F5D9032046E1DAF800003E
:1018F00010F0020F1CBF2069012840F08B80DAF83D
:101900000000616920F0F80040EAC100CAF8000058
:101910002078000738D5A06988B10120C8F8800474
:10192000FFF730FA054600BF786810F0020F18D1B3
:10193000FFF728FA401B0228F6D903201DE10020FA
:10194000C8F88004FFF71EFA054600BF786810F05B
:10195000020F19D0FFF716FA401B0228F6D9032010
:101960000BE140F2380044F6D351C2F20000C1F25C
:1019700062010068A0FB0101480A019000BF0198C4
:10198000411E00280191F9D12078400740F1908054
:1019900057F8040C10F0805F0ED157F8040C4FF08C
:1019A000010940F0805047F8040C57F8040C00F08F
:1019B00080500090009801E04FF0000946F20006C8
:1019C000CFF6FE765AF8060010F4807F14D15AF84C
:1019D000060040F480704AF80600FFF7D3F9054688
:1019E0005AF8060010F4807F06D1FFF7CBF9401BB0
:1019F0006428F5D90320C0E0E06800B3012805D0D1
:101A00003968052833D141F004003860386840F067
:101A1000010032E00120B0E00020C8F80000FFF72C
:101A2000B1F90546DAF8000010F0020F3FF470AF8C
:101A3000FFF7A8F9411B03200229F3D99DE038687C
:101A400020F001003860386820F004003860FFF7AB
:101A500099F9054641F28836386810F0020F1ED019
:101A6000FFF790F9411B0320B142F5D985E021F041
:101A700001003860386820F004003860FFF782F910
:101A8000054641F2883600BF386810F0020F06D1D3
:101A9000FFF778F9401BB042F6D903206DE0B9F1A9
:101AA000010F02BF57F8040C20F0805047F8040CD7
:101AB000E669002E60D057F81C0C00F00C000828D6
:101AC00003D1012E22D1012057E00020C8F8600088
:101AD000FFF758F90546022E0CD100BFDAF80000D6
:101AE00010F0007F20D0FFF74DF9411B03200229A1
:101AF000F4D942E0DAF8000010F0007F3CD0FFF7A4
:101B000041F9411B03200229F4D936E057F81C0C97
:101B1000216A00F480328A4233D1616A00F4701085
:101B2000884229D0012028E0206AB0F5803F07D103
:101B300057F81C1CA26821F40031114347F81C1C03
:101B400057F81C1C21F474110843616A084347F8D4
:101B50001C0C0120C8F86000FFF714F9044600BF10
:101B6000DAF8000010F0007F06D1FFF70BF9011B37
:101B700003200229F4D900E00020C0B202B0BDE881
:101B8000F0870120F9E70000411E0020B0EB116F43
:101B90001CBF012070474EF21002F023CEF200026B
:101BA00051604EF62351CEF200010B700721906078
:101BB0001160704710B50446002C04BF012010BD11
:101BC00094F8410028B9002084F84000204600F035
:101BD00061F8242084F841002068C16821F4005194
:101BE000C1600169E26821F44051114341F20C6285
:101BF0000161D4F808C0D4E904E3C16891434EEA16
:101C00000C021A431143C1604169A26921F4407179
:101C10001143416143F60001C4F20101884202D040
:101C2000FFF79AFD01E0FFF7ABFD192148F21F5CB9
:101C30004843D4E90012C5F2EB1C9200B0FBF2F06D
:101C4000A0FB0C3252096FF0630302FB0300322346
:101C500003EB0010A0FB0C03F02000EA531000EB94
:101C60000210C3F3431210438860086920F49040C7
:101C70000861486920F02A004861C86840F40050B3
:101C8000C86000202021606484F8411084F842106C
:101C9000606310BD70B586B0002640F60004CDE943
:101CA0000466CDE90266C4F20104006804F54051FF
:101CB000884201D006B070BD41F2180002ADC4F2F6
:101CC0000200016841F480410160016801F4804133
:101CD00001910199016841F0040101602946006801
:101CE00000F00400019001984FF40070029002206F
:101CF0000390032005902046FEF72CFF4FF48060F0
:101D00002946CDE9020620460496FEF723FF06B0D9
:101D100070BD00002DE9F04381B004469946164697
:101D20000F4694F8410020281AD1002F4FF00100EF
:101D300018BF002E00F0988000252120656484F8EB
:101D40004100FFF71FF8A684E6848046A068B0F53E
:101D5000805F07D12669002E0CBF3D463E4602E05B
:101D6000022081E03E46E28C206801688AB319F1C6
:101D7000010217D0B9F1000F4CD100BF09066DD593
:101D800016B116F8011B04E035F8021B00266FF3AC
:101D90005F214160E18C0139E184E28C0168002A15
:101DA000ECD116E0090603D4016811F0800FFBD0D6
:101DB00016B116F8011B04E035F8021B00266FF37C
:101DC0005F214160E18C0139E184E28C0168002AE5
:101DD000E8D1490618D4B9F1000F3BD019F101013F
:101DE00006D100BF016811F0400FFBD00CE000BF2E
:101DF000FEF7C8FFA0EB0800484539D82068C16845
:101E0000006810F0400FF3D00020202184F841102A
:101E10002AE000BF09060BD4FEF7B4FFA0EB0800D0
:101E200048451DD82068C168016811F0800FF3D0C3
:101E300016B116F8011B04E035F8021B00266FF3FB
:101E40005F214160E18C0139E184E28C0168002A64
:101E5000E0D1BEE7FEF796FF0320D6E7FEF792FF3C
:101E6000202084F841000320C0B201B0BDE8F08317
:101E70000320CAE7FEE700002DE9F04782B00446E0
:101E80000F460A9D0B9E99469046206815F1010A5F
:101E9000016841F480610160016841F48071016072
:101EA00016D0416911F0010F35D1002D26D000BFA9
:101EB000FEF768FF811B2068A94204D9416911F02F
:101EC000010F00F0A880416911F0010FF0D003E08C
:101ED000416911F0010FFBD007F0FE0700F114017A
:101EE000BAF1000F07611BD10A6812F0020F44D14A
:101EF0000A6812F4806FF7D056E000BFFEF742FF89
:101F00002068416911F0010F00F08580416911F0EE
:101F1000010FF3D0E0E707F0FE0700F114010761BD
:101F20000A6812F0020F28D1002D15D0096811F4AB
:101F3000806F39D1FEF726FF811B2068A94203D9A3
:101F4000416911F0020F7CD0014651F8142F12F0B4
:101F5000020FEBD011E000BF096811F4806F23D1AC
:101F6000FEF710FF2068014651F8142F12F0020FFF
:101F700067D00A6812F0020FEED0002132460191BC
:101F8000416901912946806901900198204600F03D
:101F9000A7FA90B1206C042827D12068016841F489
:101FA0000071016001215AE0016841F40071016093
:101FB0006FF480614161042044E0B9F1010F16D053
:101FC00020684FEA1821324601612046294600F078
:101FD00087FA60B1206C042840F08780206801688F
:101FE00041F400710160012139E0012137E02068EE
:101FF0005FFA88F1324601612046294600F070FA06
:1020000088B3206C04286ED12068016841F4007107
:102010000160012123E000212022216384F83D207A
:1020200084F83E10226C42F02002226484F83C10B6
:102030000321006810F4807F1CBF4FF400702064FF
:102040000DE0202000212022216384F83D2084F827
:102050003E10226C1043206484F83C100121C8B269
:1020600002B0BDE8F0872068BAF1000F016841F4C2
:102070008071016016D0416911F0010F37D1002D38
:1020800025D000BFFEF77EFE811B2068A94203D940
:10209000416911F0010F69D0416911F0010FF1D0D0
:1020A00004E000BF416911F0010FFBD047F00101CE
:1020B00000F11402BAF1000F01611DD1116811F095
:1020C000020F69D1116811F4806FF7D045E0FEF777
:1020D00059FE2068416911F0010F47D0416911F0A4
:1020E000010FF4D0E2E70121B9E70121B7E747F09A
:1020F000010100F114020161116811F0020F2AD1EF
:10210000002D15D0116811F4806F26D1FEF73AFE2C
:10211000811B2068A94203D9416911F0020F3DD00B
:102120000246002152F8143F13F0020FEAD096E75E
:10213000116811F4806F10D1FEF724FE206802466A
:1021400052F8141F11F0020F28D01368002113F069
:10215000020FEDD083E7002181E7016841F40071AF
:1021600001606FF480614161042018E000212022A9
:10217000216384F83D2084F83E10226C42F0200256
:10218000226484F83C100321006810F4807F1CBF97
:102190004FF40070206462E7002160E720200021F6
:1021A0002022216384F83D2084F83E10226C1043E5
:1021B000206484F83C10012151E700002DE9F0472C
:1021C00082B004460A9E0F460B9D994690462068B1
:1021D00016F1010A016841F48071016016D041696D
:1021E00011F0010F34D1002E26D000BFFEF7CAFD3A
:1021F000411B2068B14204D9416911F0010F00F080
:102200009980416911F0010FF0D003E0416911F0AC
:10221000010FFBD007F0FE01BAF1000F016100F1E0
:1022200014011AD10A6812F0020F44D10A6812F49C
:10223000806FF7D056E000BFFEF7A4FD206841692B
:1022400011F0010F76D0416911F0010FF4D0E1E7F0
:1022500007F0FE01016100F114010A6812F0020F9B
:1022600029D1002E16D000BF096811F4806F39D132
:10227000FEF788FD411B2068B14203D9416911F086
:10228000020F6DD0014651F8142F12F0020FEBD05F
:1022900011E000BF096811F4806F23D1FEF772FDD1
:1022A0002068014651F8142F12F0020F58D00A6826
:1022B00012F0020FEED000212A46019141690191EE
:1022C0003146806901900198204600F009F990B1EB
:1022D000206C042826D12068016841F40071016057
:1022E00001204BE0016841F4007101606FF48061EE
:1022F0004161042035E0B9F1010F15D020684FEAA3
:1023000018212A4601612046314600F0E9F858B10B
:10231000206C042836D12068016841F40071016006
:1023200001202BE0012029E020685FFA88F101619B
:10233000002023E000212022216384F83D2084F83E
:102340003E10226C42F02002226484F83C100068A7
:1023500010F4807F1CBF4FF40070206403200DE058
:10236000202000212022216384F83D2084F83E10A3
:10237000226C1043206484F83C100120C0B202B0EB
:10238000BDE8F0870120F9E770B504460E46154612
:102390002068014651F8142F12F0040F1CBF0020D2
:1023A00070BD721C08D04EB312E000BF086810F078
:1023B000040F1CBF002070BD086810F4806FF5D0BA
:1023C000084629E0416911F0040F1CBF002070BDD0
:1023D00050F8141F11F4806F1ED1FEF7D3FC411B7F
:1023E0002068B142EED9416911F0040FEAD111E041
:1023F000416911F0040F1CBF002070BD50F8141F7C
:1024000011F4806F08D1FEF7BDFC2068416911F01E
:10241000040FEDD1202003E06FF4806101600420FF
:1024200000212022216384F83D2084F83E10226C94
:1024300010432064012084F83C1070BD70B5044640
:102440000E461546206850F8141F11F0400F1CBFAF
:10245000002070BD3EB91BE050F8141F11F0400F72
:102460001CBF002070BD016811F0100F27D1FEF7CE
:1024700089FC411B2068B142EED9416911F0400F3F
:10248000EAD111E0016811F0400F1CBF002070BDBF
:10249000016811F0100F12D1FEF774FC206850F89B
:1024A000141F11F0400FEDD100202021206384F88B
:1024B0003D1084F83E00206C40F020000AE06FF0F0
:1024C0001001016000202021206384F83D1084F871
:1024D0003E00206C2064002084F83C00012070BD88
:1024E00070B504460E4615462068014651F8142F73
:1024F00012F0800F1CBF002070BD721C08D04EB3BC
:1025000012E000BF086810F0800F1CBF002070BDF3
:10251000086810F4806FF5D0084629E0416911F091
:10252000800F1CBF002070BD50F8141F11F4806F85
:102530001ED1FEF727FC411B2068B142EED941694C
:1025400011F0800FEAD111E0416911F0800F1CBF3A
:10255000002070BD50F8141F11F4806F08D1FEF7F1
:1025600011FC2068416911F0800FEDD1202003E0BB
:102570006FF480610160042000212022216384F82F
:102580003D2084F83E10226C10432064012084F822
:102590003C1070BD70B584B041F2180041F20004E7
:1025A00000224FF400550026C4F20200C4F20104D8
:1025B000016841F010010160016801F01001009113
:1025C0000099016841F020010160016801F02001DB
:1025D00000910099016841F004010160016801F077
:1025E000040100910099016841F0080101604FF475
:1025F0000051006800F00800009000982046FEF7A7
:10260000BBFB012000956946CDE90106022003903D
:102610002046FEF79FFA04B070BD000080B540F27E
:10262000800045F200414FF48042C2F20000C4F243
:102630000001016048F2A061C0F201014160002187
:10264000C0E902110162C0E90611C0E90421FEF7E8
:102650009FFB00281CBFBDE88040FEF75FBA80BD2D
:1026600080B540F2D40043F600014FF4E13200237C
:102670004FF00C0CC2F20000C4F2010180E80E0021
:10268000C0E90333C0E905C3C361FFF793FA00282B
:102690001CBFBDE88040FEF741BA80BDFEE70000E8
:1026A000FEE700007047000070470000FEF7D6BE4E
:1026B00070470000FEE700002DE9F04188B00446B5
:1026C0004CF602200DF106050421C0F6E3102A465F
:1026D000CDF80600682002F05BFBA32014F0400652
:1026E0006FF05C026FF05C018DF8060018BF6FF0B0
:1026F0003F028DF807206FF05C0218BF6FF03702C1
:102700008DF808206FF05C0218BF6FF03D0214F4E2
:10271000C0778DF809206FF05C0218BF6FF03B02A4
:102720008DF80A206FF05C0218BF6FF033028DF84D
:102730000B2018BF6FF039012A468DF80C108DF868
:102740000D008DF80E008DF80F0040F6A7200A212D
:1027500002F01EFB14F003086FF027004FF0010198
:102760002A4618BF20208DF8060040F6B62002F059
:102770000FFB14F0200F0CD1C7208DF8180048F67D
:10278000B000CCF2C35005904AF6B820CAF6AA2091
:102790000AE05D20069049F6B400C3F20D500590A2
:1027A0004AF6B820C8F6B350049004AA4FF49760D4
:1027B000092102F0EDFA2FB314F480706FF04F018D
:1027C0000DF1060218BF6FF04D018DF806106FF085
:1027D0007F0118BF6FF0740100286FF06F008DF853
:1027E00007106FF04B0118BF6FF049018DF808100A
:1027F00018BF6FF0640004218DF8090040F6A22094
:1028000002F0C6FAE00708D1D8200DF10602012136
:102810008DF806004FF40B6052E0F8200DF106022F
:1028200001218DF806004FF40B6002F0B1FA072089
:10283000FA2100F02DFC3F2004AA01218DF81000A0
:102840004FF4A47002F0A4FA002004AA01218DF82C
:10285000100040F24F1002F09BFA4FF4A0500DF11F
:102860001E050221ADF81E004FF4EF702A4602F05B
:102870008FFA4FF4C84002212A46ADF81E004FF4EB
:10288000ED7002F085FA48F6006004AA0421C9F24E
:10289000F90004904FF4AE7002F07AFA4FF4006041
:1028A00002212A46ADF81E004FF4AD7002F070FA16
:1028B0004FF4007002212A46ADF81E004FF4AC70B0
:1028C00002F066FA04F00200D8210DF1060241EA96
:1028D000500001218DF8060040F23D7002F058FAD8
:1028E00014F0040F04AA4FF004010EBF4FF08B3018
:1028F0004CF2C020CCF2C460049040F6982002F064
:1029000047FA01F061FBE00604AA4FF0040152BF50
:102910004FF0A33042F62000C3F63000049040F69A
:102920009E2002F035FA01F04FFB40F2780144F0AE
:102930000800002EC2F20001088018BF0626002FF2
:1029400018BF063614F0140F18BF46F01006B8F181
:10295000000F18BF043601F037FB40F27E00C2F2D0
:1029600000000670002008B0BDE8F0812DE9F047B6
:102970008CB0002001210DF1110201238DF811000E
:102980004FF47A70CDE90021D1217522029040F2F6
:102990008000C2F20000FEF7BDFAC5A003F0BAFC49
:1029A000CBA003F0B7FCD3A4204603F0B3FC9DF802
:1029B0001110D1A002F0AAFC9DF8111047F2C90035
:1029C000C0F6000002F0A2FC204603F0A3FC9DF834
:1029D0001100682805D100F0B7FFA8B10CB0BDE820
:1029E000F0874EF60C50BFF34F8F0422CEF200005A
:1029F000C0F2FA52016801F4E06111430160BFF3D3
:102A00004F8F00BF00BFFDE7782002F02BF928B9F7
:102A1000A7A003F07FFCB7A003F07CFC782000F0B7
:102A200001FF28B9BAA003F075FCB2A003F072FC54
:102A3000642002F093F840B947F22020C0F600006D
:102A400003F068FCABA003F065FC00F07DF940B931
:102A500047F2B010C0F6000003F05CFCA5A003F044
:102A600059FC40F22009C2F2000999F9000000283F
:102A700040F3D580002099F90310002940F3D68057
:102A8000002199F90620002A40F3D780002208434C
:102A9000104380B200F090FA40B947F2B020C0F67F
:102AA000000003F037FC93A003F034FC40F27310F5
:102AB000FFF702FE40B947F2F010C0F6000003F045
:102AC00029FC8CA003F026FC642000F047FA40B9F2
:102AD00047F25020C0F6000003F01CFC85A003F074
:102AE00019FC09A806A901F073FB032836D105A833
:102AF00000F008FF0998FDF7DBFD059C0146204624
:102B0000FDF7A6FBFDF7F3FD09900A98FDF7D0FD50
:102B100001462046FDF79CFBFDF7E9FD0A900B9866
:102B2000FDF7C6FD01462046FDF792FBFDF7DFFDF0
:102B30000B900DF1120000F0BFFEBDF812000699D7
:102B400041430691079941430791089948430890EA
:102B500047F2E020C0F6000003F0DCFB012001F0AA
:102B6000A5FF40B947F28020C0F6000003F0D2FB79
:102B700070A003F0CFFBC820FDF7D6FF47F260102E
:102B8000C0F6000003F0C6FBC820FDF7CDFF69A02A
:102B900003F0C0FB47F2EC0847F2E00A002609F117
:102BA0000C0466A753A5C0F60008C0F6000A00BFD3
:102BB000204602F033F9D9F80C00FDF7C5FD0246B6
:102BC00040460B4602F0A2FBD9F81000FDF7BCFD11
:102BD000024650460B4602F099FBD9F81400FDF767
:102BE000B3FD024638460B4602F090FB284603F040
:102BF00091FB1420FDF798FF0136B0B2C828D7D357
:102C0000C820FDF791FF47F20010C0F6000003F066
:102C100081FB48A003F07EFB0CB0BDE8F08713DB1E
:102C200099F90100002816DD012024E70EDB99F94F
:102C30000410002916DD082123E709DB99F9072094
:102C4000002A16DD402222E7042014E7202118E79D
:102C50004FF480721BE713DB99F90200002816DDA0
:102C6000022008E70EDB99F90510002914DD102178
:102C700007E709DB99F90820002A12DD802206E720
:102C80000520F8E62821FCE64FF4A072FFE64FF09D
:102C9000070018BF0620EEE64FF0380118BF3021BC
:102CA000EFE64FF4E07218BF4FF4C072EFE600BFDA
:102CB0006D70755F7365745F73656E736F7220639B
:102CC0006F6D706C657465202E2E2E2E2E2E0D00CD
:102CD0006D7075E8AEBEE7BDAEE4BCA0E6849FE5CE
:102CE00099A8E5AE8CE68890202E2E2E2E2E2E0D45
:102CF000000000000D0000004465766963655F49CF
:102D0000443A20202020307825780D0A0000000069
:102D10006D70755F636F6E6669677572655F666912
:102D2000666F20636F6D706C657465202E2E2E2E7D
:102D30002E2E0D000D0A0D0A0D0000005961773A84
:102D4000202020256609200046F2A04140F6F630FA
:102D50004FF48062C823C0F6000100F0CBBE000033
:102D60002DE9F04F89B0DDF84890824600201446E6
:102D7000139A0DF1040B88461E465946A9F8000027
:102D800040F27E00C2F20000007801F067F820B146
:102D90004FF0FF3009B0BDE8F08F40F27800C2F28A
:102DA0000000B0F800C01CF0140F52D09DF80520B0
:102DB0009DF804109DF80630B6469DF80760120491
:102DC00042EA016141EA0322091432434943226085
:102DD0009DF809309DF808209DF80A609DF80B5079
:102DE0001B0443EA026242EA06232B4363609DF818
:102DF0000D609DF80C309DF80E509DF80F003604C4
:102E000046EA036343EA05263043A0609DF811605B
:102E10009DF810009DF812509DF81370360446EA94
:102E2000006040EA0526001400FB0010111437432F
:102E300001FB01001914E76001FB010000F1714082
:102E4000B0F1007F7DD901F0BFF80020A9F80000A3
:102E50009EE700215FEA4C602AD5C8B240F001022B
:102E60001BF800101BF8022042EA012140F0030287
:102E7000A8F8001040F002011BF801101BF8022016
:102E800042EA012140F00502A8F8021040F00401D6
:102E90001BF801101BF8022042EA0121A8F80410D7
:102EA000B9F8001041F00801A9F8001040F006013F
:102EB0001CF4C07F1BD00BEB01021BF80100063194
:102EC000537843EA0020AAF800009078D37843EAC8
:102ED0000020AAF802001079527942EA0020AAF8EC
:102EE0000400B9F8000040F07000A9F800005FEAA3
:102EF0008C701FD0C8B20BEB00056878EC7810F02E
:102F0000010F0CD040F26801C2F200010A6832B130
:102F100004F00701C4F3C20001319047687800074C
:102F200008D540F26800C2F20000416800291CBFC9
:102F3000A0098847304600F04BF9002009B0BDE8F1
:102F4000F08FB9F800001021764640F48070A9F89F
:102F500000005FEA4C603FF580AFA9E710B582B092
:102F60000446C82C1BD8C8204FF6FF716A46B0FB38
:102F7000F4F00844010A8DF800108DF8010040F2C9
:102F80001620022101F004FF48B947F2960240F6EC
:102F9000C1200C21C0F6000201F0FAFE18B14FF07A
:102FA000FF3002B010BD40F27C00C2F2000004808D
:102FB000002002B010BD000010B582B0044632A15E
:102FC00004F003000A5C8DF80420C4F3C1028B5C9A
:102FD0008DF80530C4F38113C95C8DF806102BA160
:102FE000085C8DF80000885C01AA8DF80100C85CBF
:102FF00003218DF8020040F2264001F0C9FEB0BB6B
:103000006A4640F22A40032101F0C2FE78BB45F235
:10301000366001AA0321C0F27600019044F22660D6
:10302000C0F266000090600741BF37208DF80400B1
:1030300027208DF80000A00641BF57208DF805001D
:1030400047208DF80100E00541BF77208DF806008C
:1030500067208DF802004FF4886001F099FE30B9C6
:103060006A4640F23140032101F092FE18B14FF060
:10307000FF3002B010BD40F27400C2F200000480C4
:10308000002002B010BD00BF4CCD6C000CC92C005C
:1030900070B582B00D4604464FF0FF30B5F5C86FED
:1030A00052D814F007014FD00DF1030000F0E8FBF7
:1030B0002846FDF706FB0021C4F24831FDF7FAF877
:1030C00005469DF8030002384FEA70024FF0FF30CA
:1030D000072A39D800264FF08C41C4F2C056DFE8E9
:1030E00002F00415330A3333331000264FF08D41BC
:1030F000C4F240660AE000264FF08B41C4F240560D
:1031000004E000264FF08A41C4F2C0462846FDF78D
:103110009FF8FDF705FB010A8DF804108DF80500F6
:1031200028463146FDF794F8FDF7FAFA010A8DF8C2
:1031300006108DF8070001A8851CE00706D1A0073E
:1031400013D4600720D4002002B070BD01AA4FF450
:10315000EA70022101F01CFE28BB4FF4927002219C
:103160002A4601F015FEF0B9E9E701AA4FF4EC7028
:10317000022101F00DFEB0B94FF4947002212A46ED
:1031800001F006FE78B9DCE701AA4FF4EE700221E7
:1031900001F0FEFD38B94FF4967002212A4601F085
:1031A000F7FD0028CFD04FF0FF3002B070BD000017
:1031B00080B582B0019040F2D40001A901224FF005
:1031C000FF33C2F20000FEF7A5FD019802B080BDFA
:1031D000704700002DE9F04F87B040F23C07012511
:1031E0008946824616460DF1100B0F240123ADF8D7
:1031F0001050C2F20007D7E90001827C0978022052
:10320000CDE900B040F280000294C2F20000FEF767
:1032100035F810B14FF0FF3723E2C820FDF784FCEA
:10322000002001238DF81000D7E90001C27B097846
:1032300040F28000CDE900B50294C2F20000FEF732
:103240001DF810B14FF0FF370BE2D7E900010F2452
:10325000012501234279097840F28000CDE900B5CB
:103260000294C2F20000FEF709F810B14FF0FF37E8
:10327000F7E1D7E900010123827C097840F2800060
:10328000CDE900B50294C2F20000FDF7F7FF10B1DE
:103290004FF0FF37E5E1D7E900010F2401250123B5
:1032A000C27D097840F28000CDE900B50294C2F2F7
:1032B0000000FDF7E3FF10B14FF0FF37D1E1D7E990
:1032C000000101230279097840F28000CDE900B5C0
:1032D0000294C2F20000FDF7D1FF10B14FF0FF37AA
:1032E000BFE10C200F24012501238DF81000D7E940
:1032F00000010279097840F28000CDE900B502941E
:10330000C2F20000FDF7BAFF10B14FF0FF37A8E19D
:103310000F20FDF709FCB86A0123407A8DF81000F0
:10332000D7E900018278097840F28000CDE900B544
:103330000294C2F20000FDF7A1FF10B14FF0FF3779
:103340008FE1B86A0F2401250123007A8DF810005F
:10335000D7E900014278097840F28000CDE900B554
:103360000294C2F20000FDF789FF10B14FF0FF3761
:1033700077E1B86A002E4FF00103807A18BF40F061
:10338000E0008DF81000D7E900018279097840F259
:103390008000CDE900B50294C2F20000FDF76EFF97
:1033A00010B14FF0FF375CE126B1B86AC07A60F027
:1033B0001F0000E018208DF810000123D7E900015C
:1033C000C27909780F20CDE900B30123029040F2C1
:1033D0008000C2F20000FDF751FF10B14FF0FF373F
:1033E0003FE1002E1CBFC820FDF79EFB40200F24AC
:1033F000012501238DF81000D7E900010279097831
:1034000040F28000CDE900B50294C2F20000FDF761
:1034100035FF10B14FF0FF3723E1782001238DF8FD
:103420001000D7E900014279097840F28000CDE927
:1034300000B50294C2F20000FDF720FF10B14FF07A
:10344000FF370EE13220FDF76FFB00200F24012330
:103450008DF81000D7E90001427909780120CDE903
:1034600000B040F280000294C2F20000FDF706FFB7
:1034700010B14FF0FF37F4E0D7E900010123827A61
:1034800009780220CDE900B040F280000294C2F237
:103490000000FDF73FFD10B14FF0FF37E1E09DF870
:1034A00010009DF811100022CAE90022CAF8082075
:1034B000C9E90022C9F8082041EA00204AF6AB21F8
:1034C000CAF6AA21A0FB0101C1F3C705002D62D0F5
:1034D0000026D7E900010123C27A09780C20CDF833
:1034E00000B001900F20029040F28000C2F2000074
:1034F000FDF710FD002840F0B2809DF810109DF8F7
:103500001120D9F800009DF812309DF813400136C3
:1035100042EA01219DF8142009B208449DF81510D3
:10352000C9F8000044EA0320D9F8043000B2184476
:10353000C9F8040041EA0220D9F8081000B2084492
:10354000C9F808009DF816109DF81720DAF8000059
:103550009DF818309DF8194042EA01219DF81A2083
:1035600044EA032309B21BB208449DF81B10CAF8B1
:103570000000DAF8044041EA022109B204EB030832
:10358000CAF80480DAF808205418F1B28D42CAF85B
:1035900008409ED803E0DAE90008DAF80840C117CD
:1035A000832200230027090441EA10410004FCF7AC
:1035B000B9FD2A460023FCF7B5FDCAF800004FEA22
:1035C000E87083220023000440EA18414FEA0840D3
:1035D000FCF7A8FD2A460023FCF7A4FDCAF8040066
:1035E000E01783220023000440EA14412004FCF782
:1035F00099FD2A460023FCF795FDCAF808002A46E3
:103600000023D9F80000C117490141EAD061400107
:10361000FCF788FDC9F800002A460023D9F8040009
:10362000C117490141EAD0614001FCF77BFDC9F8AF
:1036300004002A460023D9F80800C117490141EACD
:10364000D0614001FCF76EFD4FF480310028C4BF0B
:103650000021CFF6FF710844C9F8080001E04FF0DF
:10366000FF37384607B0BDE8F08F00002DE9F04F76
:1036700093B0FDF7FDFE002401204FF480310225B8
:10368000CDE90E44CDE90C440894CDE90644CDE9DA
:1036900004440990CDE90A140D904FF4E010CDE9EF
:1036A0001051129009A8FEF77FF820B1EFF31080B7
:1036B00072B600BFFEE70F200221CDE904054FF4EA
:1036C00080600694CDE9070404A8FDF76BFF20B1E4
:1036D000EFF3108072B600BFFEE7FEF75BFFFEF768
:1036E0009DFFFEF7BDFF37A001F010FE01F0C6FC04
:1036F00070B340F22C0B0FF2D8080FF2E809C2F2B7
:10370000000B00BF01F0BAFC0146404601F0FEFD8F
:10371000DBE90060DBF80870FDF716F882463846F2
:103720000D46FDF711F8074630460C46FDF70CF83C
:10373000024648460B46CDE900A5CDE9027401F0EA
:10374000E5FD6420FDF7F0F901F098FC0028D9D1DF
:10375000FFF70CF940F22C0440F220180FF2940904
:103760000FF2980A28A52BA62DA7C2F20004C2F2D8
:10377000000800BF204601F051FB404601F066FD05
:10378000484601F0C3FD2068FCF7DEFF02465046C4
:103790000B4601F0BBFD6068FCF7D6FF02462846E9
:1037A0000B4601F0B3FDA068FCF7CEFF02463046A1
:1037B0000B4601F0ABFD384602F0ACFD6420FDF78E
:1037C000B3F9D7E768656C6C6F2066656E670000BB
:1037D00030782578202849445F4552524F52290DB0
:1037E0000A00000061252E316662252E31666325B0
:1037F0002E31660066656E673A000000506974639A
:10380000683A202566092000526F6C6C3A2020250A
:10381000660920005961773A20202025660920009A
:103820000D000000F0B581B040F23C05C2F2000589
:1038300095F8241019B10024204601B0F0BDA97AF2
:10384000D9B100F0FE072E7C01EA0700C41B2874E2
:1038500018BF4FF0FF34287D384300060CBF00200E
:10386000012001F0D7FB002FE6D000F0ADFB0028CF
:103870001CBF2E744FF0FF34DEE74FF0FF34DBE760
:1038800040F23C01C2F200014A7A032A84BF4FF0A1
:10389000FF30704740F20243D200C1F2080323FA1E
:1038A00002F20270C97C002904BF00207047510059
:1038B000017000207047000040F23C0CC2F2000C86
:1038C0009CF80930032B84BF4FF0FF3070474FF452
:1038D0008042DFE803F00A02050841F69C7204E02A
:1038E0004FF4805201E04FF4006202809CF8131004
:1038F000002904BF00207047C2F34E010180002060
:103900007047000040F23C01C2F200010A7A032A2B
:1039100084BF4FF0FF3070470021C4F20331DFE86D
:1039200002F00F02060B0021C4F2832108E043F2EB
:103930003331C4F2032103E043F23331C4F2831183
:1039400001600020704700002DE9F04186B040F290
:103950003C0580200F2401270DF10F0601238DF86F
:103960000F00C2F20005D5E90001827C097840F21F
:103970008000CDE900670294C2F20000FDF77EFCF2
:1039800010B14FF0FF34B1E06420FDF7CDF84FF0F7
:10399000000801238DF80F80D5E90001827C0978A9
:1039A00040F28000CDE900670294C2F20000FDF70A
:1039B00065FC4FF0FF34002840F098804FF6FF7010
:1039C00085F8138018210DF11507E881FF20287470
:1039D000A8740120AC60287385F82200A5F8208027
:1039E000C5E90588C5F81C8085F82780C5F82380BF
:1039F0008DF81510D5E900138A791978CDE9007092
:103A000040F280000F230293C2F200000123FDF771
:103A100035FC10B14FF0FF3468E09DF81500C00888
:103A20002872A87AB8B100208DF81600687AD8B14B
:103A3000D5E9000101230DF11607C27909780F209D
:103A4000CDE900730123029040F28000C2F2000031
:103A5000FDF714FC10B14FF0FF3447E09DF816005D
:103A6000C0086872A87AC0B103208DF81700E87A00
:103A7000032818D0D5E9000101230DF1170782783A
:103A800009780F20CDE900730123029040F28000F5
:103A9000C2F20000FDF7F2FB10B14FF0FF3425E059
:103AA0009DF81700E872322001F058F810B14FF07D
:103AB000FF341BE095F8240050B9A87AA0B100208B
:103AC0002874287D00280CBF0020012001F0A2FAF4
:103AD000002000F05DFF10B14FF0FF3406E0002041
:103AE000002401F0BFF801E04FF0FF34204606B09B
:103AF000BDE8F0812DE9F04F8BB08B4607464FF0C3
:103B0000FF30BBF1000F5DD040F23C01C2F200017A
:103B100091F82510002955D1002FCDE9043229D084
:103B20004FF000080DF11C0A002000BFA7EB0809A8
:103B300086B20BEB0805B9F1100F30462A46A8BF34
:103B40004FF010091FFA89F4214601F021F978BBE2
:103B500030462146524600F0F1F948BB284651460E
:103B60002246FCF710FB80BB09EB08001FFA80F827
:103B7000B845DBD3059940F23C0502230DF11A0745
:103B80000124C2F20005080A8DF81A008DF81B10F6
:103B9000D5E90001827E09780F20CDE90073012369
:103BA000029040F28000C2F20000FDF767FB20B1F6
:103BB0004FF0FF300BB0BDE8F08F049885F825403A
:103BC000E88400200BB0BDE8F08F6FF001000BB06F
:103BD000BDE8F08F70B586B040F23C050446C2F2F5
:103BE0000005002C57D095F82300012827D0A87C89
:103BF0003221002808BF30218DF8131095F82210CB
:103C000039B16FF04D01002808BF6FF04F018DF8FA
:103C10001310D5E9000101260DF11303027D097887
:103C20000F20CDE900360123029040F28000C2F25D
:103C30000000FDF723FB002808BF85F82360202043
:103C4000012C8DF810006CD100208DF8110004A813
:103C5000461CA87A002800F0D68006208DF81400B3
:103C6000E87A062800F0CF80D5E90001012305ACF1
:103C7000827809780F20CDE900430123029040F2B9
:103C80008000C2F20000FDF7F9FA002840F0BB8086
:103C90009DF81400B6E095F8230040B3A87C0028F6
:103CA000014618BF02218DF8121095F8221039B183
:103CB0006FF07D01002808BF6FF07F018DF81210B2
:103CC000D5E9000101230DF11206027D09780F20CC
:103CD000CDE900630123029040F28000C2F20000AF
:103CE000FDF7CCFA002804BF002085F823004FF42C
:103CF000E060022304AEADF81000D5E90001827C3B
:103D000009780F20CDE900630123029040F2800082
:103D1000C2F20000FDF7B2FA002850D04FF0FF3495
:103D200098E0052C24D801208DF8110004A8461C29
:103D3000A87A002867D006208DF81500E87A0628B2
:103D400061D0D5E9000101230DF1150482780978CD
:103D50000F20CDE900430123029040F28000C2F21F
:103D60000000FDF78BFA00284DD19DF8150049E0C1
:103D700004A8142C00F1010624D802208DF81100AB
:103D8000A87A00283FD005208DF81600E87A05288B
:103D900039D0D5E9000101230DF1160482780978A4
:103DA0000F20CDE900430123029040F28000C2F2CF
:103DB0000000FDF763FA30BB9DF8160022E00024F6
:103DC0002C7547E003208DF81100A87AD8B10420A3
:103DD0008DF81700E87A042815D0D5E900010123F1
:103DE0000DF11704827809780F20CDE900430123F3
:103DF000029040F28000C2F20000FDF73FFA10B9D5
:103E00009DF81700E87230780721022341EA8010FC
:103E1000307004AED5E90001827C09780F20CDE92D
:103E2000006301230126029040F28000C2F20000EC
:103E3000FDF724FA10B14FF0FF340BE00820002406
:103E4000A8722C732E7595F8240018B901202C74D3
:103E500001F0E0F8204606B070BD00002DE9F04307
:103E600085B040F23C070E46054691464FF0FF30C4
:103E7000C2F2000797F8241000291CBFB97A002964
:103E800052D0D7E9000102230DF11204827A097899
:103E90000F20CDE900430123029040F28000C2F2DE
:103EA0000000FDF737F8A0BB9DF812009DF8131035
:103EB00041EA0028A84503D2002089F8000028E044
:103EC00078684188B8EB510F14D90178386801231C
:103ED000427C0F20CDE900430123029040F2800094
:103EE000C2F20000FDF716F898B99DF81200C0065E
:103EF0001DD47868017838680123C27A0F20CDE993
:103F00000065029040F28000C2F20000FDF702F866
:103F100020B14FF0FF3005B0BDE8F083B8FBF5F0FD
:103F2000FF3089F80000002005B0BDE8F08300F004
:103F30004BF86FF0010005B0BDE8F083F0B585B037
:103F400015460C4601464FF0FF30002D1FBF40F2D2
:103F50003C06C2F20006B27A002A32D0080A8DF876
:103F60001200C8B28DF8131001197068428991428D
:103F700011D8017830680DF112030F27027E02205C
:103F8000CDE9003040F2800001230297C2F2000028
:103F9000FDF774F918B14FF0FF3005B0F0BDD6E968
:103FA00000010123427D097840F28000CDE90054F0
:103FB0000297C2F20000FCF7ADFF002818BF4FF0D7
:103FC000FF3005B0F0BD0000F0B585B040F23C0414
:103FD000C2F20004A07AA8B300200F2601270DF139
:103FE000130501238DF81300D4E90001C27B097881
:103FF00040F28000CDE900570296C2F20000FDF7C2
:104000003DF9F8B9D4E9000101234279097840F279
:104010008000CDE900570296C2F20000FDF72EF9AC
:1040200080B9D4E900010123027909780F20CDE994
:1040300000530123029040F28000C2F20000FDF71D
:104040001DF918B14FF0FF3005B0F0BD94F8240011
:10405000002859D00C200F26012701238DF81300CA
:10406000D4E900010279097840F28000CDE90057D7
:104070000296C2F20000FDF701F90028E2D13220D9
:10408000FCF752FDA07AC021012341EA40108DF8CF
:104090001300D4E900010279097840F28000CDE9EB
:1040A00000570296C2F20000FDF7E8F80028C9D1D7
:1040B000607C0F2601270123002818BF02208DF8FD
:1040C0001300D4E90001C27B097840F28000CDE9F9
:1040D00000570296C2F20000FDF7D0F80028B1D1D7
:1040E000002001238DF81300D4E9000142790978FA
:1040F00040F28000CDE900570296C2F20000FDF7C1
:10410000BDF800289ED15FE0042001238DF8130044
:10411000D4E90001027909780F20CDE90053012389
:10412000029040F28000C2F20000FDF7A7F80028DC
:1041300088D1A17C40200F2601270123002904BF3C
:10414000A17A61F345108DF81300D4E900010279DA
:10415000097840F28000CDE900570296C2F20000D3
:10416000FDF78CF800287FF46DAF3220FCF7DCFC03
:10417000607C0123002818BF01208DF81300D4E9CA
:104180000001C27B097840F28000CDE90057029619
:10419000C2F20000FDF772F800287FF453AFD4E9B3
:1041A0000001012304F11007427909780F20CDE9BD
:1041B00000730123029040F28000C2F20000FDF77C
:1041C0005DF800287FF43EAF002005B0F0BD000090
:1041D0002DE9F04F93B040F23C0805468B46002491
:1041E000C2F2000898F82400E0B1002000F012FFAD
:1041F00098F8100001220FAB8DF83C00D8F80400AD
:1042000001780F20CDE9003223220123029040F2F1
:104210008000C2F20000FDF731F888F82440FFF773
:10422000D3FE012498F808000A94032807D8FA243A
:10423000DFE800F00C02070A4FF4FA7406E00024ED
:1042400004E04FF47A7401E04FF4FA6498F809003E
:1042500003280DD840F20241C000C1F2080121FA42
:1042600000F098F81310002918BF0121884000E0E1
:104270000020089098F80B000138052808D8BC21C8
:104280000B91DFE800F00F0307090B0D622008E037
:10429000002006E02A2004E0142002E00A2000E0CA
:1042A00005200B90B8F80E0098F80A6098F810A056
:1042B0005946002209902846FEF78CFF48B128464F
:1042C000594600224FF00009FEF784FF002840F015
:1042D0005F820FA80CA90122FEF77CFF40B10FA856
:1042E0000CA90122FEF776FF10B14FF000094FE252
:1042F000CDE90454CDE9066A04220DF1480A0123F0
:10430000D8F8040001780F20CDE900A20D22029018
:1043100040F28000C2F20000FCF7FCFD00286AD1E8
:104320009DF849109DF84A209DF84B309DF84800B3
:1043300002F0E00901F0E001C3F3810200F0E000C7
:1043400003F0030A42EAD105C3F3011141EAD000A8
:10435000B0B141F27B46471EC3F6AE6617F0FF0FC1
:104360000FD045F61D24C3F6847400BF30462146A5
:10437000FBF76EFF013F064617F0FF0FF6D100E096
:1043800000264AEAD90A7DB36F1E41F27B45C3F687
:10439000AE6517F0FF0F0CD045F61D24C3F68474EC
:1043A00028462146FBF754FF013F054617F0FF0F53
:1043B000F6D1BAF1000F1BD041F27B44AAF10107FC
:1043C000C3F6AE6417F0FF0F13D045F61D2AC3F6EF
:1043D000847A00BF20465146FBF73AFF013F04466E
:1043E00017F0FF0FF6D104E00025BAF1000FE3D17A
:1043F00000240DF1480ADBF800000C99401A48BF70
:104400004042FCF755F94FF05E51FBF721FF07469C
:1044100030460021FCF73EF9002815D138463146D8
:10442000FBF748FF0021CBF68071FBF7B9FE20F0C7
:10443000004045F62941C3F60F61FCF701F9002859
:104440000CBF0127002712E049F69A113846C3F63F
:104450009961FCF703F943F2333106463846C3F657
:104460007371FCF709F956EA000718BF0127DBF85A
:1044700004000D99401A48BF4042FCF719F94FF06B
:104480005E51FBF7E5FE064628460021FCF702F9DF
:10449000A8B930462946FBF70DFF0021CBF6807105
:1044A000FBF77EFE20F0004045F62941C3F60F6180
:1044B000FCF7C6F8002808BF47F0020715E043F2F2
:1044C00033313046C3F67371FCF7D6F849F69A11CA
:1044D000002847F002053046C3F6996118BF2F4601
:1044E000FCF7BCF8002818BF2F46DBF808000E992F
:1044F000401A48BF4042FCF7DBF84FF05E51FBF733
:10450000A7FE054620460021FCF7C4F898B92846C6
:104510002146FBF7CFFE0021CBF68071FBF740FE72
:1045200020F0004045F62941C3F60F61FCF7A4F8DE
:104530000446002C0FE049F69A112846C3F699610B
:10454000FCF78CF843F2333104462846C3F6737106
:10455000FCF792F8044318BF0124D8F804000322A2
:10456000012301780F20CDE900A20D22029040F234
:104570008000C2F20000FCF7CDFC002C18BF47F011
:10458000040710B10726059CF5E09DF848000F9937
:1045900000F01F058DF848509DF8490000F01F0BF2
:1045A0008DF849B09DF84A0000F01F0904988DF875
:1045B0004A900068401A48BF4042FCF779F84FF033
:1045C0005E51FBF745FE0446002D2FD06E1E0021E4
:1045D000C4F2C81116F0FF0F8DF8486010D04EF2EB
:1045E0005435C3F6857500BF08462946FBF730FEF3
:1045F000013E014616F0FF0FF6D100208DF848006D
:104600002046FBF757FE0021CBF68071FBF7C8FD73
:1046100020F0004045F62941C3F60F61FCF710F881
:10462000049D00280CBF0126002611E00021204631
:10463000C4F22011FCF712F8002105462046C4F20E
:10464000D221FCF719F855EA000618BF0126049D8F
:1046500068681099401A48BF4042FCF729F84FF0AB
:104660005E51FBF7F5FD8246BBF1000F30D0ABF198
:1046700001040021C4F2C81114F0FF0F8DF8494065
:1046800011D04EF25435C3F6857500BF0846294651
:10469000FBF7DEFD013C014614F0FF0FF6D1049D4F
:1046A00000208DF849005046FBF704FE0021CBF6B0
:1046B0008071FBF775FD20F0004045F62941C3F6F7
:1046C0000F61FBF7BDFF002808BF46F0020613E0AC
:1046D00000215046C4F2D221FBF7CEFF0021002872
:1046E00046F002045046C4F2201118BF2646FBF7DC
:1046F000B5FF002818BF2646A8681199401A48BF80
:104700004042FBF7D5FF4FF05E51FBF7A1FD82461B
:10471000B9F1000F00F0D680A9F101040021C4F224
:10472000C81114F0FF0F8DF84A400FD04EF25435E7
:10473000C3F6857508462946FBF78AFD013C01460C
:1047400014F0FF0FF6D100208DF84A005046FBF719
:10475000B1FD0021CBF68071FBF722FD20F0004077
:1047600045F62941C3F60F61FBF76AFF059C002857
:1047700008BF46F004063806F0B2B0FA80F04FEAFF
:10478000501008BF40F00200DDE9066A40F004095D
:104790004FF6FF706FF3DF24A8F80E00FF20B4F58A
:1047A0007A7F88F810004FF0FF30C8F808004FF00B
:1047B000010088F80C0008DAFA2C10D0B4F5FA7F62
:1047C000DDE909542AD1082006E00AD0B4F5FA6FD1
:1047D000DDE9095422D118208DF8480006E00020B8
:1047E00000E010208DF84800DDE90954D8E9000107
:1047F000012312AF827909780F20CDE900730123DC
:10480000029040F28000C2F20000FCF737FD002861
:1048100002BF9DF84800C00888F8080098F80A0010
:1048200000283AD00898C0B202384FEA7000072832
:1048300033D8DFE800F00408320D323232120020A3
:104840008DF848000DE008208DF84800012008E0B0
:1048500010208DF84800022003E018208DF8480051
:10486000032098F80910884217D0D8E900010123E5
:1048700012AFC27909780F20CDE9007301230290AD
:1048800040F28000C2F20000FCF7F8FC002802BFF2
:104890009DF84800C00888F8090098F80A00002828
:1048A00047D00B98BC2801D3012024E0622801D313
:1048B000022020E02A2801D303201CE0142816D36C
:1048C000042018E000215046C4F2D221FBF7D4FEA8
:1048D0000021002846F004045046C4F2201118BFFD
:1048E0002646FBF7BBFE002818BF26464BE60A28E3
:1048F00034BF0620052098F80B108DF84800C0B290
:10490000814216D0D8E90001012312AF82780978DC
:104910000F20CDE900730123029040F28000C2F223
:104920000000FCF7ABFC002804BF9DF8480088F8A5
:104930000B00284600F012F9304600F093F998F881
:10494000240040B1002C1CBF012000F0AFF8484605
:1049500013B0BDE8F08F98F80A000028F2D00AF0F2
:10496000FE0698F81050304088F8100098F81400AF
:10497000304300060CBF0020012000F04BFB002E4E
:10498000E0D0FFF721FB002818BF88F81050D9E7C6
:1049900070B584B040F23C050446C2F20005A87C24
:1049A000A04202D1002004B070BDD5E9000101236E
:1049B0000DF10F06027909780F20CDE9006301237C
:1049C000029040F28000C2F20000FCF7A3FA24B388
:1049D000002865D19DF80F00012300F0DF008DF85D
:1049E0000F00D5E90001027909780F20CDE90063B5
:1049F0000123029040F28000C2F20000FCF73EFC6E
:104A000000284DD10320FCF78FF895F822106FF0A5
:104A10007D00002908BF022027E0002840D1A87AA5
:104A20009DF80F10012341F0200210F0010F08BF84
:104A300001F0DF028DF80F20D5E900010279097835
:104A40000F20CDE900630123029040F28000C2F202
:104A50000000FCF713FC18BB0320FCF765F895F881
:104A60002200002818BF6FF07F0095F823108DF802
:104A70000F00012300291CBF40F030008DF80F000B
:104A8000D5E90001027D09780F20CDE900630123FB
:104A9000029040F28000C2F20000FCF7EFFB18B178
:104AA0004FF0FF3004B070BDAC747BE770B584B0DC
:104AB00040F23C05C2F2000595F82410814201D174
:104AC000002448E040B395F82500002841D000209C
:104AD000002400F09FFA0020FFF75AFFE88C00F056
:104AE0003DF868688DF80F4001260DF10F02012393
:104AF00001780F20CDE900262322029040F28000A9
:104B0000C2F20000FCF7BAFB012085F8246000F037
:104B100081FAFFF759FA1EE00020002400F07AFA2B
:104B2000287C01220DF10F038DF80F0068680178D1
:104B30000F20CDE9003223220123029040F28000B1
:104B4000C2F20000FCF79AFB85F82440FFF73CFA1C
:104B500001E04FF0FF34204604B070BD70B584B062
:104B600040F23C0504464FF0FF30C2F20005A97A3E
:104B7000002975D095F82410002971D1287D60B1E5
:104B8000601E80B2272805D82046FFF723F80020B2
:104B900004B070BD0020FFF71DF84FF47A76B4F52D
:104BA0007A7F4FF0010328BF3446042C98BF0424B9
:104BB000B6FBF4F00DF10E04FF308DF80E00D5E9D0
:104BC0000001427809780F20CDE9004301230290CB
:104BD00040F28000C2F20000FCF750FB00281EBF2C
:104BE0004FF0FF3004B070BD9DF80E000130B6FBF1
:104BF000F0F0E881A97A91B3400880B2BC2801D3D3
:104C000001200FE0622801D302200BE02A2801D303
:104C1000032007E0142801D3042003E00A2834BF4E
:104C200006200520E97A8DF80F00C0B2814216D027
:104C3000D5E9000101230DF10F06827809780F20D4
:104C4000CDE900630123029040F28000C2F200002F
:104C5000FCF714FB002804BF9DF80F00E872002049
:104C600004B070BD2DE9F04184B0044614F0700F1B
:104C700001D0012003E0002C0CBF4020002040F2B6
:104C80003C058DF80E004FF00F0801270DF10E06C0
:104C90000123C2F20005D5E90001827C097840F2C7
:104CA00080008DE8C001C2F20000FCF7E7FA20B1F5
:104CB00000204FF0FF34A87265E09DF80E0004F06C
:104CC000400114F0080F4FF0010300F0BF002873FB
:104CD0004FF0020000EA141040EA111004F0100135
:104CE00080F0060040EA111080F0010108BF80F05A
:104CF00039018DF80E10D5E90001C27C097840F227
:104D000080008DE8C001C2F20000FCF7B7FA20B1C4
:104D100000204FF0FF34A87235E044F00800082866
:104D20002BD095F8230040B3A87C0028014618BF7B
:104D300002218DF80F1095F8221039B16FF07D0126
:104D4000002808BF6FF07F018DF80F10D5E9000132
:104D500001230DF10F07027D09780F20CDE90073C3
:104D60000123029040F28000C2F20000FCF786FAB4
:104D7000002804BF002085F82300AC7200243220F4
:104D80002C75FBF7D1FE204604B0BDE8F081000091
:104D9000F0B585B015460C4601464FF0FF30002DAA
:104DA0001FBF40F23C06C2F20006B27A002A32D09F
:104DB000080A8DF81200C8B28DF813100119706836
:104DC0004289914211D8017830680DF112030F2702
:104DD000027E0220CDE9003040F2800001230297DC
:104DE000C2F20000FCF74AFA18B14FF0FF3005B0EC
:104DF000F0BDD6E900010123427D097840F2800030
:104E0000CDE900540297C2F20000FCF737FA0028FF
:104E100018BF4FF0FF3005B0F0BD00002DE9F04F96
:104E20008FB082460DF13B000DF11A010AAA05ABC5
:104E3000CDE900100DF1220007A9FDF791FF58B14F
:104E400040F21C10C2F200000168013101606FA045
:104E500000F05CFA0120D5E09DF81B00C00701D1ED
:104E60000220CFE00AAE51CE0D9DFBF721FC4FF0A2
:104E70004251FBF7EDF980462046FBF719FC4FF055
:104E80004251FBF7E5F981463046FBF711FC4FF044
:104E90004251FBF7DDF983462846FBF709FC4FF04A
:104EA0004251FBF7D5F9044648464FF04041FBF725
:104EB000CFF921460290FBF7CBF905464046414623
:104EC000CDF81080FBF76CF959460646FBF7C0F9A0
:104ED0002946FBF765F9FBF737FC00F013FF4AF2B0
:104EE00066634FF0C042C4F24C03FBF7C8FAFBF70D
:104EF0003EFCCAF8000058465946FBF751F92146D6
:104F0000CDF80CA08046FBF7A3F94F460546304686
:104F10003946FBF79DF92946FBF742F9FBF714FCEC
:104F20008946029906463846FBF792F905465846E7
:104F30004146FBF78DF901462846FBF783F94FF010
:104F40007E51FBF72DF9FBF7FFFB02460B4630467F
:104F5000494601F01FF94AF266634FF0C042C4F2BD
:104F60004C03FBF78CFAFBF702FCCAF80400384646
:104F70005946FBF76DF9DDF810A026460546314687
:104F80005046FBF765F901462846FBF709F901464B
:104F9000FBF706F9FBF7D8FB804689465046514699
:104FA000FBF756F9054638463946FBF751F90146F5
:104FB0002846FBF7F5F8044658465946FBF748F9EA
:104FC00001462046FBF73EF9044630463146FBF7E2
:104FD0003FF901462046FBF735F9FBF7B5FB0246E2
:104FE0000B464046494601F0D5F84AF266634FF059
:104FF000C042C4F24C03FBF742FAFBF7B8FB03993B
:1050000088600020C0B20FB0BDE8F08F25640D0AA3
:105010000000000010B584B040F23C04C2F200046D
:1050200094F82410E9B1002818BF02208DF80F0071
:105030004FF00F0C0123D4E90001C27B09780DF178
:105040000F008DE8091040F280000123C2F2000039
:10505000FCF714F9002804BF9DF80F00607404B039
:1050600010BDA17A0029FAD000281CBF617C00295C
:10507000F5D1002818BF0120D8E700002DE9F04144
:1050800086B040F2201040F270040025012740F65F
:10509000FF76D12175220123C2F20000C2F2000482
:1050A000C0E90055C0E90255601CCDE9000740F297
:1050B00080000296C2F20000FBF72CFF6178002806
:1050C00018BF3946C8B2012859A008BF0321217072
:1050D000C9B200F01BF9217847F2C900C0F6000000
:1050E00000F014F958A001F015F92078032801D137
:1050F000032598E040F280044FF080080DF10D0088
:10510000D0216B220123C2F200048DF80D80CDE97D
:10511000000702962046FCF7B1F83220FBF704FDA9
:105120000DF10E008DF80E50D0216B220123CDE938
:10513000000720460296FCF7A1F81820D0211B2278
:1051400001238DF80F000DF10F00CDE90007204677
:105150000296FCF793F804A88DF81050D0211C2279
:105160000123CDE9000720460296FCF787F80720C7
:10517000D021192201238DF811000DF11100CDE984
:10518000000720460296FCF779F80220D0211A2267
:1051900001238DF812000DF11200CDE90007204621
:1051A0000296FCF76BF80DF113008DF81380D021F7
:1051B00037220123CDE9000720460296FCF75EF86E
:1051C00005A88DF81450D02138220123CDE900071D
:1051D00020460296FCF752F80DF115008DF8155097
:1051E000D0216A220123CDE9000720460296FCF770
:1051F00045F80DF116008DF81670D0216B220123B1
:10520000CDE9000720460296FCF738F80DF11700AB
:105210008DF81750D0216C220123CDE900072046DC
:105220000296FCF72BF8E8B206B0BDE8F08100BFAB
:105230006465766963655F69643A20202020307870
:1052400025780D0A000000000D000000B0B588B000
:10525000044640F6FF700E210DF1120201230125D4
:10526000CDE90021029040F28000D1213B22C2F220
:105270000000FBF74FFE002844D19DF812009DF876
:10528000131041EA002020809DF814009DF81510AD
:1052900041EA002060809DF816009DF8171041EA51
:1052A0000020A0809DF81A009DF81B1041EA002004
:1052B000E0809DF81C009DF81D1041EA002020812F
:1052C0009DF81E009DF81F1041EA002060819DF8A6
:1052D00018009DF8191041EA002000B2FBF7F6F91A
:1052E00044F2000300220025C4F27503FBF739F9EC
:1052F00044F2D7330022C4F24203FBF719F8FBF75C
:1053000036FAE060284608B0B0BD00000FB4054B87
:1053100010B503A9044A029800F05CF910BC5DF8CE
:1053200014FB0000B131000800000020490050EAE1
:10533000C12018BF04204A0D18BF40F0010040F200
:10534000FF72B2EB515F08BF40F00200012808BFB6
:10535000052070472DE9F0414F1E00EBC7010446C0
:10536000D1E9000115461E4637F006020DD02A4647
:105370003346FBF784F87F1E04EBC703D3E9002311
:10538000FAF7D6FF37F00602F1D1022F25D0042F0D
:1053900013D0062F18BFBDE8F0812A463346FBF72D
:1053A0006EF8D4E90A23FAF7C3FF2A463346FBF71F
:1053B00066F8D4E90823FAF7BBFF2A463346FBF721
:1053C0005EF8D4E90623FAF7B3FF2A463346FBF723
:1053D00056F8D4E90423FAF7ABFF2A463346FBF725
:1053E0004EF8D4E90223FAF7A3FF2A463346FBF727
:1053F00046F8D4E90023BDE8F041FAF799BF01224D
:10540000FBF7CDBAFAF794BF0022134610461146B7
:10541000FBF7A7B8024A00201107FBF7C0BA00004B
:1054200001FDFFFF02E008C8121F08C1002AFAD1DF
:1054300070477047002001E001C1121F002AFBD114
:105440007047000001490860704700000400002018
:105450002DE9FF5F82B00021DDE90430020DDDF8A7
:1054600040B0034318D044F61050A2F2FF3242433A
:105470001514119801281FD0A5EB0B00401C5FEA02
:10548000000A4FF000064E4FDFF83891B046504604
:1054900015D5CAF1000413E0119801244AA301288C
:1054A00001D16FEA0B010298119AC0E90031C0E9FD
:1054B000024206B0BDE8F09FCBF10000DFE70446F2
:1054C0000021404A491842EB0450CDE9001012E097
:1054D000E00707D032463B4640464946FAF7CFFF41
:1054E0008046894632463B4610461946FAF7C7FFC2
:1054F00006460F466410002CEAD1DDE90401DDE91F
:105500000023BAF1000F06DAFAF7B9FF42464B461C
:10551000FAF7B5FF05E0FBF724F842464B46FBF7E8
:1055200020F804460E460022284BFBF767FA03D802
:105530004FF0FF30014607E00022254B2046314660
:10554000FAF7F6FEFBF742FA102409E0002C0ADB1A
:105550000A220023FBF73DF9039B30321A55641EE3
:1055600050EA0102F2D1641C039AC4F111031444FD
:10557000119A012A03D0012208430DD10AE0084301
:1055800004D000204FF0110B119072E7A3EB0B0534
:105590006D1E0DE05B4504DD4FF0000205F10105D5
:1055A00004E003DA4FF00002A5F10105002AECD077
:1055B00002981199C0E90231C0E9004579E700007D
:1055C000000014400000F03F300000000000F043F5
:1055D0000000E03F2DE9FF4F95B09B468946064607
:1055E00000250FE2252877D100242746F84A01211B
:1055F000059400E0044316F8013F203B01FA03F054
:105600001042F7D130782A2811D06FF02F0330786C
:10561000A0F13002092A16D8059A44F0020402EBE0
:10562000820203EB42021044761C0590EFE759F822
:10563000042B0592002A03DA504244F400540590EA
:1056400044F00204761C30782E2816D116F8010F8B
:1056500044F004042A280DD06FF02F023078A0F116
:105660003003092B09D807EB870302EB4303C71864
:10567000761CF3E759F8047B761C30786C280FD041
:1056800006DC4C2817D068280DD06A2814D104E015
:10569000742810D07A280FD10DE044F400140AE0E9
:1056A00044F4801401E044F440147278824202D140
:1056B00004F58014761C761C307866280BD013DC39
:1056C000582877D009DC002875D04528F6D0462820
:1056D000F4D047281AD19DE118E0632835D064281A
:1056E00079D0652812D195E1702873D008DC67283D
:1056F000F1D069286FD06E280DD06F2806D1B5E0A3
:1057000073282CD0752875D0782874D05A461799EC
:1057100090476D1C75E1C4F30250022809D003289C
:105720000DD0D9F8001004280DD00D6009F104093E
:1057300067E1D9F80010EA17C1E90052F6E7D9F895
:1057400000100D80F2E70D70F0E719F8041B8DF8DA
:10575000001000208DF80100EA46012003E059F80E
:1057600004AB4FF0FF3061074FF0000102D40DE0B1
:1057700008F101018846B9420FDA8045F8DB1AF8D2
:1057800008100029F4D108E008F10101884681429F
:10579000FADB1AF808100029F6D105985B46A0EB51
:1057A000080721463846179A00F094FA284400EB7F
:1057B000080507E04DE029E10DE01AF8010B5A4613
:1057C00017999047B8F10108F7D25B462146384651
:1057D000179A13E142E00A220092C4F302524FF0FA
:1057E000000A022A08D059F804CB032A4FEAEC71C8
:1057F0000AD00DE029E02AE009F1070121F00702B3
:10580000F2E802C1914609E00FFA8CFC4FEAEC7114
:10581000042A03D14FFA8CFC4FEAEC71002907DA15
:105820000A460021DCF1000C61EB02012D2202E0AE
:10583000220504D52B228DF80420012203E0E20783
:1058400001D02022F7E7904659E00A2102E0102219
:105850000DE010214FF0000A00910BE010224FF0F4
:10586000000A44F004040827009203E008224FF0E5
:10587000000A0092C4F30252022A05D059F804CB60
:105880000021032A08D009E009F1070121F00702ED
:10589000F2E802C1914605E01FFA8CFC042A01D10E
:1058A0000CF0FF0C4FF00008220728D5702806D016
:1058B000009B83F0100353EA0A0305D00EE0402258
:1058C0008DF80420012208E05CEA010206D03022B3
:1058D0008DF804208DF8050002229046009B83F08D
:1058E000080353EA0A030AD15CEA010201D1620704
:1058F00005D530228DF804204FF001087F1E58286E
:1059000004D034A003900EA802900DE036A0F9E771
:1059100053466046009AFAF75CFF84460398825C1F
:105920000298401E029002705CEA0100F0D10298D9
:1059300006A9081A00F1200A600702D524F4803471
:1059400000E00127574502DDA7EB0A0000E0002038
:1059500000EB0A01009005984144401A0590E003CD
:1059600006D45B462146179A059800F0B3F9054422
:10597000002706E001A85A46C05D179990476D1CA4
:105980007F1C4745F6DBE0030CD55B462146179AA2
:10599000059800F09FF9054404E030205A46179915
:1059A00090476D1C0099481E00900029F5DC08E026
:1059B000029802995A460078491C0291179990471B
:1059C0006D1CBAF10001AAF1010AF1DC65E10000E9
:1059D00009280100303132333435363738396162C5
:1059E0006364656600000000303132333435363789
:1059F00038394142434445460000000000F058F960
:105A00000544761C307800287FF4ECAD19B02846A8
:105A1000BDE8F08F620700D4062709F1070222F0E3
:105A2000070CFCE80223E14603F000485FEA080C9B
:105A300002D00FF2702C0DE05FEA045C02D50FF289
:105A4000682C07E05FEAC47C02D00FF2602C01E012
:105A5000AFF2700C4FF0FF3823F00043CDF850C088
:105A600065280CD006DC452809D046281DD04728DB
:105A70003DD13DE0662818D067287ED138E000216E
:105A8000112F01DB112000E0781CCDE9000106A9EF
:105A90000EA8FFF7DDFCDDE90F010E9A039100214E
:105AA000009207F1010A04914DE04FF00040009789
:105AB000CDE9011006A90EA8FFF7CAFCDDE90F0227
:105AC00003920E9B11990022DDF80CA00093049222
:105AD00011B9791C00EB010AB7EB0A0004D4C0F13C
