:020000040800F2
:1000000070080020E9010008C13400089D2A00089A
:10001000BD340008D1180008D534000800000000E5
:10002000000000000000000000000000C9340008CB
:10003000D518000800000000C5340008CD340008C1
:10004000030200080302000803020008030200087C
:10005000030200080302000803020008030200086C
:10006000030200080302000803020008030200085C
:10007000030200080302000803020008030200084C
:10008000030200080302000803020008030200083C
:10009000030200080302000803020008030200082C
:1000A000030200080302000803020008030200081C
:1000B000030200080302000803020008030200080C
:1000C00003020008030200080302000803020008FC
:1000D00003020008030200080302000803020008EC
:1000E00003020008030200080302000800F002F8FF
:1000F00000F06BF814A696E8000CB244B344DA455D
:1001000001D100F062F8BAE80F000FA696E83000BF
:10011000A5EB040504EB0607AAEB0704A7F101070A
:100120004FEA15154FEA3414A4F10104AC4201D38F
:1001300000F04BF813F0010F18BFFB1A43F0010356
:1001400000F001F8DBE71847088D0000288D00005B
:10015000103A24BF78C878C1FAD8520724BF30C8F3
:1001600030C144BF04680C60704700007047000055
:100170000023002400250026103A28BF78C1FBD8B0
:10018000520728BF30C148BF0B607047662907F08F
:10019000C086642900F0B680782900F0EF80002046
:1001A00070471FB59DE8030001F05EF900F0DAFC2E
:1001B00004000020002106F089FDE06000F0EEFD63
:1001C0001FBD10B500F053FE10BD00F087FE1146B4
:1001D000FFF7E7FF03F0FEFF01F07EF803B4FFF73F
:1001E000F0FF03BC01F0BEFA094880470948004708
:1001F000FEE7FEE7FEE7FEE7FEE7FEE7FEE7FEE7D7
:10020000FEE7FEE704480549054A064B7047000033
:10021000D1340008ED0000087002002070080020B2
:10022000700400207004002053EA020C23D010B5A3
:100230004C1084EA530404D54042C1F1000138BF98
:10024000491E1B4204D55242C3F1000338BF5B1E56
:1002500000F08BF914F0804F04D04042C1F100014E
:1002600038BF491E14F0004F04D05242C3F10003BE
:1002700038BF5B1E10BD13B540424FF0000070EB5D
:100280000104B8BF012001F0004100281CBF6FF03D
:1002900000414FF0FF30AFF300801CBD0FB40449A4
:1002A00010B503AA029800F04BFC10BC5DF814FBDB
:1002B0009C00002070B5044685690068C10601D520
:1002C000302600E02026C00707D070BDD4E9012108
:1002D00030469047206A401C20626D1EF6D570BDE6
:1002E00070B5044685690078C00707D170BDD4E9B0
:1002F000012120209047206A401C20626D1EF6D507
:1003000070BD00002DE9F0410646002410687529F3
:10031000314616A510D0AFF30080002802DA404223
:1003200013A507E031688A0701D512A502E0490745
:1003300004D511A5012401E0AFF3008000210A22B9
:1003400006F1240709E0B0FBF2FCB0FBF2F302FB7C
:100350001C00303078541846491C0028F3D123463D
:100360002A463046BDE8F04100F082B900000000A6
:100370002D0000002B0000002000000070B5044696
:100380000D4621461068AFF300802188090502D58B
:100390000F4A7A4402E00E4A7A440E32002104F1F8
:1003A000240305E000F00F060009965D5E54491C29
:1003B0000028F7D120780023000704D5702D02D043
:1003C00009B1022311322046BDE8704000F050B957
:1003D000707C00002DE9F05F894604464FF0000A6A
:1003E000DFF824B1FB44C0F820A02046E16888472C
:1003F00000287DD0252806D0D4E901219047206A25
:10040000401C2062F1E700255F462046E1688847EE
:100410002028064607DB312E05D2B81910F8200C2B
:1004200008B10543F1E7A80701D525F00405C4F894
:100430001CA00027C4F818A02A2E09D0304606F0C8
:10044000F3F838B304EB8708303EC8F8186019E0B9
:1004500059F8041B204604EB87029161E168884744
:10046000012F064618D1E069002820DA25F0200582
:100470001DE0D8F8180000EB800006EB4000303893
:10048000C8F818002046E1688847064606F0CCF810
:100490000028EED1012F0AD02E2E08D12046E16887
:1004A00088477F1C0646022F45F02005C4DBA06963
:1004B000002803DA404245F00105A061E80701D0B9
:1004C00025F01005A6B1A6F14100192802D8203662
:1004D00045F400654A463146204625604D46FFF703
:1004E00055FE60B1012807D0ED1D25F0070000E0A2
:1004F00007E000F1080978E705F1040975E73046DF
:100500007AE7206ABDE8F09F467C000040EA0103DC
:1005100010B59B070FD1042A0DD310C808C9121FAC
:100520009C42F8D020BA19BA884201D9012010BDE6
:100530004FF0FF3010BD1AB1D30703D0521C07E0B3
:10054000002010BD10F8013B11F8014B1B1B07D117
:1005500010F8013B11F8014B1B1B01D1921EF1D188
:10056000184610BD70477047704753EA020C00F000
:1005700069802DE9F04B4FF00006002B1FBFB3FA46
:1005800083F503FA05F424FA05F65E4012BF16431C
:10059000B2FA82F502FA05F4C5F120051EBF22FA6F
:1005A00005FC44EA0C04203556EA044C4FEA144496
:1005B00018BF641C4FF000084FF00009904271EB27
:1005C000030C39D3002919BFB1FA81F701FA07F6F4
:1005D000B0FA80F700FA07F6C7F120071EBF20FA2D
:1005E00007FC46EA0C062037B6FBF4FCA7EB050730
:1005F000103F07F01F0BCBF120062CFA06F60CFA81
:100600000BFB44BFB3460026202FA4BF5E464FF02D
:10061000000B5BEA060C08BF4FF0010B19EB0B094E
:1006200048EB0608ABFB027C06FB02CC0BFB03CCC1
:10063000C01B71EB0C01C1E70B4602464146484620
:10064000BDE8F08B13B5084318BF4FF0FF300146EB
:10065000AFF30080BDE81C40704710B500F086FA8B
:10066000006810BD10B5044600F080FA046010BDAB
:100670002DE9F0470D4699469246044600F12408BC
:100680000168880604D5E06921F01001216000E0CE
:100690000120A84201DD471B00E00027A1697A196B
:1006A00002EB0900081AA0612078C00602D4204697
:1006B000FFF700FE002608E0D4E901211AF8060041
:1006C0009047206A401C761C20624E45F4DB20785F
:1006D000C0060AD52046FFF7EDFD06E0D4E901216A
:1006E00030209047206A401C2062381EA7F1010785
:1006F000F4DC07E0D4E9012118F805009047206AEE
:10070000401C2062281EA5F10105F3DC2046FFF7FE
:10071000E7FD2078000602D50220BDE8F087012021
:10072000FBE72DE9FF4F0C461E464FF0FF378BB01D
:10073000D2E90001DDF860800A908A46C1F30A55CB
:1007400005B93D46002108464FF00000BAF1000F00
:1007500000F4400005DA00EB80004FF4400101EAAC
:1007600050004FEA9059B9F1010F00DDB9460A98DF
:1007700050EA4A000ED044F61050A5F2FF3545432A
:100780002F14B8F1000F1ED07542291E1EDDC9F1CD
:1007900000021CE0B8F1010F4FF0000001D0302141
:1007A00003E0F24305E02154401CB042FBDB30463D
:1007B0000022002121540B99C1F80880C1E90020D2
:1007C0000FB0BDE8F08FBD1B6D1CDEE74A4600DAB6
:1007D000694206A800F06CFA06AB93E8070003AB89
:1007E00083E8070050460A9905F0DAFA8DE8070019
:1007F000A0F500501F3800900398002D0ADD42F24A
:100800001F014A460844002303A90390684605F0E7
:1008100043FD09E0A0F500504A461F38002303A914
:100820000390684605F04DFD8DE807000004000CBC
:1008300003D04FF0FF30410800E01046B8F1000F40
:1008400003D00022009215461EE0751E05D400F06C
:1008500091F9303262556D1EF9D5B3460122084335
:1008600002D000227F1C04E02078302801D1002231
:100870007F1E002A099784D01DE0112D07DA00F0B1
:1008800079F9303262556D1C50EA0102F5D1084306
:1008900002D00098C8B10EE00021681E05E0235C7C
:1008A000625C63542254401E491C8142F7DBAB4614
:1008B000A81B401E0990002004F80B000B98099A11
:1008C000C0F80880C0E9002B7AE711264FF0000835
:1008D00057E72DE9F04F88460446D21D22F0070164
:1008E00091B0D1E90001CDE90A0105F021FE0246EF
:1008F0000B98C00F01D02D2007E02068810701D59B
:100900002B2002E0202101EAC000032A099001D037
:10091000072A05DB03464146204600F089F90BE132
:100920002078800601D5E06900E00620B8F1650F67
:10093000814606D0B8F1660F18D0B8F1670F70D1B4
:1009400031E00020B9F1110F009001DB112301E02B
:1009500009F101030AAA01A90CA8FFF7E2FEDDE9EB
:100960000C70002609F10105834647E001204B4643
:1009700000904FF000470AAA01A90CA8FFF7D1FE8A
:10098000DDE90DB00C995D46002610B909F10100B2
:100990000D18B9EB050003D4C0F1FF3609F10105CC
:1009A000A5EB09002BE0B9F1010F01DA4FF00109C5
:1009B0000020B9F1110F0090484601DD112300E03D
:1009C00003460AAA01A90CA8FFF7ABFEDDE90C70EB
:1009D0004D4600268346207800070AD4AB4500DA4E
:1009E0005D4601A8012D04DD411911F8011C3029D3
:1009F00007D04F4502DA17F1040F04DA01208246CE
:100A00000FE06D1EEEE7002F02DCED1B3E4403E01D
:100A1000781CA84200DD7D1CB81B00F1010A4FF0D4
:100A200000472078000703D4AA4501DB4FF0FF3AC6
:100A30000021B7F1004F0DF143088DF8431024D089
:100A400002202B23002F01DA7F422D230A21021ED0
:100A5000A0F1010000DC5FB197FBF1FC97FBF1F224
:100A600001FB1C7C17460CF1300C08F801CDEEE7B9
:100A7000A8F1010003702188090501D5452100E096
:100A80006521A0F1010800F8011C09980FA9A1EB4C
:100A90000807FF1D00B10120411901EBEA70A169AF
:100AA0003844081A401EA0612078C00602D42046AF
:100AB000FFF700FC099828B1D4E901219047206A8A
:100AC000401C20622078C00622D52046FFF7F2FBAA
:100AD0001EE0002E04DBB34502DD01A8805D00E0CE
:100AE0003020D4E901219047206A401C2062761C06
:100AF000AAF101005FEA000A0AD100F033F8C068E9
:100B00000168405CD4E901219047206A401C2062C2
:100B1000281EA5F10105DCDC07E0D4E9012118F865
:100B2000010B9047206A401C2062381EA7F1010784
:100B3000F3DC2046FFF7D4FB032011B041E60000B0
:100B4000074B70B50D467B4400F05FF8044628461D
:100B500000F020F910B14FF0FF3070BD204670BD9D
:100B60001B61000000487047640100200048704786
:100B70004401002030B5B0F10A0271F100034FEAE0
:100B8000900E4EEA817EB0EB0E0061EB91014FEAD0
:100B9000101E4EEA017E10EB0E0041EB11114FEAE0
:100BA000102E4EEA016E10EB0E0041EB11214FEAC0
:100BB000104E4EEA014E10EB0E0041EB1141401871
:100BC00041F100014FEAD00040EA41704FEAD10103
:100BD0004FEA810444EA907410EB800544EB010471
:100BE0006D1944EB0404521BA3414FF0000348BFAE
:100BF0000A3200D530BD401C41F1000130BD00007B
:100C000001694A1C02610878704700B58FB0CDE9D0
:100C100001310021059105497944CDE903101146C0
:100C20006846FFF7D7FB0FB000BD0000E5FFFFFFF0
:100C30002DE9F0411F46044603260168072A01F406
:100C4000006004DB08B116A505E016A503E008B1B5
:100C500015A500E015A521F010002060A069C01EB8
:100C6000A0610FB1401EA0612046FFF723FB4FB1EA
:100C7000D4E9012138469047206A401C2062C01CFC
:100C8000206206E0206AFAE7D4E9012115F8010B99
:100C90009047761EF8D22046FFF722FBBDE8F08190
:100CA0004E414E006E616E00494E4600696E660010
:100CB0002DE9F047814616468AB0354878440DC87C
:100CC0008DE80D0032487844801C03AC0DC884E8E0
:100CD0000D0041F69B300844372190FBF1F290FB68
:100CE000F1F5A5F1800501FB12041B3C02D564421D
:100CF000012000E00020DFF898A080460027FA4499
:100D0000AAF1BE0A0EE0E0070AD03246684607EBB9
:100D1000470101230AEB810105F0D3FA8DE80700B2
:100D200064107F1C002CEED1194F7F44AE3F19E0B8
:100D3000E80715D007EB04100DF1180A90E80E0033
:100D40008AE80E00C068F04201D198190890324636
:100D5000012306A903A805F0B4FA03AB83E8070052
:100D60006D10641C002DE3D14FF00103324669463B
:100D7000B8F1000F03A802D005F08EFA01E005F0EB
:100D8000A0FAC9E90001C9F808200AB0BDE8F08757
:100D9000EC740000007B00F08000704710B5424802
:100DA000542100F0A9FA4148542100F0A5FA404826
:100DB000542100F0A1FA3F493B483C4A3F4B0860B0
:100DC0003D490A603A491960531C0365481C106587
:100DD000012008653B48344A39A1784400F0DEF927
:100DE00020B9384878440A3800F07FFA37482F4A4B
:100DF00035A1784400F0D2F920B9344878440A3853
:100E000000F073FA32482A4A2FA1784400F0C6F95C
:100E100020B92F4878440A3800F067FA4023224866
:100E2000DC000021224600F096F920B125487844E4
:100E3000543800F05AFA1D4822464023002100F0A1
:100E40008AF920B121487844543800F04EFA184805
:100E500022461023002100F07EF9002806D01C480D
:100E60007844BDE81040563800F03FBA10BD104835
:100E700070B5006D20F001040B4800F007FA0B4834
:100E800000F004FA0A4800F001FA09E0206D20F0B1
:100E90000105204600F0FAF9204600F044F82C46FF
:100EA000002CF3D170BD0000480000209C00002001
:100EB000F0000020000000200400002008000020B6
:100EC00072000000E673000077000000D27300009B
:100ED000BE73000000487047440100207546FFF7CC
:100EE000F9FFAE4605006946534620F007008546E7
:100EF00018B020B5FFF786F9BDE820404FF0000696
:100F00004FF000074FF000084FF0000BAC46ACE884
:100F1000C009ACE8C009ACE8C009ACE8C00921F0E0
:100F200007018D46704770B50446051F00F080FA32
:100F30000068002C14BF446870BD002C18BFAC4280
:100F40003CBF20466468F8D301680A18AA4218BF5B
:100F5000456003D12A68054611440160286841199B
:100F6000A1421CBF6C6070BD616869602168084463
:100F7000286070BD2DE9F05F054617460C46C8682D
:100F800020F4201040F48000C860800602D5084696
:100F900000F0A7FBE06841F282014FF0FF3A014008
:100FA000022903D0204600F039FBB9E000F42041CB
:100FB000B1F5004F0FD1C00306D56168E06A8842E1
:100FC00000D80846606006E02069E0626060606901
:100FD00000F027FAA061A0680022EEB200280DDA26
:100FE000E1688B050AD4C043A06041F490302260D0
:100FF000E0606068411C61600670AAE0E0689146AC
:10100000226040F40050E060206978BB606900F025
:10101000FAF904F124054FF00108A8B1A08910F4F1
:10102000407F08D0E06900F04EFA206118B1E06816
:1010300040F4006017E0C4F81C802561E06820F4EB
:10104000407040F480600EE0E06900F03CFA002857
:101050002061F0D0E06840F4006010F4407FE06070
:1010600002D140F48070E06020696060E06825692A
:101070006FF0010BC1051ED56168E06A884200D897
:101080000846411B04D02246284600F0D1FAE8BBAE
:101090001FB1E562C4E9015959E0681CE062606073
:1010A000E069401EA060E06840F48030E0603046B7
:1010B0002E70BDE8F09F17B100F480320AE060683E
:1010C000411C61600670E0680A2E40F48030E060E8
:1010D00006D00022E16A6068814203D90B4602E033
:1010E0000122F7E70346B4F80CC05B1B5FEA4C5CD7
:1010F00004D4D4F81CC09C4500DD02B3814200D862
:101100000146002BA1EB0008E56200E008E0C4E91D
:10111000015907DD22461946284600F089FA08B130
:101120005046C6E7B8F1000F09D0A169E5626560D5
:10113000A1EB0800A061E06840F01000E06047B15A
:101140006168A069E562491B08446560A061584672
:10115000AFE73046ADE770B5C468A50713D06502A8
:1011600011D4B2F5807F09D0B2F5007F06D0B2F578
:10117000806F08D1012300F1240106E05D1E6FF0AD
:101180007F46B54201D3012070BD0161C36141605A
:1011900024F470611143C160002070BD2DE9F0415D
:1011A0000C461646070047D0104600F06FF820782E
:1011B000611C61280AD0722802D077283CD102E055
:1011C0000125002405E00225042402E0082448F259
:1011D000020511F8010B2B2806D0622809D011F85E
:1011E000010C74280AD00BE045F0030544F002041A
:1011F000EFE745F0040544F00104EAE744F0100489
:101200003846214600F0E0F8411C15D0002131613C
:1012100071604FF40071F560F1617061200704D5D1
:1012200030460222002100F07DF9306D40F00100CF
:1012300030653046BDE8F0810020FBE72DE9F04144
:101240000D460646104C206DC10704D0410804D05D
:1012500020F00104F7E722460EE0542000F033F9B5
:1012600007000ED0206D47F001010843542120658E
:10127000384600F041F83A4629463046BDE8F0418C
:101280008CE70020D6E70000480000202DE9F04759
:1012900004464FF0FF380026C568D4E90497A80734
:1012A00018D0204600F0FAF9384600F097F80028E8
:1012B00000DA4646280502D54846FFF734FE4C21A1
:1012C000204600F019F8206D20F00100206530461E
:1012D000BDE8F0874046FBE710B50446AFF3008059
:1012E0002046BDE81040FEF779BF10B500F020FAA7
:1012F000BDE8104000F016BA4FF0000200B51346EA
:1013000094469646203922BFA0E80C50A0E80C5025
:10131000B1F12001BFF4F7AF090728BFA0E80C50D6
:1013200048BF0CC05DF804EB890028BF40F8042BCF
:1013300008BF704748BF20F8022B11F0804F18BF3C
:1013400000F8012B704700004FF0013C50F8042BCF
:1013500051F8043B9A4221D1A2EB0C03934313EAC8
:10136000CC1317D150F8042B51F8043B9A4215D1F5
:10137000A2EB0C03934313EACC130BD150F8042BCC
:1013800051F8043B9A4209D1A2EB0C03934313EAB0
:10139000CC13DBD04FF00000704700BFD01A01BA69
:1013A000B1FA81F101F0180122FA01F0CB40DBB271
:1013B000C0B2C01AC1F120012CFA01F3D11A914335
:1013C00011EAC311E6D170470EB5CDE9000100F076
:1013D00031FA029069460120ABBE0EBD08B56946E0
:1013E00000900220ABBE08BD1FB58DE8070069461E
:1013F0000520ABBE04B010BD1FB58DE80F006946D7
:101400000620ABBEF6E708B5694600900920ABBEE2
:1014100008BD1CB5CDE9000169460A20ABBE1CBD64
:10142000704708B5694600900C20ABBE08BD0000AF
:10143000004870474C010020704770477047704764
:1014400038B504460A4600206946AFF300800028FC
:1014500008BF38BD02460099204600F090F90120EF
:1014600038BD012000F0DFB9F8B5AFF300800546C4
:1014700000200C460C2000BF0646A819A0420DD93A
:10148000324669460020AFF30080070008BF00F035
:10149000CAF90098A04218BF0546C419FFF7C8FF53
:1014A00005600746F01D20F007004619284600F0A9
:1014B00060F9B44208BFF8BDA21B31463868BDE8E8
:1014C000F84000F05CB970B50646FFF7B1FF05685B
:1014D00006F10B0020F00704B4429CBF002070BD51
:1014E0002B466A68BAB11068A04210D304F1080113
:1014F00088423CBF5068586007D35168101941605A
:101500001168091B016058601460101D70BD1346FE
:101510005268002AE7D121462846FFF791FF0028AC
:10152000DED170BD2DE9F041044616460D464769EF
:10153000007B80072ED03846FFF765FF50BB3EB3D7
:10154000012E02D0022E25D104E0204600F031F910
:1015500005441DE03846FFF764FFE168002841F0CC
:101560001001E16005DA204600F058F80120BDE8DE
:10157000F081C9030BD56268E16A914200D8114637
:10158000A26911442269891A814200DD0846054496
:10159000002D01DA0220EAE7E16A6068E268814230
:1015A00006D29103E06203D522F4003141F010022B
:1015B000A6690027AE4213DCE16A814201D90B46DD
:1015C00000E0034603EB060C2369ACEB030CAC45CF
:1015D00006DD814201D98C4600E084469C4505D158
:1015E000A760276042F02000A5620DE0AD1BE66910
:1015F000AE1B8142A66000D90846C01A281A206096
:101600005819606022F0200003490840E060002083
:1016100084F84870ABE70000BFCFD7FFC16821F462
:10162000001141F08001C1600021816001607047BC
:101630002DE9F74F15460C464FF0FF3B3848D76869
:10164000D2F814A0074209D05046A969FFF7E1FE7D
:10165000002819DB3248C0430740EF604FF00049D3
:101660006FF000484C4501D3464600E026460099FD
:101670003B4650463246FFF7B7FEA96920F00042CC
:10168000B21A1144A96128B12846FFF7C7FF58468E
:10169000BDE8FE8FA41BE5D10020F9E770B5044634
:1016A0000569C06A6168884200D80846E16821F48B
:1016B0002011E160C90312D5A84208D02246411B7F
:1016C0002846FFF7B5FF10B14FF0FF3070BD002086
:1016D000E562C4E90150E06820F48030E060002059
:1016E00070BD10B50446C06820F02000E060A16A1B
:1016F000A06988420DD02046FFF7D0FFE06820F4B3
:10170000405040F01000E060A06AA0612069E062F3
:10171000606044F24001E0688843E06010BD000072
:1017200010000200002801D000F01CB87047000033
:1017300010B5014602A000F05DF8012010BD0000C8
:1017400053494752545245443A2052656469726580
:1017500063743A2063616E2774206F70656E3A205F
:101760000000000001491820ABBEFEE72600020081
:10177000704700210160416070470C2070470346AC
:1017800040688C46002818BF88423CBF034640682A
:10179000F8D318681844884207D00CF1030020F0F1
:1017A0000700001D411A521A0146081D0A60FFF782
:1017B000BABB10B50146C268900703D0900607D5A2
:1017C000886A0AE0FFF7D2F901210160881E10BD86
:1017D0008B69486818440B69C01A91F848301BB1EE
:1017E00091F84910401A10BD1103FCD50028FADD0C
:1017F000401E10BD70B505460C460A2000E06D1C69
:1018000000F037F835B128780028F8D102E0641CE0
:1018100000F02FF814B120780028F8D1BDE870400E
:101820000A2000F026B810B500F02AF8BDE81040F4
:10183000FFF778BF10B5431C02E010F8011B71B12F
:101840008107FAD14FF0013202C88C1A8C4314EA96
:10185000C211F9D0C01A0A0603D0C01E10BDC01AAA
:1018600010BD0A0401D0801E10BD0902FCD0401E2C
:1018700010BD08B569468DF800000320ABBE08BD59
:1018800010B5012805D0002103A0FFF7B3FF012008
:1018900010BD09A1F8E7000053494752544D454D8A
:1018A0003A204F7574206F662068656170206D6501
:1018B0006D6F7279000000003A2048656170206DFC
:1018C000656D6F727920636F7272757074656400F4
:1018D000FEE7000070470000EFF3108072B600BF13
:1018E000FEE70000B0B5044600F01EF9054640F2E0
:1018F0000C00C2F200000078611C18BF044400BF55
:1019000000F012F9401BA042FAD3B0BD2DE9F04F10
:1019100082B00E68002E00F0FD8041F20042C4F259
:101920000102042340F2004E904208BF03234FF609
:10193000FF7CC4F2010E009300240123C1F2100CBD
:101940004FF0000A4FF0000944E000BF012704F007
:101950000C030F229A402BEA020207FA03F34FEA24
:101960009A051A4346F825204E6840F20C45F202CB
:10197000DEF8082054BF22EA080242EA0802C4F254
:101980000105CEF808202A68B30254BF22EA0802F3
:1019900042EA08022A60B303DEF8042054BF22EAB8
:1019A000080242EA0802F303CEF80420DEF8002021
:1019B0004FF0010354BF22EA080242EA0802CEF8BF
:1019C00000200E680AF1010A36FA0AF204F1040452
:1019D00000F0A08003FA0AFB16EA0B08F1D04E686B
:1019E000664511DC122E55D8DFE806F0340A44486B
:1019F000545454545454545454545454544C500007
:101A0000D1F80C9046E000BF4FF6FF72C1F2210200
:101A100096420FDC0022C1F2110296421AD0002237
:101A2000C1F21202964215D00022C1F22102964262
:101A300010D02FE00022C1F2220296420AD00022EA
:101A4000C1F23102964205D00022C1F23202964222
:101A500020D100BF8A684AB1012A14BFC0F814B06F
:101A6000C0F810B04FF0080914E000BF4FF00409AF
:101A700010E000BFCA6802F108090BE04FF000094E
:101A800008E000BFCA6802F1040903E0CA6802F175
:101A90000C0900BF22460646B8F5807F24BF203AD5
:101AA000043637680F25954027EA050509FA02F242
:101AB0002A433260CA79D2067FF583AF41F2180318
:101AC000C4F202031A68AEF57E7642F001021A6093
:101AD0001A6802F001020192019A2AF0030256F8F4
:101AE00002B040F60002C4F20102904210D040F66B
:101AF0000042C4F2010290423FF428AF41F20002DA
:101B0000C4F20102009F904208BF02271FE700BFF6
:101B100000271CE702B0BDE8F08F0000002A08BFD4
:101B2000090401617047000040F26820C2F2000021
:101B300000687047002804BF01207047F0B581B0ED
:101B4000044690F83D0028B9002084F83C00204667
:101B500000F0FEFA242084F83D002068016821F09E
:101B600001010160016841F400410160016821F454
:101B70000041016000F0A4FC636848F2A16CC0F26F
:101B8000010C40F60011C0F23D0163453CBF48F234
:101B90008041C0F21E01884202D2012001B0F0BD96
:101BA0004DF68361C4F21B31A0FB01122168970C32
:101BB000D1F804E04FF496762EF03F0545EA9245C1
:101BC0004D60774348F638160D6AC0F24106A7FB10
:101BD000067625F03F07634538BF960C721C3A43E2
:101BE0000A62CA6948F2A0664CF6FF77C0F20106A5
:101BF000B34222EA07020BD801385B00B0FBF3F0D6
:101C000001306FF31F30042898BF04201BE000BF91
:101C1000A768013857B119277B43B0FBF3F00130B7
:101C20006FF31F3070B100F5804007E003EB430312
:101C3000B0FBF3F001306FF31F3018B100F5004036
:101C400001E000BF01201043C8610868D4E9072300
:101C500020F0C000104318430860886848F2FF3243
:101C600004F10C0790438CCF18431043A669886099
:101C7000C86820F0FF0038433043C860086840F06F
:101C80000100086000202021206484F83D102063BA
:101C900084F83E0001B0F0BD2DE9F04F85B0044658
:101CA0000020994616460F460490FFF73DFF94F832
:101CB0003D10202927D10546206800BF816989078A
:101CC0001CD5FFF731FF411B20681A29F6D3816923
:101CD0008907F3D500202021206384F83D1084F883
:101CE0003E00206C04F13C0A40F0200020640220F9
:101CF00000218AF8001005B0BDE8F08FA2461AF85E
:101D00003C1F012904D1022005B0BDE8F08F00BFBF
:101D100001228AF800200368DDE90F180E9ADB071C
:101D200003D1036843F001030360036823F40063F5
:101D30000360222084F83D00402084F83E0000200B
:101D4000206462626185608D394620850020CFF66F
:101D5000FF70E062204632464B46CDE9008500F038
:101D60009FFE18B1012005B0BDE8F08F208D02283C
:101D700010D0012824D0002838D1002003902068FA
:101D800041690391816903910399016841F40071EC
:101D9000016037E02068016841F400610160EFF301
:101DA000108072B600200390206841690391816918
:101DB00003910399016821F48061016062B621E01A
:101DC0002068016821F480610160EFF3108072B631
:101DD0000020039020684169039181690391039970
:101DE000016841F40071016062B60BE0206801688F
:101DF00041F4806101600021039141690391806990
:101E000003900398208D002800F0D480042740F22E
:101E100014094BF2895BC0F20107C2F20009C1F25A
:101E2000F84B232617E000BF204641462A4601F022
:101E3000D5F8002896D12068616A00690870606A48
:101E4000218D01306062481E2085618D01396185D8
:101E5000010400F0AF8080B2032867D8022800F0A8
:101E600089800128E0D0204639460022434600956B
:101E700000F062FF00287FF475AF2068016821F44C
:101E800080610160EFF3108072B62068616A0069BA
:101E90000870606A218D0130013960622185618D91
:101EA00001396185D9F80010C908A1FB0B12110A8C
:101EB000714304910499013904910499002900F0B7
:101EC000858021684A6952071ED40499013904911A
:101ED0000499002900F07A8021684A69520713D4D6
:101EE000049901390491049900296FD021684A6945
:101EF000520709D40499013904910499002965D045
:101F000021684A695207D5D50A6842F400720A600E
:101F100009690170606A218D01306062481E208568
:101F2000608D0138608562B685E700BF2046414676
:101F30002A4601F053F800287FF414AF2068616A44
:101F400000690870606A2268411C208D6162013856
:101F50002085638D013B638553695B077FF578AF0F
:101F600080B2032803D1106820F4806010601069EB
:101F700064E700BF2046394600224346009500F042
:101F8000DBFE00287FF4EEAEEFF3108072B620681F
:101F9000616A026842F40072026000690870606A57
:101FA000218D01306062481E2085608D013860857A
:101FB00062B640E7202084F83D00002084F83E000F
:101FC00000218AF8001005B0BDE8F08F0020202124
:101FD000206384F83D1084F83E00206C40F020001F
:101FE000206462B6012000218AF8001005B0BDE827
:101FF000F08F00002DE9F04383B0994616460F4656
:102000000446FFF791FD94F83D10202924D10546A0
:10201000206800BF816989071AD5FFF785FD411B3C
:1020200020681A29F6D381698907F3D50020202179
:10203000206384F83D1084F83E00216C41F02001BB
:10204000216484F83C00022003B0BDE8F08300BFA7
:1020500094F83C10012903D1022003B0BDE8F083BD
:10206000012284F83C200368DDE90B180A9ADB079B
:1020700003D1036843F001030360036823F40063A2
:102080000360212084F83D00402084F83E000020B9
:10209000206462626185608D394620850020CFF61C
:1020A000FF70E062204632464B46CDE9008500F0E5
:1020B00081FD18B1012003B0BDE8F083208D98B9EF
:1020C000204641462A4600F0D9FD88B3206C0428FA
:1020D000F0D12068016841F400710160012003B073
:1020E000BDE8F0830004EBD0204641462A4600F0CC
:1020F000BDFF0028EAD1616A2268084610F8013B5A
:102100001361238D6062581E2085678D013F6785AE
:1021100057697F07E6D50704E4D048781061881C2A
:102120006062981E2085618D01396185DAE700BF04
:102130002068016841F400710160202084F83D00AE
:10214000002084F83E0084F83C0003B0BDE8F08332
:1021500010B586B045F200410068C4F200010022CB
:102160008842049202D006B010BD00BF41F21804AC
:10217000C4F20204206840F008002060206800F0EB
:10218000080001900198C0200290122003900320C3
:10219000059001F5384002A9FFF7B8FB606840F4EC
:1021A00000106060606800F400100190019806B0B3
:1021B00010BD000040F20C0040F26821C2F20000A5
:1021C000C2F2000100780A681044086070470000FD
:1021D00080B542F20000C4F20200016841F0100133
:1021E0000160032000F07AF80F2000F005F800F0FD
:1021F00027F8002080BD000070B540F20C06C2F246
:10220000000640F214013278C2F200014FF47A73F2
:102210000968B3FBF2F20446B1FBF2F1084600F0A4
:1022200077FB0F2C4FF0010508D838B94FF0FF307D
:1022300021460022002500F025F87460284670BD74
:1022400082B041F21800C4F202000168022241F09B
:1022500001010160016801F00101019101994168EA
:1022600041F080514160406800F08050009000983B
:102270000420C4F20100016862F31A61016002B037
:102280007047000010B54EF60C5CCEF2000CDCF886
:102290000030C3F3022E8EF00704042C28BF042460
:1022A000BEF103034FF0FF3E0EFA04F438BF0023E3
:1022B000A14399400EFA03F39A43114300F00F0231
:1022C00000F160430901043A03F5644362440028C5
:1022D00048BF02F10C03197010BD00004EF60C51FE
:1022E000CEF200010A684FF6FF031A4060F30A229B
:1022F00042F0806040F0FD7008607047002804BF25
:10230000012070472DE9F04381B042F20008C4F289
:1023100002080446D8F800000D4600F00700884285
:102320000CD2D8F8000020F007002843C8F80000BD
:10233000D8F8000000F00700A8426CD1206841F2F4
:1023400004098107C4F2020917D5410705D5D9F858
:10235000001041F4E061C9F80010010705D5D9F873
:10236000001041F46051C9F80010D9F80010A268BB
:1023700021F0F0011143C9F80010C00742D1D8F88C
:10238000000000F00700A8420CD9D8F8000020F0A7
:1023900007002843C8F80000D8F8000000F0070044
:1023A000A84238D12068410707D5D9F80010E26863
:1023B00021F4E0611143C9F80010000708D5D9F8ED
:1023C0000000216920F4605040EAC100C9F8000013
:1023D000D9F8002002F00C00082841F20020C0F2D9
:1023E0007A0051D148F2F013C2F38341C0F60003E2
:1023F000595CD2033CD440F60010C0F23D00484383
:1024000042E000BF606802280AD001282AD159F8AA
:10241000041C890308D4012001B0BDE8F08300BF8B
:1024200059F8041C8901F6D5D9F8001021F00301F0
:102430000843C9F80000FFF777FB064641F28837EA
:10244000D9F80000616800F00C00B0EB810F96D065
:10245000FFF76AFB801BB842F2D9032001B0BDE848
:10246000F08300BF59F8041C8907D4D5DCE700BF0E
:10247000D9F8002048F2EE13C2F34042C0F6000340
:102480009A5C4843B0FBF2F0D9F8001048F2D6123B
:10249000C1F30311C0F60002515C40F2140220FAAD
:1024A00001F140F21000C2F200000068C2F2000226
:1024B0001160FFF7A1FE002001B0BDE8F08300002D
:1024C00040F2140041F20401C2F20000C4F2020121
:1024D0000068096848F2E612C1F30221C0F6000262
:1024E000515CC8407047000040F2140041F2040102
:1024F000C2F20000C4F202010068096848F2E61264
:10250000C1F3C221C0F60002515CC8407047000010
:10251000002804BF012070472DE9F04182B0044635
:10252000007841F20006C007C4F202060CD07068C1
:1025300000F00C00042840F081803068800303D54F
:102540006068002800F04E81207880071BD57068F5
:1025500010F00C0F09D0706800F00C00082840F053
:102560008B807068C00300F187803068800703D5D6
:102570002069012840F036813068616920F0F80058
:1025800040EAC10030602078000713D4207840076B
:102590002CD4E569002D00F02081706800F00C005B
:1025A000082840F0AF80012D40F00C81012002B0DE
:1025B000BDE8F081A069002800F08C800020C4F202
:1025C00042200121C0F88014FFF7AEFA054600BF93
:1025D000706A800700F1BA80FFF7A6FA401B022854
:1025E000F6D9032002B0BDE8F08100BFF0695FEAD0
:1025F000C00808D4F06940F08050F061F06900F044
:1026000080500090009847F20007C4F20007386835
:10261000C0054DD4386840F480703860FFF784FA04
:10262000054600BF3868C00542D4FFF77DFA401B5D
:102630006428F7D9032002B0BDE8F081706800F08B
:102640000C00082803D17068C0033FF576AF6068BE
:10265000002800F00981B0F5A02F00F01D81B0F531
:10266000803F00F01D81306820F480303060306899
:1026700020F4802017E100BF2069002840F200000C
:10268000C4F2422000F08C8001210160FFF74CFA77
:10269000054600BF306880073FF56EAFFFF744FA8C
:1026A000401B0228F6D9032002B0BDE8F08100BF2C
:1026B000E068002800F09A80052800F0B180012829
:1026C00000F0B280306A20F001003062306A20F001
:1026D0000400ACE00020C4F242200021C0F88014C5
:1026E000FFF722FA054600BF706A80077FF54EAFFC
:1026F000FFF71AFA401B0228F6D9032002B0BDE802
:10270000F08100BF0027C4F2422700203866FFF79F
:102710000BFA022D05460DD13068800140F1D680BC
:10272000FFF702FA401B02284FF00300F4D902B071
:10273000BDE8F081306880014FD5FFF7F5F9401B07
:1027400002284FF00300F5D9F1E700BF40F2140072
:10275000C2F20000006844F6D351C1F26201A0FB4E
:102760000101480A019000BF00BF0198411E0028E6
:1027700001913FF40BAF00BF0198411E0028019169
:102780003FF404AF00BF0198411E002801913FF4BF
:10279000FDAE00BF0198411E00280191E4D1F5E68D
:1027A00000210160FFF7C0F9054600BF30688007CF
:1027B0007FF5E9AEFFF7B8F9401B02284FF00300A0
:1027C000F4D9B4E77068216A00F480328A4209D1F2
:1027D000616A00F47010884204D1002002B0BDE8A4
:1027E000F08100BF012002B0BDE8F081306A20F026
:1027F00001003062306A20F004003062FFF794F983
:10280000054641F2883700BF306A800722D5FFF7BE
:102810008BF9401BB8424FF00300F5D987E700BFA2
:10282000306A40F004003062306A40F001003062EB
:10283000FFF77AF9054641F2883700BF306A800712
:1028400008D4FFF771F9401BB842F7D9032002B052
:10285000BDE8F081B8F1000F3FF59BAEF06920F0C4
:102860008050F06195E600BF306820F48030306021
:10287000306820F480203060FFF756F9054600BF2D
:10288000306880037FF560AEFFF74EF9401B642887
:102890004FF00300F4D94AE7306840F480203060FC
:1028A000306840F480303060FFF73EF9054600BFE5
:1028B000306880033FF548AEFFF736F9401B6428C7
:1028C000F6D9032002B0BDE8F08100BF206AB0F560
:1028D000803F05D17168A26821F400311143716015
:1028E0007168626A21F47411114308437060012019
:1028F0003866FFF719F90446306880013FF56DAF7F
:10290000FFF712F9001B02284FF00300F4D90EE77D
:10291000411E0020B0EB116F1CBF012070474EF22A
:102920001002CEF2000251604EF62351CEF20001A9
:10293000F0230B700721906011607047002804BFDE
:102940000120704710B5044690F8410028B90020D6
:1029500084F84000204600F063F8242084F8410009
:102960002068D4E90212C36823F40053C3600369EA
:1029700023F440531A430261D4E904231143C2688B
:10298000194341F20C639A431143C1604169A26942
:1029900021F44071114343F60002C4F20102904257
:1029A000416103D0FFF78CFD02E000BFFFF79CFD03
:1029B000D4E90023192148439900B0FBF1F048F213
:1029C0001F5CC5F2EB1CA0FB0C314FF69C73490950
:1029D000C0F6FF7301FB0300322303EB0010A0FBE2
:1029E0000C03F02000EA531000EB0110C3F3431175
:1029F000084490601069202120F4904010615069D3
:102A000020F02A005061D06840F40050D0600020CF
:102A1000606484F8411084F84210606310BD0000C7
:102A200070B586B040F60004C4F20104006804F5F5
:102A3000405100268842049602D006B070BD00BF07
:102A400041F21800C4F20200016802AD41F4804175
:102A50000160016801F4804101910199016841F030
:102A6000040101600068294600F00400019001980B
:102A70004FF400700290022003900320059020463E
:102A8000FEF744FF4FF48060CDE902062046294658
:102A90000496FEF73BFF06B070BD0000FEE70000A5
:102AA0002DE9F04782B0044600689A460B9D0A9EC5
:102AB0000368914643F48062026002680F4642F464
:102AC0008071016020464FF00111002233460095CD
:102AD00000F032F950B120680068C00544BF4FF4DF
:102AE00000702064032002B0BDE8F08740F20208C5
:102AF0002068C0F2010807F0FE0707612046414642
:102B000032462B4600F0FEF920B1012002B0BDE8AC
:102B1000F08700BF0020019020682A46416901919A
:102B20008069314601900198204600F09FFAB0B9C3
:102B30002068BAF1010F09D04FEA1921016120463E
:102B400031462A4600F092FA48B920685FFA89F1C6
:102B50000161204631462A4600F088FA60B1206CB7
:102B60000428D2D12068016841F40071016001207D
:102B700002B0BDE8F08700BF20680022016833463C
:102B800041F48071016020464FF00111009500F082
:102B9000D3F800289FD147F0010C27682046414612
:102BA00032462B46C7F810C002B0BDE8F04700F02F
:102BB000A9B900002DE9F04383B0044600680D4632
:102BC00001680A9F0B9E41F480719946904601600E
:102BD00020464FF0011100223B46009600F0ACF871
:102BE00050B120680068C00544BF4FF400702064F5
:102BF000032003B0BDE8F083206805F0FE01016109
:102C00000221C0F2010120463A46334600F07AF92B
:102C100020B1012003B0BDE8F08300BF0020029086
:102C200020683246416902918069394602900298D3
:102C3000204600F01BFA58B1206C0428E9D1206826
:102C4000016841F400710160012003B0BDE8F08328
:102C50002068B9F1010F0AD04FEA1821016120461E
:102C60003946324600F002FA0028E5D120685FFAC2
:102C700088F10161002003B0BDE8F08370B50368FE
:102C8000044653F8140F400711D40E46481C29D0AF
:102C900086BB00BF1868400527D4FEF745FF2368B0
:102CA00053F8140F400737D518684007F2D50020B5
:102CB00070BD00BF18684007F9D41868400514D4E7
:102CC00018684007F3D4186840050ED41868400708
:102CD000EDD41868400508D4186840074FF000008C
:102CE00048BF70BD18684005E4D56FF48060186077
:102CF000042012E0154603E053F8140F4007D6D421
:102D000018684005F1D4FEF70FFF401B2368B0425E
:102D1000F2D958694007EFD42020002120222163F6
:102D200084F83D2084F83E10226C1043206401207A
:102D300084F83C1070BD00002DE9F04105460068A4
:102D40001E46144601F47F0201338FB242D0DDF8F3
:102D50001880B2F5803F40F0878040693840C01B42
:102D6000B0FA80F04009A04240F0C8804EB924E09B
:102D700040693840C01BB0FA80F04009A04240F0E2
:102D8000BD80FEF7D1FEA0EB08012868B142EFD963
:102D900041693940C91BB1FA81F14909A142E7D122
:102DA0009BE000BF40693840C01BB0FA80F040098A
:102DB000A0424FF0000040F0A280FEF7B5FE286868
:102DC00041693940C91BB1FA81F14909A142E9D1F0
:102DD00083E000BFB2F5803F24D100BF4169394094
:102DE000C91BB1FA81F14909A14240F087804169CC
:102DF0003940C91BB1FA81F14909A14240F07E80F6
:102E000041693940C91BB1FA81F14909A14275D123
:102E100041693940C91BB1FA81F14909A142DDD0AC
:102E20006CE000BF81693940C91BB1FA81F14909E1
:102E3000A14263D181693940C91BB1FA81F14909C5
:102E4000A1425BD181693940C91BB1FA81F14909BD
:102E5000A14253D181693940C91BB1FA81F14909B5
:102E6000A142DFD04AE000BF80693840C01BB0FA01
:102E700080F04009A04241D146B923E08069384042
:102E8000C01BB0FA80F04009A04237D1FEF74CFEDB
:102E9000A0EB08012868B142F0D981693940C91B0B
:102EA000B1FA81F14909A142E8D116E080693840C0
:102EB000C01BB0FA80F04009A0424FF0000018BFDC
:102EC000BDE8F081FEF730FE286881693940C91BF2
:102ED000B1FA81F14909A142E8D1002020212863FB
:102EE00085F83D1085F83E00296C41F020012964E9
:102EF00085F83C000120BDE8F08100BF0020BDE85E
:102F0000F0810000F0B581B0044600681D464369B9
:102F10008FB203EA0701B94202D1002001B0F0BD2F
:102F20004169164601323FD049053FD4CEB100BFBA
:102F3000FEF7FAFD411B2068B14203D941693940CF
:102F4000B94215D141693940B942E6D041694905D4
:102F5000EED52BE041693940B942DED041694905DF
:102F600024D4FEF7E1FD206841693940B942F1D02F
:102F7000202023E041693940B942CED0416949055A
:102F800014D441693940B942C7D0416949050DD4CB
:102F900041693940B942C0D04169490506D4416907
:102FA0003940B942B9D041694905E3D5016841F4D6
:102FB000007101606FF480614161042000212022D2
:102FC000216384F83D2084F83E10226C1043206475
:102FD00084F83C10012001B0F0BD000070B504463B
:102FE0000068154650F8143F5A063DD40E4629B9DC
:102FF00026E000BF50F8141F490635D40168C90601
:1030000021D4FEF791FD411B2068B142F2D94169FC
:103010004906EFD400202021206384F83D1084F875
:103020003E00206C40F0200018E000BFFEF77CFD61
:10303000206850F8141F4906ECD50168490613D4DE
:103040000168C906F2D56FF010010160002020214F
:10305000206384F83D1084F83E00206C206400203A
:1030600084F83C00012070BD002070BD70B503687D
:10307000044653F8140F000611D40E46481C29D0FC
:1030800086BB00BF1868400527D4FEF74DFD2368B6
:1030900053F8140F000637D518680006F2D5002043
:1030A00070BD00BF18680006F9D41868400514D434
:1030B00018680006F3D4186840050ED41868000696
:1030C000EDD41868400508D4186800064FF00000D9
:1030D00048BF70BD18684005E4D56FF48060186083
:1030E000042012E0154603E053F8140F0006D6D46E
:1030F00018684005F1D4FEF717FD401B2368B04265
:10310000F2D958690006EFD4202000212022216343
:1031100084F83D2084F83E10226C10432064012086
:1031200084F83C1070BD00002DE9F04F8FB01446BC
:103130000D4681460DF119070DF11A060DF1360005
:103140000CA908AA07ABCDE9006700F021FB28B164
:103150004FF0FF300FB0BDE8F08F00BFBDF81A0090
:10316000C00540F1CB80089809AF0594D0CF04F09A
:10317000FBFC4FF0425104F08BFD8046204604F0EA
:10318000F3FC4FF0425104F083FD8346304604F0D7
:10319000EBFC4FF0425104F07BFD8246384604F0D0
:1031A000E3FC4FF0425104F073FD074658464FF0E0
:1031B000404104F06DFD044640464146CDF8108084
:1031C00004F028FB51460395804604F061FD064655
:1031D0002046394604F05CFD314604F01BFB04F048
:1031E000EDFA03F029FA4AF26663C4F24C034FF099
:1031F000663204F005F803F07FFDC9F80000504680
:10320000514604F007FB06464046594604F040FD8F
:10321000054630463946B94604F03AFD294604F0E1
:10322000F9FA04F0CBFA05460F465046314604F051
:103230002FFD06462046594604F02AFD314604F08B
:10324000F3FD4FF07E5104F0E5FA04F0B7FA0246C0
:103250000B462846394603F037FC4AF26668C4F24A
:103260004C084FF06632434603F0CAFF03F044FDBA
:10327000039908605846514604F00AFD049C05462F
:10328000204649464F4604F003FD294604F0C2FAA1
:10329000014604F0BFFA04F091FA05468946584603
:1032A000594604F0F5FC06462046214604F0F0FCA1
:1032B000314604F0AFFA06465046514604F0E8FCA9
:1032C0000146304604F0B0FD04463846394604F065
:1032D000DFFC0146204604F0A7FD04F06FFA024629
:1032E0000B462846494603F0EFFB4FF06632434653
:1032F00003F086FF03F000FD0599086000200FB081
:10330000BDE8F08F80B582B001A801F0C7F818B110
:103310004FF0FF3002B080BD782002F01FFC18B1E2
:103320006FF0010002B080BD782000F0EDFF18B111
:103330006FF0020002B080BD642002F08FFB18B174
:103340006FF0030002B080BD00F016FA20B16FF0FC
:10335000040002B080BD00BF00F03AFF00F008FC9E
:1033600020B16FF0050002B080BD00BF40F27310C5
:1033700000F0B2F820B16FF0060002B080BD00BFCF
:10338000642000F04DFB18B16FF0070002B080BD63
:1033900002F0BEFC20B16FF0080002B080BD00BF9B
:1033A000012002F061FA002818BF6FF0090002B096
:1033B00080BD000070B584B041F21800C4F2020074
:1033C000016841F2000441F0100101600168C4F29B
:1033D000010401F01001009100990168002241F000
:1033E0002001016001684FF4005501F020010091B7
:1033F00000990168002641F004010160016801F0B4
:10340000040100910099016841F008010160006821
:103410004FF4005100F00800009000982046FEF79D
:103420007DFB0120CDE9010602200390694620467C
:103430000095FEF76BFA04B070BD000080B540F255
:10344000CC1045F20041C2F20000C4F2000148F283
:10345000A06200234FF4804CC0F2010280E80E000D
:10346000C0E9033CC0E90533C0E90733FEF762FB5E
:10347000002808BF80BDBDE88040FEF72DBA0000DF
:1034800080B540F2202043F60001C2F20000C4F2F1
:10349000010100234FF00C0C4FF4E13280E80E00E4
:1034A000C0E90333C0E905C3C361FFF747FA002849
:1034B00008BF80BDBDE88040FEF70EBAFEE7000001
:1034C000FEE700007047000070470000FEF772BE84
:1034D00070470000FEE70000F0B587B004464CF6E8
:1034E0000220C0F6E3100DF10605CDF806006820B5
:1034F00004212A4602F0C8FB14F040014FF0A3005B
:103500006FF03F018DF8060008BF6FF05C016FF0AF
:1035100037026FF03D0308BF6FF05C0208BF6FF029
:103520005C038DF8071014F4C0716FF03B018DF847
:1035300008208DF8093008BF6FF05C016FF033028E
:103540006FF0390308BF6FF05C0208BF6FF05C03D7
:103550008DF80A104AF2A3318DF80B20ADF80D104A
:103560008DF80F0040F6A7200A212A468DF80C306E
:1035700002F08AFB2020A60708BF6FF027008DF815
:10358000060040F6B62001212A4602F07DFBA00687
:103590000CD4C720069048F6B000CCF2C35005907A
:1035A0004AF6B820CAF6AA200BE000BF5D200690BC
:1035B00049F6B400C3F20D5005904AF6B820C8F69B
:1035C000B350049004AA4FF49760092102F05CFB09
:1035D00014F4C07F25D06FF04D016FF0740214F425
:1035E000807008BF6FF04F0108BF6FF07F026FF06F
:1035F00049036FF0640508BF6FF04B03002808BF54
:103600006FF06F058DF806108DF807200DF106029A
:1036100040F6A22004218DF808308DF8095002F000
:1036200033FBE00708D1D8208DF806000DF1060223
:103630004FF40B60012150E0F8208DF806000DF1E9
:1036400006024FF40B60012102F01EFB0720FA2155
:1036500000F002FB3F208DF8100004AA4FF4A47084
:10366000012102F011FB00208DF8100004AA40F2A5
:103670004F10012102F008FB4FF4A050ADF81000EC
:1036800004AA4FF4EF70022102F0FEFA4FF4C84092
:10369000ADF8100004AA4FF4ED70022102F0F4FA24
:1036A00048F60060C9F2F900049004AA4FF4AE7025
:1036B000042102F0E9FA4FF40060ADF8100004AA0A
:1036C0004FF4AD70022102F0DFFA4FF40070ADF854
:1036D000100004AA4FF4AC70022102F0D5FA6FF08A
:1036E0002600002E58BF6FF027008DF806000DF160
:1036F000060240F23D70012102F0C6FA600752BF97
:103700004FF08B304CF2C020CCF2C460049004AA7D
:1037100040F69820042102F0B7FA01F037FAE006EB
:1037200052BF4FF0A33042F62000C3F630000490A1
:1037300004AA40F69E20042102F0A6FA01F026FA1F
:1037400040F2B41744F00800C2F200076506B880E2
:1037500001F01CFA062000EAE57114F4C07F18BFDE
:10376000063114F0140F18BF1031002E18BF0431A9
:103770000020397007B0F0BD48F20821C0F6000102
:1037800040F6F6304FF48062C82300F051BF0000CD
:103790002DE9F04F89B01446DDE912A20F46002151
:1037A00040F2B419AAF80010C2F2000999F800100A
:1037B0000DF1040B8046084659461E4601F06AF991
:1037C00020B14FF0FF3009B0BDE8F08FB9F804C068
:1037D0001CF0140F50D09DF80520B6469DF804103B
:1037E000BDF8066012049DF8095042EA016132BA40
:1037F0009DF8083041EA1242BDF80A6022602A04AE
:1038000042EA036233BA42EA134363609DF80D3023
:103810009DF80C60BDF80E501B0443EA06632EBAF7
:1038200043EA16461214A6609DF81160091452432B
:103830009DF8105001FB012136041A1446EA056672
:1038400002FB02113214BDF8120002FB021100BA91
:1038500001F1714146EA1040B1F1007FE06073D898
:10386000BAF80000102140F480707646AAF80000F3
:103870005FEA4C6004D42AE000215FEA4C6026D560
:1038800041F001021BF801001BF8022041F0030384
:1038900042EA002041F002021BF802201BF803302C
:1038A000388043EA022041F0040241F005031BF88E
:1038B00002201BF80330788043EA0220B880BAF86F
:1038C000000041F0060140F00800AAF800001CF4D6
:1038D000C07F18D03BF801000BEB010200BA5388FF
:1038E000000CA8F8000018BA9288000CA8F8020092
:1038F00010BA000CA8F80400BAF80000063140F035
:103900007000AAF800005FEA8C7016D00BEB01057E
:103910006878EC78C10709D0D9F8082032B104F0F2
:103920000700411CC4F3C20090476878000704D523
:10393000D9F80C1009B1A0098847FEF7F5F83060F6
:10394000002009B0BDE8F08F01F020F90020AAF8AE
:1039500000004FF0FF3009B0BDE8F08F10B584B023
:1039600004460DF1020000F051FD40F2C411BDF813
:1039700002C000BFC2F20001098801F003024B0738
:1039800054F822204FF00C0348BF524203EA51037F
:103990008806E358C1F3811048BF5B4254F8200009
:1039A000C90548BF40424FEACC3181FB02C481FBCC
:1039B00003E281FB00014FEA9C73800F43EA840C11
:1039C0004FEA9E7340EA810EA00D8DF80400A00B13
:1039D0008DF80500A0098DF80600900D8DF80800FF
:1039E000900B8DF8090090098DF80A00880D8DF86C
:1039F0000C00880B8DF80D00880943EA82038DF8CE
:103A00000E0001AA4FF425700C218DF807C08DF827
:103A10000B308DF80FE002F037F904B010BD000054
:103A200010B586B004464AF6BB70CDF6DF7005903F
:103A30004FF2AA10CDF6DF7004904FF2FE20CCF2C8
:103A4000AB40C82C039017D8E0B2C821B1FBF0F00E
:103A5000002101388DF804108DF8050001AA40F20C
:103A60001620022102F010F930B903AA40F6C12055
:103A70000C2102F009F918B14FF0FF3006B010BD6B
:103A800040F2C810C2F200000480002006B010BD51
:103A9000F0B581B040F2C411C2F200010E880C23CF
:103AA00006F003014EF2093450F8211003EA5603E0
:103AB000C0F2CA24720748BF4942C758C6F38113EF
:103AC00081FB041250F82350F0054FEA91704FEA41
:103AD000925148BF6D428DF80010910B40EA820070
:103AE0008DF8011091098DF802108DF803006A46D7
:103AF0004FF47470042102F0C7F8E0B9B00648BF73
:103B00007F42A7FB0401FA1702FB0411800F8A0D04
:103B100040EA81008DF800208A0B89098DF8012088
:103B20008DF802108DF803006A464FF47570042179
:103B300002F0AAF820B14FF0FF3001B0F0BD00BF95
:103B400085FB0401800F40EA8100010E8DF8001012
:103B5000010C8DF80110010A8DF802108DF8030098
:103B60006A464FF47670042102F08EF801B0F0BD81
:103B7000B0B582B0054648F2D311C0F60001C5F3D6
:103B8000C10300F00300CC5C0A5C8DF8054048F2EC
:103B9000D0148DF80420C5F38112C0F60004895CAE
:103BA000205C8DF806108DF80000E05CA15C8DF8BB
:103BB00001008DF8021001AA40F22640032102F014
:103BC00063F850BB6A4640F22A40032102F05CF8D9
:103BD00018BB45F23660C0F27600019044F22660D0
:103BE000C0F26600690700901CD4A80622D4E8053C
:103BF00005D577208DF8060067208DF8020001AA10
:103C00004FF48860032102F03FF830B96A4640F271
:103C10003140032102F038F8B0B14FF0FF3002B06C
:103C2000B0BD00BF37208DF8040027208DF80000BC
:103C3000A806DCD557208DF8050047208DF8010037
:103C4000E805D6D4DBE700BF40F2C410C2F20000A2
:103C50000580002002B0B0BDF0B583B00446B1F5D8
:103C6000C86F4FF0FF3057D814F0070254D0084601
:103C700003F092FF0021C4F2483103F063FE0546D1
:103C80000DF1070000F0A6FB9DF80700811EC0079C
:103C900040EA5102072A4FF0FF303DD80026C4F217
:103CA00040664FF08D41DFE802F01605370B3737DD
:103CB000371100BF0026C4F2C0564FF08C410AE015
:103CC0000026C4F240564FF08B4104E00026C4F2B7
:103CD000C0464FF08A41284603F0DAFF07462846DF
:103CE000314603F0D5FF03F023FF0646384603F0C4
:103CF0001FFF010A8DF808108DF80900300A02A98B
:103D00008D1C8DF80A00E0078DF80B6006D1A00726
:103D100014D4600722D4002003B0F0BD02AA4FF4EF
:103D2000EA70022101F0B0FF38BB4FF4927002211B
:103D30002A4601F0A9FF00BBE9E700BF02AA4FF441
:103D4000EC70022101F0A0FFB8B94FF49470022189
:103D50002A4601F099FF80B9DBE700BF02AA4FF4C1
:103D6000EE70022101F090FF38B94FF496700221F5
:103D70002A4601F089FF0028CDD04FF0FF3003B074
:103D8000F0BD00002DE9F04F89B040F2180BC2F2EF
:103D9000000B894680460125DBE90001ADF818508B
:103DA0000978437D022006ACCDE9004040F2CC10FA
:103DB00016460F274900C2F200001A460123029757
:103DC000FEF718F9002840F03981C820FDF78AFD78
:103DD0000020DBE900128DF8180010784A7C4100C1
:103DE00040F2CC10C2F200000123CDE9015700944B
:103DF000FEF700F9002840F02181DBE900010F25E2
:103E00000978427940F2CC1001274900C2F2000043
:103E10000123CDE900470295FEF7ECF8002840F0B9
:103E20000D81DBE9000101230978427D40F2CC10CD
:103E30004900C2F20000CDE901750094FEF7DAF8FE
:103E4000002840F0FB80DBE900010F250978827E25
:103E500040F2CC1001274900C2F200000123CDE955
:103E600000470295FEF7C6F8002840F0E780DBE93E
:103E7000000101230978027940F2CC104900C2F216
:103E80000000CDE901750094FEF7B4F8002840F079
:103E9000D5800C20DBE900128DF8180010780A7923
:103EA000410040F2CC100F250127C2F2000001238F
:103EB000CDE900470295FEF79DF8002840F0BE804E
:103EC0000F20FDF70FFDDBF82800DBE90012407A38
:103ED00001238DF8180010788A78410040F2CC1048
:103EE000C2F20000CDE901750094FEF783F80028C6
:103EF00040F0A480DBF82800DBE90012007A0F25EF
:103F00008DF8180010784A78410040F2CC10012753
:103F1000C2F200000123CDE900470295FEF76AF8DE
:103F2000002840F08B80DBF82800DBE90012807A63
:103F3000002E18BF40F0E0008DF8180010788A7944
:103F4000410040F2CC10C2F200000123CDE901751E
:103F50000094FEF74FF8002870D12EB1DBF828004E
:103F6000C07A60F01F0000E01820DBE900128DF835
:103F700018001078CA790F210123CDE901314100E1
:103F800040F2CC10C2F200000094FEF733F8002893
:103F900054D116B1C820FDF7A5FC4020DBE9001282
:103FA0008DF8180010780A79410040F2CC100F25E6
:103FB0000126C2F200000123CDE900460295FEF77A
:103FC00019F8D8BB7820DBE900128DF818001078BA
:103FD0004A79410040F2CC10C2F200000123CDE941
:103FE00001650094FEF706F840BB3220FDF77AFC2D
:103FF0000020DBE900128DF8180010784A790121C1
:10400000CDE90041410040F2CC100F25C2F2000082
:1040100001230295FDF7EEFF80B9DBE900010123E2
:104020000978027B0220CDE9010540F2CC1049005D
:10403000C2F200000094FDF72FFE28B14FF0FF37C9
:10404000384609B0BDE8F08FBDF818004AF6AB213C
:1040500000BA000C4843C0F3C7420021002AC8E957
:104060000011C8F80810C9E900110492C9F8081035
:1040700048D0C00C0026C0B20590DBE90001012346
:104080000978427B0C20019040F2CC104900C2F22A
:1040900000000F2700940297FDF7FEFD0028CDD108
:1040A000BDF81800BDF81A10BDF81C2099E8A8004A
:1040B00000BA09BA12BA03EB204005EB214107EB25
:1040C0002242C9E90001C9F80820BDF82220BDF844
:1040D0002010D8F80850BDF81E0012BAD8E90037F1
:1040E00009BA05EB22450136059A00BA07EB214AC9
:1040F000F1B203EB20409142C8E9000AC8F8085029
:10410000BBD303E0D8E9000AD8F80850C117090466
:1041100041EA10410004832200230027FCF784F8C1
:10412000049E00233246FCF77FF8C8F800004FEAEF
:10413000EA70000440EA1A414FEA0A408322002351
:10414000FCF772F832460023FCF76EF8C8F804005A
:10415000E817000440EA1541280483220023FCF7F5
:1041600063F832460023FCF75FF8C8F80800D9E985
:104170000005D9F80840C117490141EAD061400162
:1041800032460023FCF750F8C9F80000E817400158
:1041900040EAD561680132460023FCF745F8C9F8CA
:1041A0000400E017400140EAD46160013246002378
:1041B000FCF73AF84FF480310028C4BF0021CFF655
:1041C000FF710844C9F80800384609B0BDE8F08F0F
:1041D000AC20704794B0FDF7FBFF00240120CDE92F
:1041E0000F44CDE90D440A900E904FF4E0104FF4C7
:1041F0008031022513900AA8CDE90B14CDE91151A5
:10420000FEF786F920B1EFF3108072B6FEE700BF2B
:104210000F20CDE905054FF48060CDE9080405A81D
:1042200002210794FEF76AF820B1EFF3108072B60E
:10423000FEE700BFFFF7BEF8FFF700F9FFF720F930
:1042400040F2A419C2F200091FA400BFFFF75AF8F8
:104250000146C9F800002046FCF720F84FF47A70B8
:10426000FDF740FBD9F800000028EFD109F1040464
:1042700009F1080B09F10C0A049402E06420FDF72F
:1042800031FB204659465246FEF74EFF0028F5D135
:10429000D9F80C00D9E9017403F090FA05462046DC
:1042A0000E4603F08BFA04463846884603F086FA39
:1042B0000094049CCDE901800AA02A46334603916C
:1042C000FBF7ECFFDAE700BF4D50553630353020B4
:1042D000696E69742C20726574203D2025640D0A76
:1042E00000000000796177203D2025662C20726F48
:1042F0006C6C203D2025662C207069746368203D1D
:1043000025660D0A00000000F0B585B040F21805E2
:10431000C2F2000595F8241021B10024204605B012
:10432000F0BD00BFA97A89B300F0FE0739402E7CAA
:10433000CC1B287D18BF4FF0FF34002F297408BF15
:10434000002829D0687CD0B90120D5E900128DF869
:10435000120013784A7C0DF11201CDE9001040F2F1
:10436000CC104FF00F0C5900C2F200000123CDF821
:1043700008C0FDF73FFE10B99DF812006874002FC9
:10438000CCD000F003FC0028C8D02E744FF0FF34CE
:10439000204605B0F0BD00BF0020D5E900128DF821
:1043A000130010784A7C01210DF11303CDE900318F
:1043B000410040F2CC100F27C2F200000123029707
:1043C000FDF718FE0028A9D19DF813006874204657
:1043D00005B0F0BD40F21801C2F200014A7A032A8A
:1043E00084BF4FF0FF30704740F20243D200C1F269
:1043F0000803D3400370C97C29B140F60401C2F21E
:104400001001D140017000207047000040F21801F7
:10441000C2F200014A7A032A84BF4FF0FF3070478E
:1044200006A333F81230C97C0FF2180C3CF81220A6
:104430000029038018BF0280002070470040002040
:1044400000100008002000100008000440F21801CD
:10445000C2F200010A7A032A84BF4FF0FF3070478E
:104460000021C4F20331DFE802F00603091100BFA6
:104470000021C4F2832101600020704743F23331F0
:10448000C4F2032101600020704700BF43F23331C2
:10449000C4F2831101600020704700002DE9F04153
:1044A00086B040F21805C2F200058020D5E900125E
:1044B0008DF8100010784A7D410040F2CC100F2496
:1044C000012704AEC2F200000123CDE90067029487
:1044D000FDF790FD30B14FF0FF34204606B0BDE847
:1044E000F08100BF6420FDF7FDF94FF00008D5E929
:1044F00000018DF810800978427D40F2CC1049000F
:10450000C2F200000123CDE900670294FDF772FDBD
:1045100000284FF0FF34E0D14FF6FF701821E881FA
:10452000FF208DF81610D5E900126882AC60C5E94D
:104530000588C5F81C80A5F82080C5F8238085F87B
:1045400027802874012013788A790DF116012873C9
:1045500085F82200CDE9001040F2CC100F27590059
:10456000C2F2000001230297FDF744FD30B14FF085
:10457000FF34204606B0BDE8F08100BF9DF816006C
:10458000A97AC0082872C1B1687A00218DF8171085
:10459000F0B1D5E900010DF117030978C2790120C6
:1045A000CDE9003040F2CC100F274900C2F20000E4
:1045B00001230297FDF71EFD30B14FF0FF34204676
:1045C00006B0BDE8F08100BF9DF81700C008687212
:1045D0002A2001F0E9F928B14FF0FF34204606B057
:1045E000BDE8F081322001F039FA28B14FF0FF34F4
:1045F000204606B0BDE8F0810020FFF785FE28B117
:104600004FF0FF34204606B0BDE8F081002001F0F5
:104610008FF828B14FF0FF34204606B0BDE8F08196
:104620000020002401F09AFA204606B0BDE8F0818F
:104630002DE9F04F8DB0064600294FF0FF3000F015
:10464000D18040F21808C2F200080C4698F82510F4
:10465000002940F0C780002ECDE9033200F09E8093
:104660004FF000090DF12205CDE905461FFA89FB3F
:10467000A6EB0B0A98F80A00BAF1100FA8BF4FF08A
:10468000100A002800F0A380D8F804005FFA89F12E
:104690001FFA8AF342895E1899FA89F196424FEA25
:1046A00011410793ADF8321000F29180D8F8001054
:1046B0000078CA7E0DF13201009102210191410082
:1046C00040F2CC10C2F2000001230F270297FDF741
:1046D00091FC40F21807C2F20007002877D1D7E911
:1046E000000104EB0B08027E07980978019040F264
:1046F000CC104900C2F2000001230F24CDF8008045
:104700000294FDF777FC002861D1B87A00285ED0CA
:1047100078683B4642894FEA1B2196428DF8321059
:104720008DF8339053D819680078CA7E0DF13201A4
:10473000009102210191410040F2CC10C2F2000030
:1047400001230F270297FDF755FC40F21801C2F232
:104750000001E0BBD1E90001079C0978027E40F22C
:10476000CC104900C2F2000001230F2700950194EC
:104770000297FDF791FA50BB404629462246FBF7C7
:10478000C5FE98BBD144069E1FFA89F0059C40F2F5
:104790001808B042C2F20008FFF468AF0498D8E9E4
:1047A000001240BAADF8320010784A7F0F21022380
:1047B0000DF132070291410040F2CC10CDE90073B7
:1047C000C2F2000001230124FDF714FC20B14FF0D8
:1047D000FF300DB0BDE8F08F039888F82540A8F8A9
:1047E000260000200DB0BDE8F08F00BF6FF0010083
:1047F0000DB0BDE8F08F000070B586B0282805D94F
:104800004FF0FF34204606B070BD00BF40F21805DF
:104810000446C2F20005002854D095F82300012870
:1048200028D0A87C95F822103222002808BF302218
:104830008DF8132039B16FF04D01002808BF6FF0DB
:104840004F018DF81310D5E900010DF1130309781C
:10485000C27D0F20029040F2CC1001260093490047
:10486000C2F2000001230196FDF7C4FB002808BF37
:1048700085F823602020012C8DF810006ED1A87AD5
:1048800000218DF81110D8B1E87A062106288DF89C
:10489000141015D0D5E9000105AB09788278012004
:1048A000CDE9003040F2CC100F264900C2F20000E2
:1048B00001230296FDF79EFB10B99DF81400E872E3
:1048C0000720C0E095F8230050B3A87C95F822108B
:1048D0000246002818BF012252008DF8122039B17B
:1048E0006FF07D01002808BF6FF07F018DF8121076
:1048F000D5E900010DF112030978C27D0120CDE94F
:10490000003040F2CC100F264900C2F20000012313
:104910000296FDF76FFB002804BF002085F82300F6
:104920004FF4E060D5E90012ADF8100010784A7D30
:10493000022104ABCDE90031410040F2CC100F263A
:10494000C2F2000001230296FDF754FB002851D06B
:104950004FF0FF34204606B070BD00BF052C23D8B1
:10496000A87A01218DF81110E0B1E87A0621062815
:104970008DF8151016D0D5E900010DF11503097851
:1049800082780120CDE9003040F2CC100F2649009A
:10499000C2F2000001230296FDF72CFB10B99DF82E
:1049A0001500E87247204EE0142C29D8A87A02217D
:1049B0008DF81110E0B1E87A052105288DF8161060
:1049C00016D0D5E900010DF116030978827801208F
:1049D000CDE9003040F2CC100F264900C2F20000B1
:1049E00001230296FDF706FB10B99DF81600E87248
:1049F000872028E000242C75204606B070BD00BF3B
:104A0000A87A03218DF81110E0B1E87A0421042876
:104A10008DF8171016D0D5E900010DF117030978AC
:104A200082780120CDE9003040F2CC100F264900F9
:104A3000C2F2000001230296FDF7DCFA10B99DF8DE
:104A40001700E872C720D5E900128DF81100107820
:104A50004A7D0F21022304AE0291410040F2CC10A6
:104A6000CDE90063C2F2000001230126FDF7C2FA7E
:104A700020B14FF0FF34204606B070BD0820A87268
:104A8000002400202C732E75FFF73EFC204606B054
:104A900070BD00002DE9F04385B040F21807C2F266
:104AA00000070E4697F82410054600294FF0FF3006
:104AB00061D0B97A00295ED0D7E900019146097822
:104AC000027B0F200223CDE9013040F2CC100DF122
:104AD00012044900C2F2000001230094FDF7DCF843
:104AE00020B14FF0FF3005B0BDE8F083BDF81210E3
:104AF00008BAB5EB104F07D9002089F800004FF035
:104B0000FF3005B0BDE8F083786891FA91F84288EB
:104B1000B8EB520F18D939680078CA7C0121CDE969
:104B20000041410040F2CC104FF00F0CC2F20000E7
:104B30000123CDF808C0FDF7AFF80028D1D19DF8CA
:104B40001200C0061AD47868396800784A7B0F21B1
:104B50000291410040F2CC10C2F200000123009605
:104B60000195FDF799F80028BBD1B8FBF5F00138A5
:104B700089F80000002005B0BDE8F08300F006F8D9
:104B80006FF0010005B0BDE8F0830000F0B585B01E
:104B900040F21804C2F20004A07AB8B30020D4E9AD
:104BA00000128DF8130010784A7C410040F2CC10BE
:104BB0000F2601270DF11305C2F200000123CDE9F4
:104BC00000570296FDF716FA00BBD4E90001012355
:104BD0000978427940F2CC104900C2F20000CDE9D8
:104BE00001760095FDF706FA80B9D4E900010123AA
:104BF000097802790F20CDE9013040F2CC1049004C
:104C0000C2F200000095FDF7F5F918B14FF0FF3042
:104C100005B0F0BD94F82400002857D00C20D4E94A
:104C200000128DF8130010780A79410040F2CC1080
:104C30000F260127C2F200000123CDE9005702969A
:104C4000FDF7D8F90028E1D13220FCF74BFEA07A1D
:104C50000123C0076FF01F0008BF6FF03F00D4E9C9
:104C600000128DF8130010780A79410040F2CC1040
:104C7000C2F20000CDE901760095FDF7BBF90028EE
:104C8000C4D1607C0F26002818BF01204000D4E961
:104C900000128DF8130010784A7C410040F2CC10CD
:104CA0000127C2F200000123CDE900570296FDF76B
:104CB000A1F90028AAD10020D4E900128DF8130030
:104CC00010784A794100CDE9005759E00420D4E931
:104CD00000128DF8130010780A79410040F2CC10D0
:104CE0000F260127C2F200000123CDE900570296EA
:104CF000FDF780F9002889D1A07AA17CC0074FF088
:104D0000600008BF4020002918BF4020D4E90012ED
:104D10008DF8130010780A79410040F2CC10C2F2ED
:104D200000000123CDE901760095FDF763F9002825
:104D30007FF46CAF3220FCF7D5FD607C0F26002895
:104D400018BF0120D4E900128DF8130010784A7CB6
:104D5000410040F2CC100127C2F200000123CDE94E
:104D600000570296FDF746F900287FF44FAFD4E9CB
:104D700000010978427904F11000CDE900074900EB
:104D800040F2CC10C2F2000001230296FDF732F986
:104D900000287FF43BAF002005B0F0BD2DE9F04FB7
:104DA0009BB040F2180AC2F2000A9AF824408946E1
:104DB000054614B1002000F057FD9AF808000328BA
:104DC00016D848F20021C0F6000131F810709AF8A8
:104DD0000900032811D9002012909AF80B00062828
:104DE0001DD90020CDE91000CDE90E0032E000BF52
:104DF00000279AF809000328EDD80FF624129AF834
:104E0000133002EB80020FF60811002B08BF01EBF4
:104E10008002106812909AF80B000628E1D800F082
:104E20007F00411EB1FA81F1490911910621C1406B
:104E300001F0010110910E21C14001F001010F911B
:104E40001E21C14001F001010E913E2121FA00F026
:104E500000F001000D90BAF80E009AF80A80139045
:104E60009AF81060284649460022FEF78BFF48B1A9
:104E70002846494600224FF0000BFEF783FF00282A
:104E800040F06F8317A814A90122FEF77BFF48B1F9
:104E900017A814A90122FEF775FF18B14FF0000BF7
:104EA0005FE300BFDAF804000F2100780422CDE9A7
:104EB0000121410040F2CC10CDE90B751AAFC2F2CE
:104EC00000000D220123CDE909640097FCF7E4FE00
:104ED000CDF8208050B3D9F800001499401A48BF8B
:104EE000404202F041FE4FF05E5102F0D1FE044616
:104EF0002846002102F0F0FC00284BD1204629462C
:104F000002F020FD0021CBF6807102F083FC45F613
:104F1000294120F00040C3F60F6102F0F9FC00289F
:104F20000CBF4FF001084FF0000847E09DF8680003
:104F30009DF869309DF86B509DF86A601C2404EA66
:104F4000D000C5F3011204EAD303C5F3810712EBC5
:104F5000000C03EB070104EAD60B05F00308CDE9CA
:104F60000373079100F0E480BCF1010400F0F480C9
:104F7000104314F00302A0F1020000F0F780012AB0
:104F800040F0FE804FF6AD75ACF10204C3F6B36598
:104F900005E100BF49F69A11C3F69961204602F077
:104FA000BEFC43F233310546C3F67371204602F06E
:104FB000A1FC55EA000818BF4FF00108D9F8040019
:104FC0001599401A48BF404202F0CEFD4FF05E51A5
:104FD00002F05EFE05463046002102F07DFCA8B9D5
:104FE0002846314602F0AEFC0021CBF6807102F07B
:104FF00011FC45F6294120F00040C3F60F6102F094
:1050000087FC002808BF08F1020815E043F233319D
:10501000C3F67371284608F1020402F06BFC49F6EE
:105020009A110028C3F69961284618BFA04602F0DD
:1050300076FC002818BFA046D9F808001699401A37
:1050400048BF404202F090FD4FF05E5102F020FE5A
:1050500004463846002102F03FFCA8B920463946F4
:1050600002F070FC0021CBF6807102F0D3FB45F614
:10507000294120F00040C3F60F6102F049FC0028EE
:1050800008BF08F1040815E043F23331C3F6737129
:10509000204608F1040502F02DFC49F69A1100287B
:1050A000C3F69961204618BFA84602F038FC0028D4
:1050B00018BFA846DAF804001AAA00780321CDE93F
:1050C0000021410040F2CC100C9C0F27C2F20000DE
:1050D0000D2201230297FCF7DFFD18B10B9F072675
:1050E00033E200BF206817999DF86820401A48BF36
:1050F00040429DF869709DF86A9002F01F0502F029
:1051000033FD4FF05E5102F0C3FD044695B16E1EB3
:1051100028D016F00301A5F102002DD0012940F09E
:105120007D8043F23331C4F2D111064684E000BFE2
:1051300000254CE00021C4F22011204602F0EFFBD4
:1051400000210546C4F2D221204602F0D3FB55EAE5
:10515000000618BF01269AE041F27B45C3F6AE6512
:1051600035E000BF0021C4F2C8117CE041F27B456C
:10517000C3F6AE6513E000BF0021C4F2C8115BE0C6
:1051800047F25E25ACF10404C3F6C065022A08BFED
:10519000ACF1030404BF41F66365C3F6BA650328A6
:1051A00015D345F61D26C3F6847600BF2846314642
:1051B00002F06EFD314602F06BFD314602F068FDF3
:1051C000314602F065FD043C21060546EED1079A02
:1051D000CDE9058BD8449AB1541E13D0DDE90310F4
:1051E000084314F00301A0F1020011D0012940F09E
:1051F00089804FF6AD76941EC3F6B3668FE000BF8C
:105200000026A4E041F27B46C3F6AE669FE000BFF5
:1052100041F27B46C3F6AE6681E000BF02294EF242
:105220009A31A5F10406C4F2E41108BFEE1E04BFD2
:105230004DF2BD21C4F2DA11032814D34EF25435D5
:10524000C3F685750846294602F022FD294602F07C
:105250001FFD294602F01CFD294602F019FD043EFF
:1052600031060146EED1204602F06CFB0021CBF660
:10527000807102F0CFFA45F6294120F00040C3F6D4
:105280000F6102F045FB00280CBF012600260C9898
:105290001899406807F01F05401A48BF404202F0C5
:1052A00063FC4FF05E5102F0F3FC044675B16F1ED3
:1052B00020D017F00301A5F102001FD001296DD104
:1052C00043F23331C4F2D111074675E00021C4F234
:1052D000D2212046B51C02F00DFB00210028C4F2AB
:1052E0002011204618BF2E4602F019FB002818BFD7
:1052F0002E468BE00021C4F2C81174E00021C4F2F4
:10530000C81159E047F25E26141FC3F6C066022991
:1053100008BFD41E04BF41F66366C3F6BA6603280D
:1053200015D345F61D27C3F6847700BF30463946AE
:1053300002F0AEFC394602F0ABFC394602F0A8FCA4
:10534000394602F0A5FC043C21060646EED1B8F130
:10535000000F15D0B8F1010414D0DDE905100843A1
:1053600014F00301A0F1020012D0012940F08C805A
:105370004FF6AD77A8F10204C3F6B36793E000BF20
:105380000027A8E541F27B47C3F6AE67A3E500BF5F
:1053900041F27B47C3F6AE6785E000BF02294EF2BB
:1053A0009A31A5F10407C4F2E41108BFEF1E04BF4F
:1053B0004DF2BD21C4F2DA11032814D34EF2543554
:1053C000C3F685750846294602F062FC294602F0BC
:1053D0005FFC294602F05CFC294602F059FC043FC0
:1053E00039060146EED1204602F0ACFA0021CBF698
:1053F000807102F00FFA45F6294120F00040C3F613
:105400000F6102F085FA002808BF0236DDE90B7B48
:105410001999DBF8080009F01F05401A48BF4042FF
:1054200002F0A2FB4FF05E5102F032FC04467DB167
:105430006F1E21D017F00301A5F1020020D0012931
:105440004AD143F23331C4F2D111074652E000BFD2
:105450000021C4F2D2212046351D02F04BFA002172
:105460000028C4F22011204618BF2E4602F057FA39
:10547000002818BF2E4668E00021C4F2C81150E091
:105480000021C4F2C81135E047F25E27A8F10404F8
:10549000C3F6C067022908BFA8F1030404BF41F6A0
:1054A0006367C3F6BA670328FFF415AD45F61D28F8
:1054B000C3F684783846414602F0EAFB414602F0E2
:1054C000E7FB414602F0E4FB414602F0E1FB043C0D
:1054D00021060746EED1FEE402294EF29A31A5F1EB
:1054E0000407C4F2E41108BFEF1E04BF4DF2BD2152
:1054F000C4F2DA11032814D34EF25435C3F685757D
:105500000846294602F0C4FB294602F0C1FB2946A1
:1055100002F0BEFB294602F0BBFB043F3906014600
:10552000EED1204602F00EFA0021CBF6807102F097
:1055300071F945F6294120F00040C3F60F6102F0F1
:10554000E7F9002808BF04360B9FB6FA86F0400939
:10555000B8F1000F08BF02300A9CDDE9088600F1AF
:10556000040B4FF6FF70AAF80E00FF208AF8100017
:105570004FF0FF30CAF808000120B7F57A7F8AF8AB
:105580000C0007DAFA2F0DD0139DB7F5FA7F2CD156
:1055900008200BE008D0139DB7F5FA6F25D118202D
:1055A00004E000BF002000E01020139D8DF868008B
:1055B000DAE900011AAB097882790120CDE90030DF
:1055C00040F2CC100F274900C2F2000001230297DD
:1055D000FCF710FD20B99DF86800C0088AF80800A3
:1055E0009AF80A00002800F08180129901F0FE006C
:1055F0000238C90741EA5000072841D8DFE800F027
:10560000040C40164040402000208DF868009AF8B5
:10561000091081421CD133E008208DF86800012078
:105620009AF80910814213D12AE000BF10208DF8AA
:10563000680002209AF80910814209D120E000BFD9
:1056400018208DF8680003209AF80910814217D0BD
:10565000DAE900011AAB0978C2790120CDE90030FE
:1056600040F2CC100F274900C2F20000012302973C
:10567000FCF7C0FC20B99DF86800C0088AF8090052
:105680009AF80A0090B3119810B1012011E000BF00
:10569000109808B102200CE00F9808B1032008E030
:1056A0000E9808B1042004E00D9800280CBF0620D5
:1056B00005209AF80B108DF86800814216D0DAE9BF
:1056C00000011AAB097882780120CDE9003040F260
:1056D000CC100F274900C2F2000001230297FCF70B
:1056E00089FC18B99DF868008AF80B00284600F07C
:1056F000B5F9404600F032FA3046FEF705FE14B127
:10570000012000F0B1F858461BB0BDE8F08F00BF93
:10571000020000000400000008000000100000006B
:10572000040000000800000010000000200000003D
:1057300070B584B040F21805C2F20005A97C814220
:1057400002D1002004B070BD0446D5E90001012358
:10575000097802790F20CDE9013040F2CC100DF12B
:105760000F064900C2F200000096FCF795FA002CE3
:1057700044D000285FD19DF80F00D5E9001200F059
:10578000DF008DF80F0010780A790F210123CDE991
:105790000131410040F2CC10C2F200000096FCF74B
:1057A00029FC002847D10320FCF79CF895F822102B
:1057B00095F823206FF07D00002908BF02208DF8A6
:1057C0000F001AB140F030008DF80F00D5E900014C
:1057D0004FF00F0C0978C27D0120CDE9006040F246
:1057E000CC104900C2F200000123CDF808C0FCF73C
:1057F00001FC00BBAC74002004B070BDD8B99DF8AA
:105800000F00A97A00F0DF0001F0010140EA411029
:10581000D5E900128DF80F0010780A790F210123C5
:10582000CDE90131410040F2CC10C2F200000096F7
:10583000FCF7E0FB20B14FF0FF3004B070BD00BFBB
:105840000320FCF74FF895F8220095F82310024644
:1058500000281CBF01226FF07F00D20100298DF8C3
:105860000F20AFD1B2E70000F0B585B040F21805C7
:10587000C2F2000595F82410814200F08D800028C6
:1058800054D095F82500002800F08A8009B9A87A3C
:10589000C8B10020D5E900128DF8110010784A7CBB
:1058A00001210DF11103CDE90031410040F2CC108E
:1058B0000F26C2F2000001230296FCF79BFB10B9F1
:1058C0009DF81100687400200024FFF731FFE88C78
:1058D00000F0C4F868688DF81040007840F2CC14ED
:1058E000012704A9C2F200040F26CDE900174100E8
:1058F0002046232201230296FCF77CFB0220D5E9F7
:1059000000128DF8120010784A7C0DF11201CDE9D9
:10591000001741002046012385F824700296FCF709
:1059200069FBB8BB9DF81200687433E009B9A87A26
:10593000C8B10020D5E900128DF8130010784A7C18
:1059400001210DF11303CDE90031410040F2CC10EB
:105950000F27C2F2000001230297FCF74BFB10B99E
:105960009DF813006874287C69688DF81000087829
:10597000012104AACDE90021410040F2CC100F27FB
:10598000C2F20000232201230297FCF733FB002020
:1059900085F82400FFF7FAF8002005B0F0BD00BF3D
:1059A0004FF0FF3005B0F0BD10B584B040F21804E0
:1059B000C2F20004A17A002945D0BC2806D30120F8
:1059C000E17A8DF80F00814227D144E0622807D3A5
:1059D0000220E17A8DF80F0081421ED13BE000BF2A
:1059E0002A2807D30320E17A8DF80F00814214D1D1
:1059F00031E000BF142807D30420E17A8DF80F00AE
:105A000081420AD127E000BF0A2834BF06200520C2
:105A1000E17A8DF80F0081421DD0D4E900010DF12B
:105A20000F03097882780120CDE9003040F2CC10D4
:105A30004FF00F0C4900C2F200000123CDF808C05E
:105A4000FCF7D8FA20B14FF0FF3004B010BD00BF12
:105A50009DF80F00E072002004B010BD70B584B056
:105A600040F21805C2F20005A97A044600294FF059
:105A7000FF3070D095F8241000296CD1287D50B1EA
:105A8000601E80B2272803D82046FEF7B5FE61E0ED
:105A90000020FEF7B1FE4FF47A76B4F57A7F28BF86
:105AA0003446042C98BF0424B6FBF4F0D5E9001268
:105AB00001388DF80E0010784A7801210DF10E039F
:105AC000CDE90031410040F2CC100F24C2F20000B9
:105AD00001230294FCF78EFA20B14FF0FF3004B09E
